{
	"data": {
		"bytecode": {
			"linkReferences": {},
			"object": "608060405234801562000010575f80fd5b5060405162001e5838038062001e58833981810160405281019062000036919062000571565b806040518060400160405280600a81526020017f536f6c6172204772696e000000000000000000000000000000000000000000008152506040518060400160405280600381526020017f53475200000000000000000000000000000000000000000000000000000000008152508160039081620000b4919062000805565b508060049081620000c6919062000805565b5050505f73ffffffffffffffffffffffffffffffffffffffff168173ffffffffffffffffffffffffffffffffffffffff16036200013c575f6040517f1e4fbdf7000000000000000000000000000000000000000000000000000000008152600401620001339190620008fa565b60405180910390fd5b6200014d816200019360201b60201c565b506200018c33620001636200025660201b60201c565b600a62000171919062000a9e565b6103e862000180919062000aee565b6200025e60201b60201c565b5062000bd9565b5f60055f9054906101000a900473ffffffffffffffffffffffffffffffffffffffff1690508160055f6101000a81548173ffffffffffffffffffffffffffffffffffffffff021916908373ffffffffffffffffffffffffffffffffffffffff1602179055508173ffffffffffffffffffffffffffffffffffffffff168173ffffffffffffffffffffffffffffffffffffffff167f8be0079c531659141344cd1fd0a4f28419497f9722a3daafe3b4186f6b6457e060405160405180910390a35050565b5f6012905090565b5f73ffffffffffffffffffffffffffffffffffffffff168273ffffffffffffffffffffffffffffffffffffffff1603620002d1575f6040517fec442f05000000000000000000000000000000000000000000000000000000008152600401620002c89190620008fa565b60405180910390fd5b620002e45f8383620002e860201b60201c565b5050565b5f73ffffffffffffffffffffffffffffffffffffffff168373ffffffffffffffffffffffffffffffffffffffff16036200033c578060025f8282546200032f919062000b38565b925050819055506200040d565b5f805f8573ffffffffffffffffffffffffffffffffffffffff1673ffffffffffffffffffffffffffffffffffffffff1681526020019081526020015f2054905081811015620003c8578381836040517fe450d38c000000000000000000000000000000000000000000000000000000008152600401620003bf9392919062000b83565b60405180910390fd5b8181035f808673ffffffffffffffffffffffffffffffffffffffff1673ffffffffffffffffffffffffffffffffffffffff1681526020019081526020015f2081905550505b5f73ffffffffffffffffffffffffffffffffffffffff168273ffffffffffffffffffffffffffffffffffffffff160362000456578060025f8282540392505081905550620004a0565b805f808473ffffffffffffffffffffffffffffffffffffffff1673ffffffffffffffffffffffffffffffffffffffff1681526020019081526020015f205f82825401925050819055505b8173ffffffffffffffffffffffffffffffffffffffff168373ffffffffffffffffffffffffffffffffffffffff167fddf252ad1be2c89b69c2b068fc378daa952ba7f163c4a11628f55a4df523b3ef83604051620004ff919062000bbe565b60405180910390a3505050565b5f80fd5b5f73ffffffffffffffffffffffffffffffffffffffff82169050919050565b5f6200053b8262000510565b9050919050565b6200054d816200052f565b811462000558575f80fd5b50565b5f815190506200056b8162000542565b92915050565b5f602082840312156200058957620005886200050c565b5b5f62000598848285016200055b565b91505092915050565b5f81519050919050565b7f4e487b71000000000000000000000000000000000000000000000000000000005f52604160045260245ffd5b7f4e487b71000000000000000000000000000000000000000000000000000000005f52602260045260245ffd5b5f60028204905060018216806200061d57607f821691505b602082108103620006335762000632620005d8565b5b50919050565b5f819050815f5260205f209050919050565b5f6020601f8301049050919050565b5f82821b905092915050565b5f60088302620006977fffffffffffffffffffffffffffffffffffffffffffffffffffffffffffffffff826200065a565b620006a386836200065a565b95508019841693508086168417925050509392505050565b5f819050919050565b5f819050919050565b5f620006ed620006e7620006e184620006bb565b620006c4565b620006bb565b9050919050565b5f819050919050565b6200070883620006cd565b620007206200071782620006f4565b84845462000666565b825550505050565b5f90565b6200073662000728565b62000743818484620006fd565b505050565b5b818110156200076a576200075e5f826200072c565b60018101905062000749565b5050565b601f821115620007b957620007838162000639565b6200078e846200064b565b810160208510156200079e578190505b620007b6620007ad856200064b565b83018262000748565b50505b505050565b5f82821c905092915050565b5f620007db5f1984600802620007be565b1980831691505092915050565b5f620007f58383620007ca565b9150826002028217905092915050565b6200081082620005a1565b67ffffffffffffffff8111156200082c576200082b620005ab565b5b62000838825462000605565b620008458282856200076e565b5f60209050601f8311600181146200087b575f841562000866578287015190505b620008728582620007e8565b865550620008e1565b601f1984166200088b8662000639565b5f5b82811015620008b4578489015182556001820191506020850194506020810190506200088d565b86831015620008d45784890151620008d0601f891682620007ca565b8355505b6001600288020188555050505b505050505050565b620008f4816200052f565b82525050565b5f6020820190506200090f5f830184620008e9565b92915050565b7f4e487b71000000000000000000000000000000000000000000000000000000005f52601160045260245ffd5b5f8160011c9050919050565b5f808291508390505b60018511156200099f5780860481111562000977576200097662000915565b5b6001851615620009875780820291505b8081029050620009978562000942565b945062000957565b94509492505050565b5f82620009b9576001905062000a8b565b81620009c8575f905062000a8b565b8160018114620009e15760028114620009ec5762000a22565b600191505062000a8b565b60ff84111562000a015762000a0062000915565b5b8360020a91508482111562000a1b5762000a1a62000915565b5b5062000a8b565b5060208310610133831016604e8410600b841016171562000a5c5782820a90508381111562000a565762000a5562000915565b5b62000a8b565b62000a6b84848460016200094e565b9250905081840481111562000a855762000a8462000915565b5b81810290505b9392505050565b5f60ff82169050919050565b5f62000aaa82620006bb565b915062000ab78362000a92565b925062000ae67fffffffffffffffffffffffffffffffffffffffffffffffffffffffffffffffff8484620009a8565b905092915050565b5f62000afa82620006bb565b915062000b0783620006bb565b925082820262000b1781620006bb565b9150828204841483151762000b315762000b3062000915565b5b5092915050565b5f62000b4482620006bb565b915062000b5183620006bb565b925082820190508082111562000b6c5762000b6b62000915565b5b92915050565b62000b7d81620006bb565b82525050565b5f60608201905062000b985f830186620008e9565b62000ba7602083018562000b72565b62000bb6604083018462000b72565b949350505050565b5f60208201905062000bd35f83018462000b72565b92915050565b6112718062000be75f395ff3fe608060405234801561000f575f80fd5b50600436106100f3575f3560e01c806370a082311161009557806395d89b411161006457806395d89b411461025d578063a9059cbb1461027b578063dd62ed3e146102ab578063f2fde38b146102db576100f3565b806370a08231146101e9578063715018a61461021957806379cc6790146102235780638da5cb5b1461023f576100f3565b806323b872dd116100d157806323b872dd14610163578063313ce5671461019357806340c10f19146101b157806342966c68146101cd576100f3565b806306fdde03146100f7578063095ea7b31461011557806318160ddd14610145575b5f80fd5b6100ff6102f7565b60405161010c9190610ebf565b60405180910390f35b61012f600480360381019061012a9190610f70565b610387565b60405161013c9190610fc8565b60405180910390f35b61014d6103a9565b60405161015a9190610ff0565b60405180910390f35b61017d60048036038101906101789190611009565b6103b2565b60405161018a9190610fc8565b60405180910390f35b61019b6103e0565b6040516101a89190611074565b60405180910390f35b6101cb60048036038101906101c69190610f70565b6103e8565b005b6101e760048036038101906101e2919061108d565b6103fe565b005b61020360048036038101906101fe91906110b8565b610412565b6040516102109190610ff0565b60405180910390f35b610221610457565b005b61023d60048036038101906102389190610f70565b61046a565b005b61024761048a565b60405161025491906110f2565b60405180910390f35b6102656104b2565b6040516102729190610ebf565b60405180910390f35b61029560048036038101906102909190610f70565b610542565b6040516102a29190610fc8565b60405180910390f35b6102c560048036038101906102c0919061110b565b610564565b6040516102d29190610ff0565b60405180910390f35b6102f560048036038101906102f091906110b8565b6105e6565b005b60606003805461030690611176565b80601f016020809104026020016040519081016040528092919081815260200182805461033290611176565b801561037d5780601f106103545761010080835404028352916020019161037d565b820191905f5260205f20905b81548152906001019060200180831161036057829003601f168201915b5050505050905090565b5f8061039161066a565b905061039e818585610671565b600191505092915050565b5f600254905090565b5f806103bc61066a565b90506103c9858285610683565b6103d4858585610715565b60019150509392505050565b5f6012905090565b6103f0610805565b6103fa828261088c565b5050565b61040f61040961066a565b8261090b565b50565b5f805f8373ffffffffffffffffffffffffffffffffffffffff1673ffffffffffffffffffffffffffffffffffffffff1681526020019081526020015f20549050919050565b61045f610805565b6104685f61098a565b565b61047c8261047661066a565b83610683565b610486828261090b565b5050565b5f60055f9054906101000a900473ffffffffffffffffffffffffffffffffffffffff16905090565b6060600480546104c190611176565b80601f01602080910402602001604051908101604052809291908181526020018280546104ed90611176565b80156105385780601f1061050f57610100808354040283529160200191610538565b820191905f5260205f20905b81548152906001019060200180831161051b57829003601f168201915b5050505050905090565b5f8061054c61066a565b9050610559818585610715565b600191505092915050565b5f60015f8473ffffffffffffffffffffffffffffffffffffffff1673ffffffffffffffffffffffffffffffffffffffff1681526020019081526020015f205f8373ffffffffffffffffffffffffffffffffffffffff1673ffffffffffffffffffffffffffffffffffffffff1681526020019081526020015f2054905092915050565b6105ee610805565b5f73ffffffffffffffffffffffffffffffffffffffff168173ffffffffffffffffffffffffffffffffffffffff160361065e575f6040517f1e4fbdf700000000000000000000000000000000000000000000000000000000815260040161065591906110f2565b60405180910390fd5b6106678161098a565b50565b5f33905090565b61067e8383836001610a4d565b505050565b5f61068e8484610564565b90507fffffffffffffffffffffffffffffffffffffffffffffffffffffffffffffffff811461070f5781811015610700578281836040517ffb8f41b20000000000000000000000000000000000000000000000000000000081526004016106f7939291906111a6565b60405180910390fd5b61070e84848484035f610a4d565b5b50505050565b5f73ffffffffffffffffffffffffffffffffffffffff168373ffffffffffffffffffffffffffffffffffffffff1603610785575f6040517f96c6fd1e00000000000000000000000000000000000000000000000000000000815260040161077c91906110f2565b60405180910390fd5b5f73ffffffffffffffffffffffffffffffffffffffff168273ffffffffffffffffffffffffffffffffffffffff16036107f5575f6040517fec442f050000000000000000000000000000000000000000000000000000000081526004016107ec91906110f2565b60405180910390fd5b610800838383610c1c565b505050565b61080d61066a565b73ffffffffffffffffffffffffffffffffffffffff1661082b61048a565b73ffffffffffffffffffffffffffffffffffffffff161461088a5761084e61066a565b6040517f118cdaa700000000000000000000000000000000000000000000000000000000815260040161088191906110f2565b60405180910390fd5b565b5f73ffffffffffffffffffffffffffffffffffffffff168273ffffffffffffffffffffffffffffffffffffffff16036108fc575f6040517fec442f050000000000000000000000000000000000000000000000000000000081526004016108f391906110f2565b60405180910390fd5b6109075f8383610c1c565b5050565b5f73ffffffffffffffffffffffffffffffffffffffff168273ffffffffffffffffffffffffffffffffffffffff160361097b575f6040517f96c6fd1e00000000000000000000000000000000000000000000000000000000815260040161097291906110f2565b60405180910390fd5b610986825f83610c1c565b5050565b5f60055f9054906101000a900473ffffffffffffffffffffffffffffffffffffffff1690508160055f6101000a81548173ffffffffffffffffffffffffffffffffffffffff021916908373ffffffffffffffffffffffffffffffffffffffff1602179055508173ffffffffffffffffffffffffffffffffffffffff168173ffffffffffffffffffffffffffffffffffffffff167f8be0079c531659141344cd1fd0a4f28419497f9722a3daafe3b4186f6b6457e060405160405180910390a35050565b5f73ffffffffffffffffffffffffffffffffffffffff168473ffffffffffffffffffffffffffffffffffffffff1603610abd575f6040517fe602df05000000000000000000000000000000000000000000000000000000008152600401610ab491906110f2565b60405180910390fd5b5f73ffffffffffffffffffffffffffffffffffffffff168373ffffffffffffffffffffffffffffffffffffffff1603610b2d575f6040517f94280d62000000000000000000000000000000000000000000000000000000008152600401610b2491906110f2565b60405180910390fd5b8160015f8673ffffffffffffffffffffffffffffffffffffffff1673ffffffffffffffffffffffffffffffffffffffff1681526020019081526020015f205f8573ffffffffffffffffffffffffffffffffffffffff1673ffffffffffffffffffffffffffffffffffffffff1681526020019081526020015f20819055508015610c16578273ffffffffffffffffffffffffffffffffffffffff168473ffffffffffffffffffffffffffffffffffffffff167f8c5be1e5ebec7d5bd14f71427d1e84f3dd0314c0f7b2291e5b200ac8c7c3b92584604051610c0d9190610ff0565b60405180910390a35b50505050565b5f73ffffffffffffffffffffffffffffffffffffffff168373ffffffffffffffffffffffffffffffffffffffff1603610c6c578060025f828254610c609190611208565b92505081905550610d3a565b5f805f8573ffffffffffffffffffffffffffffffffffffffff1673ffffffffffffffffffffffffffffffffffffffff1681526020019081526020015f2054905081811015610cf5578381836040517fe450d38c000000000000000000000000000000000000000000000000000000008152600401610cec939291906111a6565b60405180910390fd5b8181035f808673ffffffffffffffffffffffffffffffffffffffff1673ffffffffffffffffffffffffffffffffffffffff1681526020019081526020015f2081905550505b5f73ffffffffffffffffffffffffffffffffffffffff168273ffffffffffffffffffffffffffffffffffffffff1603610d81578060025f8282540392505081905550610dcb565b805f808473ffffffffffffffffffffffffffffffffffffffff1673ffffffffffffffffffffffffffffffffffffffff1681526020019081526020015f205f82825401925050819055505b8173ffffffffffffffffffffffffffffffffffffffff168373ffffffffffffffffffffffffffffffffffffffff167fddf252ad1be2c89b69c2b068fc378daa952ba7f163c4a11628f55a4df523b3ef83604051610e289190610ff0565b60405180910390a3505050565b5f81519050919050565b5f82825260208201905092915050565b5f5b83811015610e6c578082015181840152602081019050610e51565b5f8484015250505050565b5f601f19601f8301169050919050565b5f610e9182610e35565b610e9b8185610e3f565b9350610eab818560208601610e4f565b610eb481610e77565b840191505092915050565b5f6020820190508181035f830152610ed78184610e87565b905092915050565b5f80fd5b5f73ffffffffffffffffffffffffffffffffffffffff82169050919050565b5f610f0c82610ee3565b9050919050565b610f1c81610f02565b8114610f26575f80fd5b50565b5f81359050610f3781610f13565b92915050565b5f819050919050565b610f4f81610f3d565b8114610f59575f80fd5b50565b5f81359050610f6a81610f46565b92915050565b5f8060408385031215610f8657610f85610edf565b5b5f610f9385828601610f29565b9250506020610fa485828601610f5c565b9150509250929050565b5f8115159050919050565b610fc281610fae565b82525050565b5f602082019050610fdb5f830184610fb9565b92915050565b610fea81610f3d565b82525050565b5f6020820190506110035f830184610fe1565b92915050565b5f805f606084860312156110205761101f610edf565b5b5f61102d86828701610f29565b935050602061103e86828701610f29565b925050604061104f86828701610f5c565b9150509250925092565b5f60ff82169050919050565b61106e81611059565b82525050565b5f6020820190506110875f830184611065565b92915050565b5f602082840312156110a2576110a1610edf565b5b5f6110af84828501610f5c565b91505092915050565b5f602082840312156110cd576110cc610edf565b5b5f6110da84828501610f29565b91505092915050565b6110ec81610f02565b82525050565b5f6020820190506111055f8301846110e3565b92915050565b5f806040838503121561112157611120610edf565b5b5f61112e85828601610f29565b925050602061113f85828601610f29565b9150509250929050565b7f4e487b71000000000000000000000000000000000000000000000000000000005f52602260045260245ffd5b5f600282049050600182168061118d57607f821691505b6020821081036111a05761119f611149565b5b50919050565b5f6060820190506111b95f8301866110e3565b6111c66020830185610fe1565b6111d36040830184610fe1565b949350505050565b7f4e487b71000000000000000000000000000000000000000000000000000000005f52601160045260245ffd5b5f61121282610f3d565b915061121d83610f3d565b9250828201905080821115611235576112346111db565b5b9291505056fea264697066735822122088d34f7cec32a5ee10206ccb144e49a45d895245333f20af7c9642879ce77e7564736f6c63430008140033",
			"opcodes": "PUSH1 0x80 PUSH1 0x40 MSTORE CALLVALUE DUP1 ISZERO PUSH3 0x10 JUMPI PUSH0 DUP1 REVERT JUMPDEST POP PUSH1 0x40 MLOAD PUSH3 0x1E58 CODESIZE SUB DUP1 PUSH3 0x1E58 DUP4 CODECOPY DUP2 DUP2 ADD PUSH1 0x40 MSTORE DUP2 ADD SWAP1 PUSH3 0x36 SWAP2 SWAP1 PUSH3 0x571 JUMP JUMPDEST DUP1 PUSH1 0x40 MLOAD DUP1 PUSH1 0x40 ADD PUSH1 0x40 MSTORE DUP1 PUSH1 0xA DUP2 MSTORE PUSH1 0x20 ADD PUSH32 0x536F6C6172204772696E00000000000000000000000000000000000000000000 DUP2 MSTORE POP PUSH1 0x40 MLOAD DUP1 PUSH1 0x40 ADD PUSH1 0x40 MSTORE DUP1 PUSH1 0x3 DUP2 MSTORE PUSH1 0x20 ADD PUSH32 0x5347520000000000000000000000000000000000000000000000000000000000 DUP2 MSTORE POP DUP2 PUSH1 0x3 SWAP1 DUP2 PUSH3 0xB4 SWAP2 SWAP1 PUSH3 0x805 JUMP JUMPDEST POP DUP1 PUSH1 0x4 SWAP1 DUP2 PUSH3 0xC6 SWAP2 SWAP1 PUSH3 0x805 JUMP JUMPDEST POP POP POP PUSH0 PUSH20 0xFFFFFFFFFFFFFFFFFFFFFFFFFFFFFFFFFFFFFFFF AND DUP2 PUSH20 0xFFFFFFFFFFFFFFFFFFFFFFFFFFFFFFFFFFFFFFFF AND SUB PUSH3 0x13C JUMPI PUSH0 PUSH1 0x40 MLOAD PUSH32 0x1E4FBDF700000000000000000000000000000000000000000000000000000000 DUP2 MSTORE PUSH1 0x4 ADD PUSH3 0x133 SWAP2 SWAP1 PUSH3 0x8FA JUMP JUMPDEST PUSH1 0x40 MLOAD DUP1 SWAP2 SUB SWAP1 REVERT JUMPDEST PUSH3 0x14D DUP2 PUSH3 0x193 PUSH1 0x20 SHL PUSH1 0x20 SHR JUMP JUMPDEST POP PUSH3 0x18C CALLER PUSH3 0x163 PUSH3 0x256 PUSH1 0x20 SHL PUSH1 0x20 SHR JUMP JUMPDEST PUSH1 0xA PUSH3 0x171 SWAP2 SWAP1 PUSH3 0xA9E JUMP JUMPDEST PUSH2 0x3E8 PUSH3 0x180 SWAP2 SWAP1 PUSH3 0xAEE JUMP JUMPDEST PUSH3 0x25E PUSH1 0x20 SHL PUSH1 0x20 SHR JUMP JUMPDEST POP PUSH3 0xBD9 JUMP JUMPDEST PUSH0 PUSH1 0x5 PUSH0 SWAP1 SLOAD SWAP1 PUSH2 0x100 EXP SWAP1 DIV PUSH20 0xFFFFFFFFFFFFFFFFFFFFFFFFFFFFFFFFFFFFFFFF AND SWAP1 POP DUP2 PUSH1 0x5 PUSH0 PUSH2 0x100 EXP DUP2 SLOAD DUP2 PUSH20 0xFFFFFFFFFFFFFFFFFFFFFFFFFFFFFFFFFFFFFFFF MUL NOT AND SWAP1 DUP4 PUSH20 0xFFFFFFFFFFFFFFFFFFFFFFFFFFFFFFFFFFFFFFFF AND MUL OR SWAP1 SSTORE POP DUP2 PUSH20 0xFFFFFFFFFFFFFFFFFFFFFFFFFFFFFFFFFFFFFFFF AND DUP2 PUSH20 0xFFFFFFFFFFFFFFFFFFFFFFFFFFFFFFFFFFFFFFFF AND PUSH32 0x8BE0079C531659141344CD1FD0A4F28419497F9722A3DAAFE3B4186F6B6457E0 PUSH1 0x40 MLOAD PUSH1 0x40 MLOAD DUP1 SWAP2 SUB SWAP1 LOG3 POP POP JUMP JUMPDEST PUSH0 PUSH1 0x12 SWAP1 POP SWAP1 JUMP JUMPDEST PUSH0 PUSH20 0xFFFFFFFFFFFFFFFFFFFFFFFFFFFFFFFFFFFFFFFF AND DUP3 PUSH20 0xFFFFFFFFFFFFFFFFFFFFFFFFFFFFFFFFFFFFFFFF AND SUB PUSH3 0x2D1 JUMPI PUSH0 PUSH1 0x40 MLOAD PUSH32 0xEC442F0500000000000000000000000000000000000000000000000000000000 DUP2 MSTORE PUSH1 0x4 ADD PUSH3 0x2C8 SWAP2 SWAP1 PUSH3 0x8FA JUMP JUMPDEST PUSH1 0x40 MLOAD DUP1 SWAP2 SUB SWAP1 REVERT JUMPDEST PUSH3 0x2E4 PUSH0 DUP4 DUP4 PUSH3 0x2E8 PUSH1 0x20 SHL PUSH1 0x20 SHR JUMP JUMPDEST POP POP JUMP JUMPDEST PUSH0 PUSH20 0xFFFFFFFFFFFFFFFFFFFFFFFFFFFFFFFFFFFFFFFF AND DUP4 PUSH20 0xFFFFFFFFFFFFFFFFFFFFFFFFFFFFFFFFFFFFFFFF AND SUB PUSH3 0x33C JUMPI DUP1 PUSH1 0x2 PUSH0 DUP3 DUP3 SLOAD PUSH3 0x32F SWAP2 SWAP1 PUSH3 0xB38 JUMP JUMPDEST SWAP3 POP POP DUP2 SWAP1 SSTORE POP PUSH3 0x40D JUMP JUMPDEST PUSH0 DUP1 PUSH0 DUP6 PUSH20 0xFFFFFFFFFFFFFFFFFFFFFFFFFFFFFFFFFFFFFFFF AND PUSH20 0xFFFFFFFFFFFFFFFFFFFFFFFFFFFFFFFFFFFFFFFF AND DUP2 MSTORE PUSH1 0x20 ADD SWAP1 DUP2 MSTORE PUSH1 0x20 ADD PUSH0 KECCAK256 SLOAD SWAP1 POP DUP2 DUP2 LT ISZERO PUSH3 0x3C8 JUMPI DUP4 DUP2 DUP4 PUSH1 0x40 MLOAD PUSH32 0xE450D38C00000000000000000000000000000000000000000000000000000000 DUP2 MSTORE PUSH1 0x4 ADD PUSH3 0x3BF SWAP4 SWAP3 SWAP2 SWAP1 PUSH3 0xB83 JUMP JUMPDEST PUSH1 0x40 MLOAD DUP1 SWAP2 SUB SWAP1 REVERT JUMPDEST DUP2 DUP2 SUB PUSH0 DUP1 DUP7 PUSH20 0xFFFFFFFFFFFFFFFFFFFFFFFFFFFFFFFFFFFFFFFF AND PUSH20 0xFFFFFFFFFFFFFFFFFFFFFFFFFFFFFFFFFFFFFFFF AND DUP2 MSTORE PUSH1 0x20 ADD SWAP1 DUP2 MSTORE PUSH1 0x20 ADD PUSH0 KECCAK256 DUP2 SWAP1 SSTORE POP POP JUMPDEST PUSH0 PUSH20 0xFFFFFFFFFFFFFFFFFFFFFFFFFFFFFFFFFFFFFFFF AND DUP3 PUSH20 0xFFFFFFFFFFFFFFFFFFFFFFFFFFFFFFFFFFFFFFFF AND SUB PUSH3 0x456 JUMPI DUP1 PUSH1 0x2 PUSH0 DUP3 DUP3 SLOAD SUB SWAP3 POP POP DUP2 SWAP1 SSTORE POP PUSH3 0x4A0 JUMP JUMPDEST DUP1 PUSH0 DUP1 DUP5 PUSH20 0xFFFFFFFFFFFFFFFFFFFFFFFFFFFFFFFFFFFFFFFF AND PUSH20 0xFFFFFFFFFFFFFFFFFFFFFFFFFFFFFFFFFFFFFFFF AND DUP2 MSTORE PUSH1 0x20 ADD SWAP1 DUP2 MSTORE PUSH1 0x20 ADD PUSH0 KECCAK256 PUSH0 DUP3 DUP3 SLOAD ADD SWAP3 POP POP DUP2 SWAP1 SSTORE POP JUMPDEST DUP2 PUSH20 0xFFFFFFFFFFFFFFFFFFFFFFFFFFFFFFFFFFFFFFFF AND DUP4 PUSH20 0xFFFFFFFFFFFFFFFFFFFFFFFFFFFFFFFFFFFFFFFF AND PUSH32 0xDDF252AD1BE2C89B69C2B068FC378DAA952BA7F163C4A11628F55A4DF523B3EF DUP4 PUSH1 0x40 MLOAD PUSH3 0x4FF SWAP2 SWAP1 PUSH3 0xBBE JUMP JUMPDEST PUSH1 0x40 MLOAD DUP1 SWAP2 SUB SWAP1 LOG3 POP POP POP JUMP JUMPDEST PUSH0 DUP1 REVERT JUMPDEST PUSH0 PUSH20 0xFFFFFFFFFFFFFFFFFFFFFFFFFFFFFFFFFFFFFFFF DUP3 AND SWAP1 POP SWAP2 SWAP1 POP JUMP JUMPDEST PUSH0 PUSH3 0x53B DUP3 PUSH3 0x510 JUMP JUMPDEST SWAP1 POP SWAP2 SWAP1 POP JUMP JUMPDEST PUSH3 0x54D DUP2 PUSH3 0x52F JUMP JUMPDEST DUP2 EQ PUSH3 0x558 JUMPI PUSH0 DUP1 REVERT JUMPDEST POP JUMP JUMPDEST PUSH0 DUP2 MLOAD SWAP1 POP PUSH3 0x56B DUP2 PUSH3 0x542 JUMP JUMPDEST SWAP3 SWAP2 POP POP JUMP JUMPDEST PUSH0 PUSH1 0x20 DUP3 DUP5 SUB SLT ISZERO PUSH3 0x589 JUMPI PUSH3 0x588 PUSH3 0x50C JUMP JUMPDEST JUMPDEST PUSH0 PUSH3 0x598 DUP5 DUP3 DUP6 ADD PUSH3 0x55B JUMP JUMPDEST SWAP2 POP POP SWAP3 SWAP2 POP POP JUMP JUMPDEST PUSH0 DUP2 MLOAD SWAP1 POP SWAP2 SWAP1 POP JUMP JUMPDEST PUSH32 0x4E487B7100000000000000000000000000000000000000000000000000000000 PUSH0 MSTORE PUSH1 0x41 PUSH1 0x4 MSTORE PUSH1 0x24 PUSH0 REVERT JUMPDEST PUSH32 0x4E487B7100000000000000000000000000000000000000000000000000000000 PUSH0 MSTORE PUSH1 0x22 PUSH1 0x4 MSTORE PUSH1 0x24 PUSH0 REVERT JUMPDEST PUSH0 PUSH1 0x2 DUP3 DIV SWAP1 POP PUSH1 0x1 DUP3 AND DUP1 PUSH3 0x61D JUMPI PUSH1 0x7F DUP3 AND SWAP2 POP JUMPDEST PUSH1 0x20 DUP3 LT DUP2 SUB PUSH3 0x633 JUMPI PUSH3 0x632 PUSH3 0x5D8 JUMP JUMPDEST JUMPDEST POP SWAP2 SWAP1 POP JUMP JUMPDEST PUSH0 DUP2 SWAP1 POP DUP2 PUSH0 MSTORE PUSH1 0x20 PUSH0 KECCAK256 SWAP1 POP SWAP2 SWAP1 POP JUMP JUMPDEST PUSH0 PUSH1 0x20 PUSH1 0x1F DUP4 ADD DIV SWAP1 POP SWAP2 SWAP1 POP JUMP JUMPDEST PUSH0 DUP3 DUP3 SHL SWAP1 POP SWAP3 SWAP2 POP POP JUMP JUMPDEST PUSH0 PUSH1 0x8 DUP4 MUL PUSH3 0x697 PUSH32 0xFFFFFFFFFFFFFFFFFFFFFFFFFFFFFFFFFFFFFFFFFFFFFFFFFFFFFFFFFFFFFFFF DUP3 PUSH3 0x65A JUMP JUMPDEST PUSH3 0x6A3 DUP7 DUP4 PUSH3 0x65A JUMP JUMPDEST SWAP6 POP DUP1 NOT DUP5 AND SWAP4 POP DUP1 DUP7 AND DUP5 OR SWAP3 POP POP POP SWAP4 SWAP3 POP POP POP JUMP JUMPDEST PUSH0 DUP2 SWAP1 POP SWAP2 SWAP1 POP JUMP JUMPDEST PUSH0 DUP2 SWAP1 POP SWAP2 SWAP1 POP JUMP JUMPDEST PUSH0 PUSH3 0x6ED PUSH3 0x6E7 PUSH3 0x6E1 DUP5 PUSH3 0x6BB JUMP JUMPDEST PUSH3 0x6C4 JUMP JUMPDEST PUSH3 0x6BB JUMP JUMPDEST SWAP1 POP SWAP2 SWAP1 POP JUMP JUMPDEST PUSH0 DUP2 SWAP1 POP SWAP2 SWAP1 POP JUMP JUMPDEST PUSH3 0x708 DUP4 PUSH3 0x6CD JUMP JUMPDEST PUSH3 0x720 PUSH3 0x717 DUP3 PUSH3 0x6F4 JUMP JUMPDEST DUP5 DUP5 SLOAD PUSH3 0x666 JUMP JUMPDEST DUP3 SSTORE POP POP POP POP JUMP JUMPDEST PUSH0 SWAP1 JUMP JUMPDEST PUSH3 0x736 PUSH3 0x728 JUMP JUMPDEST PUSH3 0x743 DUP2 DUP5 DUP5 PUSH3 0x6FD JUMP JUMPDEST POP POP POP JUMP JUMPDEST JUMPDEST DUP2 DUP2 LT ISZERO PUSH3 0x76A JUMPI PUSH3 0x75E PUSH0 DUP3 PUSH3 0x72C JUMP JUMPDEST PUSH1 0x1 DUP2 ADD SWAP1 POP PUSH3 0x749 JUMP JUMPDEST POP POP JUMP JUMPDEST PUSH1 0x1F DUP3 GT ISZERO PUSH3 0x7B9 JUMPI PUSH3 0x783 DUP2 PUSH3 0x639 JUMP JUMPDEST PUSH3 0x78E DUP5 PUSH3 0x64B JUMP JUMPDEST DUP2 ADD PUSH1 0x20 DUP6 LT ISZERO PUSH3 0x79E JUMPI DUP2 SWAP1 POP JUMPDEST PUSH3 0x7B6 PUSH3 0x7AD DUP6 PUSH3 0x64B JUMP JUMPDEST DUP4 ADD DUP3 PUSH3 0x748 JUMP JUMPDEST POP POP JUMPDEST POP POP POP JUMP JUMPDEST PUSH0 DUP3 DUP3 SHR SWAP1 POP SWAP3 SWAP2 POP POP JUMP JUMPDEST PUSH0 PUSH3 0x7DB PUSH0 NOT DUP5 PUSH1 0x8 MUL PUSH3 0x7BE JUMP JUMPDEST NOT DUP1 DUP4 AND SWAP2 POP POP SWAP3 SWAP2 POP POP JUMP JUMPDEST PUSH0 PUSH3 0x7F5 DUP4 DUP4 PUSH3 0x7CA JUMP JUMPDEST SWAP2 POP DUP3 PUSH1 0x2 MUL DUP3 OR SWAP1 POP SWAP3 SWAP2 POP POP JUMP JUMPDEST PUSH3 0x810 DUP3 PUSH3 0x5A1 JUMP JUMPDEST PUSH8 0xFFFFFFFFFFFFFFFF DUP2 GT ISZERO PUSH3 0x82C JUMPI PUSH3 0x82B PUSH3 0x5AB JUMP JUMPDEST JUMPDEST PUSH3 0x838 DUP3 SLOAD PUSH3 0x605 JUMP JUMPDEST PUSH3 0x845 DUP3 DUP3 DUP6 PUSH3 0x76E JUMP JUMPDEST PUSH0 PUSH1 0x20 SWAP1 POP PUSH1 0x1F DUP4 GT PUSH1 0x1 DUP2 EQ PUSH3 0x87B JUMPI PUSH0 DUP5 ISZERO PUSH3 0x866 JUMPI DUP3 DUP8 ADD MLOAD SWAP1 POP JUMPDEST PUSH3 0x872 DUP6 DUP3 PUSH3 0x7E8 JUMP JUMPDEST DUP7 SSTORE POP PUSH3 0x8E1 JUMP JUMPDEST PUSH1 0x1F NOT DUP5 AND PUSH3 0x88B DUP7 PUSH3 0x639 JUMP JUMPDEST PUSH0 JUMPDEST DUP3 DUP2 LT ISZERO PUSH3 0x8B4 JUMPI DUP5 DUP10 ADD MLOAD DUP3 SSTORE PUSH1 0x1 DUP3 ADD SWAP2 POP PUSH1 0x20 DUP6 ADD SWAP5 POP PUSH1 0x20 DUP2 ADD SWAP1 POP PUSH3 0x88D JUMP JUMPDEST DUP7 DUP4 LT ISZERO PUSH3 0x8D4 JUMPI DUP5 DUP10 ADD MLOAD PUSH3 0x8D0 PUSH1 0x1F DUP10 AND DUP3 PUSH3 0x7CA JUMP JUMPDEST DUP4 SSTORE POP JUMPDEST PUSH1 0x1 PUSH1 0x2 DUP9 MUL ADD DUP9 SSTORE POP POP POP JUMPDEST POP POP POP POP POP POP JUMP JUMPDEST PUSH3 0x8F4 DUP2 PUSH3 0x52F JUMP JUMPDEST DUP3 MSTORE POP POP JUMP JUMPDEST PUSH0 PUSH1 0x20 DUP3 ADD SWAP1 POP PUSH3 0x90F PUSH0 DUP4 ADD DUP5 PUSH3 0x8E9 JUMP JUMPDEST SWAP3 SWAP2 POP POP JUMP JUMPDEST PUSH32 0x4E487B7100000000000000000000000000000000000000000000000000000000 PUSH0 MSTORE PUSH1 0x11 PUSH1 0x4 MSTORE PUSH1 0x24 PUSH0 REVERT JUMPDEST PUSH0 DUP2 PUSH1 0x1 SHR SWAP1 POP SWAP2 SWAP1 POP JUMP JUMPDEST PUSH0 DUP1 DUP3 SWAP2 POP DUP4 SWAP1 POP JUMPDEST PUSH1 0x1 DUP6 GT ISZERO PUSH3 0x99F JUMPI DUP1 DUP7 DIV DUP2 GT ISZERO PUSH3 0x977 JUMPI PUSH3 0x976 PUSH3 0x915 JUMP JUMPDEST JUMPDEST PUSH1 0x1 DUP6 AND ISZERO PUSH3 0x987 JUMPI DUP1 DUP3 MUL SWAP2 POP JUMPDEST DUP1 DUP2 MUL SWAP1 POP PUSH3 0x997 DUP6 PUSH3 0x942 JUMP JUMPDEST SWAP5 POP PUSH3 0x957 JUMP JUMPDEST SWAP5 POP SWAP5 SWAP3 POP POP POP JUMP JUMPDEST PUSH0 DUP3 PUSH3 0x9B9 JUMPI PUSH1 0x1 SWAP1 POP PUSH3 0xA8B JUMP JUMPDEST DUP2 PUSH3 0x9C8 JUMPI PUSH0 SWAP1 POP PUSH3 0xA8B JUMP JUMPDEST DUP2 PUSH1 0x1 DUP2 EQ PUSH3 0x9E1 JUMPI PUSH1 0x2 DUP2 EQ PUSH3 0x9EC JUMPI PUSH3 0xA22 JUMP JUMPDEST PUSH1 0x1 SWAP2 POP POP PUSH3 0xA8B JUMP JUMPDEST PUSH1 0xFF DUP5 GT ISZERO PUSH3 0xA01 JUMPI PUSH3 0xA00 PUSH3 0x915 JUMP JUMPDEST JUMPDEST DUP4 PUSH1 0x2 EXP SWAP2 POP DUP5 DUP3 GT ISZERO PUSH3 0xA1B JUMPI PUSH3 0xA1A PUSH3 0x915 JUMP JUMPDEST JUMPDEST POP PUSH3 0xA8B JUMP JUMPDEST POP PUSH1 0x20 DUP4 LT PUSH2 0x133 DUP4 LT AND PUSH1 0x4E DUP5 LT PUSH1 0xB DUP5 LT AND OR ISZERO PUSH3 0xA5C JUMPI DUP3 DUP3 EXP SWAP1 POP DUP4 DUP2 GT ISZERO PUSH3 0xA56 JUMPI PUSH3 0xA55 PUSH3 0x915 JUMP JUMPDEST JUMPDEST PUSH3 0xA8B JUMP JUMPDEST PUSH3 0xA6B DUP5 DUP5 DUP5 PUSH1 0x1 PUSH3 0x94E JUMP JUMPDEST SWAP3 POP SWAP1 POP DUP2 DUP5 DIV DUP2 GT ISZERO PUSH3 0xA85 JUMPI PUSH3 0xA84 PUSH3 0x915 JUMP JUMPDEST JUMPDEST DUP2 DUP2 MUL SWAP1 POP JUMPDEST SWAP4 SWAP3 POP POP POP JUMP JUMPDEST PUSH0 PUSH1 0xFF DUP3 AND SWAP1 POP SWAP2 SWAP1 POP JUMP JUMPDEST PUSH0 PUSH3 0xAAA DUP3 PUSH3 0x6BB JUMP JUMPDEST SWAP2 POP PUSH3 0xAB7 DUP4 PUSH3 0xA92 JUMP JUMPDEST SWAP3 POP PUSH3 0xAE6 PUSH32 0xFFFFFFFFFFFFFFFFFFFFFFFFFFFFFFFFFFFFFFFFFFFFFFFFFFFFFFFFFFFFFFFF DUP5 DUP5 PUSH3 0x9A8 JUMP JUMPDEST SWAP1 POP SWAP3 SWAP2 POP POP JUMP JUMPDEST PUSH0 PUSH3 0xAFA DUP3 PUSH3 0x6BB JUMP JUMPDEST SWAP2 POP PUSH3 0xB07 DUP4 PUSH3 0x6BB JUMP JUMPDEST SWAP3 POP DUP3 DUP3 MUL PUSH3 0xB17 DUP2 PUSH3 0x6BB JUMP JUMPDEST SWAP2 POP DUP3 DUP3 DIV DUP5 EQ DUP4 ISZERO OR PUSH3 0xB31 JUMPI PUSH3 0xB30 PUSH3 0x915 JUMP JUMPDEST JUMPDEST POP SWAP3 SWAP2 POP POP JUMP JUMPDEST PUSH0 PUSH3 0xB44 DUP3 PUSH3 0x6BB JUMP JUMPDEST SWAP2 POP PUSH3 0xB51 DUP4 PUSH3 0x6BB JUMP JUMPDEST SWAP3 POP DUP3 DUP3 ADD SWAP1 POP DUP1 DUP3 GT ISZERO PUSH3 0xB6C JUMPI PUSH3 0xB6B PUSH3 0x915 JUMP JUMPDEST JUMPDEST SWAP3 SWAP2 POP POP JUMP JUMPDEST PUSH3 0xB7D DUP2 PUSH3 0x6BB JUMP JUMPDEST DUP3 MSTORE POP POP JUMP JUMPDEST PUSH0 PUSH1 0x60 DUP3 ADD SWAP1 POP PUSH3 0xB98 PUSH0 DUP4 ADD DUP7 PUSH3 0x8E9 JUMP JUMPDEST PUSH3 0xBA7 PUSH1 0x20 DUP4 ADD DUP6 PUSH3 0xB72 JUMP JUMPDEST PUSH3 0xBB6 PUSH1 0x40 DUP4 ADD DUP5 PUSH3 0xB72 JUMP JUMPDEST SWAP5 SWAP4 POP POP POP POP JUMP JUMPDEST PUSH0 PUSH1 0x20 DUP3 ADD SWAP1 POP PUSH3 0xBD3 PUSH0 DUP4 ADD DUP5 PUSH3 0xB72 JUMP JUMPDEST SWAP3 SWAP2 POP POP JUMP JUMPDEST PUSH2 0x1271 DUP1 PUSH3 0xBE7 PUSH0 CODECOPY PUSH0 RETURN INVALID PUSH1 0x80 PUSH1 0x40 MSTORE CALLVALUE DUP1 ISZERO PUSH2 0xF JUMPI PUSH0 DUP1 REVERT JUMPDEST POP PUSH1 0x4 CALLDATASIZE LT PUSH2 0xF3 JUMPI PUSH0 CALLDATALOAD PUSH1 0xE0 SHR DUP1 PUSH4 0x70A08231 GT PUSH2 0x95 JUMPI DUP1 PUSH4 0x95D89B41 GT PUSH2 0x64 JUMPI DUP1 PUSH4 0x95D89B41 EQ PUSH2 0x25D JUMPI DUP1 PUSH4 0xA9059CBB EQ PUSH2 0x27B JUMPI DUP1 PUSH4 0xDD62ED3E EQ PUSH2 0x2AB JUMPI DUP1 PUSH4 0xF2FDE38B EQ PUSH2 0x2DB JUMPI PUSH2 0xF3 JUMP JUMPDEST DUP1 PUSH4 0x70A08231 EQ PUSH2 0x1E9 JUMPI DUP1 PUSH4 0x715018A6 EQ PUSH2 0x219 JUMPI DUP1 PUSH4 0x79CC6790 EQ PUSH2 0x223 JUMPI DUP1 PUSH4 0x8DA5CB5B EQ PUSH2 0x23F JUMPI PUSH2 0xF3 JUMP JUMPDEST DUP1 PUSH4 0x23B872DD GT PUSH2 0xD1 JUMPI DUP1 PUSH4 0x23B872DD EQ PUSH2 0x163 JUMPI DUP1 PUSH4 0x313CE567 EQ PUSH2 0x193 JUMPI DUP1 PUSH4 0x40C10F19 EQ PUSH2 0x1B1 JUMPI DUP1 PUSH4 0x42966C68 EQ PUSH2 0x1CD JUMPI PUSH2 0xF3 JUMP JUMPDEST DUP1 PUSH4 0x6FDDE03 EQ PUSH2 0xF7 JUMPI DUP1 PUSH4 0x95EA7B3 EQ PUSH2 0x115 JUMPI DUP1 PUSH4 0x18160DDD EQ PUSH2 0x145 JUMPI JUMPDEST PUSH0 DUP1 REVERT JUMPDEST PUSH2 0xFF PUSH2 0x2F7 JUMP JUMPDEST PUSH1 0x40 MLOAD PUSH2 0x10C SWAP2 SWAP1 PUSH2 0xEBF JUMP JUMPDEST PUSH1 0x40 MLOAD DUP1 SWAP2 SUB SWAP1 RETURN JUMPDEST PUSH2 0x12F PUSH1 0x4 DUP1 CALLDATASIZE SUB DUP2 ADD SWAP1 PUSH2 0x12A SWAP2 SWAP1 PUSH2 0xF70 JUMP JUMPDEST PUSH2 0x387 JUMP JUMPDEST PUSH1 0x40 MLOAD PUSH2 0x13C SWAP2 SWAP1 PUSH2 0xFC8 JUMP JUMPDEST PUSH1 0x40 MLOAD DUP1 SWAP2 SUB SWAP1 RETURN JUMPDEST PUSH2 0x14D PUSH2 0x3A9 JUMP JUMPDEST PUSH1 0x40 MLOAD PUSH2 0x15A SWAP2 SWAP1 PUSH2 0xFF0 JUMP JUMPDEST PUSH1 0x40 MLOAD DUP1 SWAP2 SUB SWAP1 RETURN JUMPDEST PUSH2 0x17D PUSH1 0x4 DUP1 CALLDATASIZE SUB DUP2 ADD SWAP1 PUSH2 0x178 SWAP2 SWAP1 PUSH2 0x1009 JUMP JUMPDEST PUSH2 0x3B2 JUMP JUMPDEST PUSH1 0x40 MLOAD PUSH2 0x18A SWAP2 SWAP1 PUSH2 0xFC8 JUMP JUMPDEST PUSH1 0x40 MLOAD DUP1 SWAP2 SUB SWAP1 RETURN JUMPDEST PUSH2 0x19B PUSH2 0x3E0 JUMP JUMPDEST PUSH1 0x40 MLOAD PUSH2 0x1A8 SWAP2 SWAP1 PUSH2 0x1074 JUMP JUMPDEST PUSH1 0x40 MLOAD DUP1 SWAP2 SUB SWAP1 RETURN JUMPDEST PUSH2 0x1CB PUSH1 0x4 DUP1 CALLDATASIZE SUB DUP2 ADD SWAP1 PUSH2 0x1C6 SWAP2 SWAP1 PUSH2 0xF70 JUMP JUMPDEST PUSH2 0x3E8 JUMP JUMPDEST STOP JUMPDEST PUSH2 0x1E7 PUSH1 0x4 DUP1 CALLDATASIZE SUB DUP2 ADD SWAP1 PUSH2 0x1E2 SWAP2 SWAP1 PUSH2 0x108D JUMP JUMPDEST PUSH2 0x3FE JUMP JUMPDEST STOP JUMPDEST PUSH2 0x203 PUSH1 0x4 DUP1 CALLDATASIZE SUB DUP2 ADD SWAP1 PUSH2 0x1FE SWAP2 SWAP1 PUSH2 0x10B8 JUMP JUMPDEST PUSH2 0x412 JUMP JUMPDEST PUSH1 0x40 MLOAD PUSH2 0x210 SWAP2 SWAP1 PUSH2 0xFF0 JUMP JUMPDEST PUSH1 0x40 MLOAD DUP1 SWAP2 SUB SWAP1 RETURN JUMPDEST PUSH2 0x221 PUSH2 0x457 JUMP JUMPDEST STOP JUMPDEST PUSH2 0x23D PUSH1 0x4 DUP1 CALLDATASIZE SUB DUP2 ADD SWAP1 PUSH2 0x238 SWAP2 SWAP1 PUSH2 0xF70 JUMP JUMPDEST PUSH2 0x46A JUMP JUMPDEST STOP JUMPDEST PUSH2 0x247 PUSH2 0x48A JUMP JUMPDEST PUSH1 0x40 MLOAD PUSH2 0x254 SWAP2 SWAP1 PUSH2 0x10F2 JUMP JUMPDEST PUSH1 0x40 MLOAD DUP1 SWAP2 SUB SWAP1 RETURN JUMPDEST PUSH2 0x265 PUSH2 0x4B2 JUMP JUMPDEST PUSH1 0x40 MLOAD PUSH2 0x272 SWAP2 SWAP1 PUSH2 0xEBF JUMP JUMPDEST PUSH1 0x40 MLOAD DUP1 SWAP2 SUB SWAP1 RETURN JUMPDEST PUSH2 0x295 PUSH1 0x4 DUP1 CALLDATASIZE SUB DUP2 ADD SWAP1 PUSH2 0x290 SWAP2 SWAP1 PUSH2 0xF70 JUMP JUMPDEST PUSH2 0x542 JUMP JUMPDEST PUSH1 0x40 MLOAD PUSH2 0x2A2 SWAP2 SWAP1 PUSH2 0xFC8 JUMP JUMPDEST PUSH1 0x40 MLOAD DUP1 SWAP2 SUB SWAP1 RETURN JUMPDEST PUSH2 0x2C5 PUSH1 0x4 DUP1 CALLDATASIZE SUB DUP2 ADD SWAP1 PUSH2 0x2C0 SWAP2 SWAP1 PUSH2 0x110B JUMP JUMPDEST PUSH2 0x564 JUMP JUMPDEST PUSH1 0x40 MLOAD PUSH2 0x2D2 SWAP2 SWAP1 PUSH2 0xFF0 JUMP JUMPDEST PUSH1 0x40 MLOAD DUP1 SWAP2 SUB SWAP1 RETURN JUMPDEST PUSH2 0x2F5 PUSH1 0x4 DUP1 CALLDATASIZE SUB DUP2 ADD SWAP1 PUSH2 0x2F0 SWAP2 SWAP1 PUSH2 0x10B8 JUMP JUMPDEST PUSH2 0x5E6 JUMP JUMPDEST STOP JUMPDEST PUSH1 0x60 PUSH1 0x3 DUP1 SLOAD PUSH2 0x306 SWAP1 PUSH2 0x1176 JUMP JUMPDEST DUP1 PUSH1 0x1F ADD PUSH1 0x20 DUP1 SWAP2 DIV MUL PUSH1 0x20 ADD PUSH1 0x40 MLOAD SWAP1 DUP2 ADD PUSH1 0x40 MSTORE DUP1 SWAP3 SWAP2 SWAP1 DUP2 DUP2 MSTORE PUSH1 0x20 ADD DUP3 DUP1 SLOAD PUSH2 0x332 SWAP1 PUSH2 0x1176 JUMP JUMPDEST DUP1 ISZERO PUSH2 0x37D JUMPI DUP1 PUSH1 0x1F LT PUSH2 0x354 JUMPI PUSH2 0x100 DUP1 DUP4 SLOAD DIV MUL DUP4 MSTORE SWAP2 PUSH1 0x20 ADD SWAP2 PUSH2 0x37D JUMP JUMPDEST DUP3 ADD SWAP2 SWAP1 PUSH0 MSTORE PUSH1 0x20 PUSH0 KECCAK256 SWAP1 JUMPDEST DUP2 SLOAD DUP2 MSTORE SWAP1 PUSH1 0x1 ADD SWAP1 PUSH1 0x20 ADD DUP1 DUP4 GT PUSH2 0x360 JUMPI DUP3 SWAP1 SUB PUSH1 0x1F AND DUP3 ADD SWAP2 JUMPDEST POP POP POP POP POP SWAP1 POP SWAP1 JUMP JUMPDEST PUSH0 DUP1 PUSH2 0x391 PUSH2 0x66A JUMP JUMPDEST SWAP1 POP PUSH2 0x39E DUP2 DUP6 DUP6 PUSH2 0x671 JUMP JUMPDEST PUSH1 0x1 SWAP2 POP POP SWAP3 SWAP2 POP POP JUMP JUMPDEST PUSH0 PUSH1 0x2 SLOAD SWAP1 POP SWAP1 JUMP JUMPDEST PUSH0 DUP1 PUSH2 0x3BC PUSH2 0x66A JUMP JUMPDEST SWAP1 POP PUSH2 0x3C9 DUP6 DUP3 DUP6 PUSH2 0x683 JUMP JUMPDEST PUSH2 0x3D4 DUP6 DUP6 DUP6 PUSH2 0x715 JUMP JUMPDEST PUSH1 0x1 SWAP2 POP POP SWAP4 SWAP3 POP POP POP JUMP JUMPDEST PUSH0 PUSH1 0x12 SWAP1 POP SWAP1 JUMP JUMPDEST PUSH2 0x3F0 PUSH2 0x805 JUMP JUMPDEST PUSH2 0x3FA DUP3 DUP3 PUSH2 0x88C JUMP JUMPDEST POP POP JUMP JUMPDEST PUSH2 0x40F PUSH2 0x409 PUSH2 0x66A JUMP JUMPDEST DUP3 PUSH2 0x90B JUMP JUMPDEST POP JUMP JUMPDEST PUSH0 DUP1 PUSH0 DUP4 PUSH20 0xFFFFFFFFFFFFFFFFFFFFFFFFFFFFFFFFFFFFFFFF AND PUSH20 0xFFFFFFFFFFFFFFFFFFFFFFFFFFFFFFFFFFFFFFFF AND DUP2 MSTORE PUSH1 0x20 ADD SWAP1 DUP2 MSTORE PUSH1 0x20 ADD PUSH0 KECCAK256 SLOAD SWAP1 POP SWAP2 SWAP1 POP JUMP JUMPDEST PUSH2 0x45F PUSH2 0x805 JUMP JUMPDEST PUSH2 0x468 PUSH0 PUSH2 0x98A JUMP JUMPDEST JUMP JUMPDEST PUSH2 0x47C DUP3 PUSH2 0x476 PUSH2 0x66A JUMP JUMPDEST DUP4 PUSH2 0x683 JUMP JUMPDEST PUSH2 0x486 DUP3 DUP3 PUSH2 0x90B JUMP JUMPDEST POP POP JUMP JUMPDEST PUSH0 PUSH1 0x5 PUSH0 SWAP1 SLOAD SWAP1 PUSH2 0x100 EXP SWAP1 DIV PUSH20 0xFFFFFFFFFFFFFFFFFFFFFFFFFFFFFFFFFFFFFFFF AND SWAP1 POP SWAP1 JUMP JUMPDEST PUSH1 0x60 PUSH1 0x4 DUP1 SLOAD PUSH2 0x4C1 SWAP1 PUSH2 0x1176 JUMP JUMPDEST DUP1 PUSH1 0x1F ADD PUSH1 0x20 DUP1 SWAP2 DIV MUL PUSH1 0x20 ADD PUSH1 0x40 MLOAD SWAP1 DUP2 ADD PUSH1 0x40 MSTORE DUP1 SWAP3 SWAP2 SWAP1 DUP2 DUP2 MSTORE PUSH1 0x20 ADD DUP3 DUP1 SLOAD PUSH2 0x4ED SWAP1 PUSH2 0x1176 JUMP JUMPDEST DUP1 ISZERO PUSH2 0x538 JUMPI DUP1 PUSH1 0x1F LT PUSH2 0x50F JUMPI PUSH2 0x100 DUP1 DUP4 SLOAD DIV MUL DUP4 MSTORE SWAP2 PUSH1 0x20 ADD SWAP2 PUSH2 0x538 JUMP JUMPDEST DUP3 ADD SWAP2 SWAP1 PUSH0 MSTORE PUSH1 0x20 PUSH0 KECCAK256 SWAP1 JUMPDEST DUP2 SLOAD DUP2 MSTORE SWAP1 PUSH1 0x1 ADD SWAP1 PUSH1 0x20 ADD DUP1 DUP4 GT PUSH2 0x51B JUMPI DUP3 SWAP1 SUB PUSH1 0x1F AND DUP3 ADD SWAP2 JUMPDEST POP POP POP POP POP SWAP1 POP SWAP1 JUMP JUMPDEST PUSH0 DUP1 PUSH2 0x54C PUSH2 0x66A JUMP JUMPDEST SWAP1 POP PUSH2 0x559 DUP2 DUP6 DUP6 PUSH2 0x715 JUMP JUMPDEST PUSH1 0x1 SWAP2 POP POP SWAP3 SWAP2 POP POP JUMP JUMPDEST PUSH0 PUSH1 0x1 PUSH0 DUP5 PUSH20 0xFFFFFFFFFFFFFFFFFFFFFFFFFFFFFFFFFFFFFFFF AND PUSH20 0xFFFFFFFFFFFFFFFFFFFFFFFFFFFFFFFFFFFFFFFF AND DUP2 MSTORE PUSH1 0x20 ADD SWAP1 DUP2 MSTORE PUSH1 0x20 ADD PUSH0 KECCAK256 PUSH0 DUP4 PUSH20 0xFFFFFFFFFFFFFFFFFFFFFFFFFFFFFFFFFFFFFFFF AND PUSH20 0xFFFFFFFFFFFFFFFFFFFFFFFFFFFFFFFFFFFFFFFF AND DUP2 MSTORE PUSH1 0x20 ADD SWAP1 DUP2 MSTORE PUSH1 0x20 ADD PUSH0 KECCAK256 SLOAD SWAP1 POP SWAP3 SWAP2 POP POP JUMP JUMPDEST PUSH2 0x5EE PUSH2 0x805 JUMP JUMPDEST PUSH0 PUSH20 0xFFFFFFFFFFFFFFFFFFFFFFFFFFFFFFFFFFFFFFFF AND DUP2 PUSH20 0xFFFFFFFFFFFFFFFFFFFFFFFFFFFFFFFFFFFFFFFF AND SUB PUSH2 0x65E JUMPI PUSH0 PUSH1 0x40 MLOAD PUSH32 0x1E4FBDF700000000000000000000000000000000000000000000000000000000 DUP2 MSTORE PUSH1 0x4 ADD PUSH2 0x655 SWAP2 SWAP1 PUSH2 0x10F2 JUMP JUMPDEST PUSH1 0x40 MLOAD DUP1 SWAP2 SUB SWAP1 REVERT JUMPDEST PUSH2 0x667 DUP2 PUSH2 0x98A JUMP JUMPDEST POP JUMP JUMPDEST PUSH0 CALLER SWAP1 POP SWAP1 JUMP JUMPDEST PUSH2 0x67E DUP4 DUP4 DUP4 PUSH1 0x1 PUSH2 0xA4D JUMP JUMPDEST POP POP POP JUMP JUMPDEST PUSH0 PUSH2 0x68E DUP5 DUP5 PUSH2 0x564 JUMP JUMPDEST SWAP1 POP PUSH32 0xFFFFFFFFFFFFFFFFFFFFFFFFFFFFFFFFFFFFFFFFFFFFFFFFFFFFFFFFFFFFFFFF DUP2 EQ PUSH2 0x70F JUMPI DUP2 DUP2 LT ISZERO PUSH2 0x700 JUMPI DUP3 DUP2 DUP4 PUSH1 0x40 MLOAD PUSH32 0xFB8F41B200000000000000000000000000000000000000000000000000000000 DUP2 MSTORE PUSH1 0x4 ADD PUSH2 0x6F7 SWAP4 SWAP3 SWAP2 SWAP1 PUSH2 0x11A6 JUMP JUMPDEST PUSH1 0x40 MLOAD DUP1 SWAP2 SUB SWAP1 REVERT JUMPDEST PUSH2 0x70E DUP5 DUP5 DUP5 DUP5 SUB PUSH0 PUSH2 0xA4D JUMP JUMPDEST JUMPDEST POP POP POP POP JUMP JUMPDEST PUSH0 PUSH20 0xFFFFFFFFFFFFFFFFFFFFFFFFFFFFFFFFFFFFFFFF AND DUP4 PUSH20 0xFFFFFFFFFFFFFFFFFFFFFFFFFFFFFFFFFFFFFFFF AND SUB PUSH2 0x785 JUMPI PUSH0 PUSH1 0x40 MLOAD PUSH32 0x96C6FD1E00000000000000000000000000000000000000000000000000000000 DUP2 MSTORE PUSH1 0x4 ADD PUSH2 0x77C SWAP2 SWAP1 PUSH2 0x10F2 JUMP JUMPDEST PUSH1 0x40 MLOAD DUP1 SWAP2 SUB SWAP1 REVERT JUMPDEST PUSH0 PUSH20 0xFFFFFFFFFFFFFFFFFFFFFFFFFFFFFFFFFFFFFFFF AND DUP3 PUSH20 0xFFFFFFFFFFFFFFFFFFFFFFFFFFFFFFFFFFFFFFFF AND SUB PUSH2 0x7F5 JUMPI PUSH0 PUSH1 0x40 MLOAD PUSH32 0xEC442F0500000000000000000000000000000000000000000000000000000000 DUP2 MSTORE PUSH1 0x4 ADD PUSH2 0x7EC SWAP2 SWAP1 PUSH2 0x10F2 JUMP JUMPDEST PUSH1 0x40 MLOAD DUP1 SWAP2 SUB SWAP1 REVERT JUMPDEST PUSH2 0x800 DUP4 DUP4 DUP4 PUSH2 0xC1C JUMP JUMPDEST POP POP POP JUMP JUMPDEST PUSH2 0x80D PUSH2 0x66A JUMP JUMPDEST PUSH20 0xFFFFFFFFFFFFFFFFFFFFFFFFFFFFFFFFFFFFFFFF AND PUSH2 0x82B PUSH2 0x48A JUMP JUMPDEST PUSH20 0xFFFFFFFFFFFFFFFFFFFFFFFFFFFFFFFFFFFFFFFF AND EQ PUSH2 0x88A JUMPI PUSH2 0x84E PUSH2 0x66A JUMP JUMPDEST PUSH1 0x40 MLOAD PUSH32 0x118CDAA700000000000000000000000000000000000000000000000000000000 DUP2 MSTORE PUSH1 0x4 ADD PUSH2 0x881 SWAP2 SWAP1 PUSH2 0x10F2 JUMP JUMPDEST PUSH1 0x40 MLOAD DUP1 SWAP2 SUB SWAP1 REVERT JUMPDEST JUMP JUMPDEST PUSH0 PUSH20 0xFFFFFFFFFFFFFFFFFFFFFFFFFFFFFFFFFFFFFFFF AND DUP3 PUSH20 0xFFFFFFFFFFFFFFFFFFFFFFFFFFFFFFFFFFFFFFFF AND SUB PUSH2 0x8FC JUMPI PUSH0 PUSH1 0x40 MLOAD PUSH32 0xEC442F0500000000000000000000000000000000000000000000000000000000 DUP2 MSTORE PUSH1 0x4 ADD PUSH2 0x8F3 SWAP2 SWAP1 PUSH2 0x10F2 JUMP JUMPDEST PUSH1 0x40 MLOAD DUP1 SWAP2 SUB SWAP1 REVERT JUMPDEST PUSH2 0x907 PUSH0 DUP4 DUP4 PUSH2 0xC1C JUMP JUMPDEST POP POP JUMP JUMPDEST PUSH0 PUSH20 0xFFFFFFFFFFFFFFFFFFFFFFFFFFFFFFFFFFFFFFFF AND DUP3 PUSH20 0xFFFFFFFFFFFFFFFFFFFFFFFFFFFFFFFFFFFFFFFF AND SUB PUSH2 0x97B JUMPI PUSH0 PUSH1 0x40 MLOAD PUSH32 0x96C6FD1E00000000000000000000000000000000000000000000000000000000 DUP2 MSTORE PUSH1 0x4 ADD PUSH2 0x972 SWAP2 SWAP1 PUSH2 0x10F2 JUMP JUMPDEST PUSH1 0x40 MLOAD DUP1 SWAP2 SUB SWAP1 REVERT JUMPDEST PUSH2 0x986 DUP3 PUSH0 DUP4 PUSH2 0xC1C JUMP JUMPDEST POP POP JUMP JUMPDEST PUSH0 PUSH1 0x5 PUSH0 SWAP1 SLOAD SWAP1 PUSH2 0x100 EXP SWAP1 DIV PUSH20 0xFFFFFFFFFFFFFFFFFFFFFFFFFFFFFFFFFFFFFFFF AND SWAP1 POP DUP2 PUSH1 0x5 PUSH0 PUSH2 0x100 EXP DUP2 SLOAD DUP2 PUSH20 0xFFFFFFFFFFFFFFFFFFFFFFFFFFFFFFFFFFFFFFFF MUL NOT AND SWAP1 DUP4 PUSH20 0xFFFFFFFFFFFFFFFFFFFFFFFFFFFFFFFFFFFFFFFF AND MUL OR SWAP1 SSTORE POP DUP2 PUSH20 0xFFFFFFFFFFFFFFFFFFFFFFFFFFFFFFFFFFFFFFFF AND DUP2 PUSH20 0xFFFFFFFFFFFFFFFFFFFFFFFFFFFFFFFFFFFFFFFF AND PUSH32 0x8BE0079C531659141344CD1FD0A4F28419497F9722A3DAAFE3B4186F6B6457E0 PUSH1 0x40 MLOAD PUSH1 0x40 MLOAD DUP1 SWAP2 SUB SWAP1 LOG3 POP POP JUMP JUMPDEST PUSH0 PUSH20 0xFFFFFFFFFFFFFFFFFFFFFFFFFFFFFFFFFFFFFFFF AND DUP5 PUSH20 0xFFFFFFFFFFFFFFFFFFFFFFFFFFFFFFFFFFFFFFFF AND SUB PUSH2 0xABD JUMPI PUSH0 PUSH1 0x40 MLOAD PUSH32 0xE602DF0500000000000000000000000000000000000000000000000000000000 DUP2 MSTORE PUSH1 0x4 ADD PUSH2 0xAB4 SWAP2 SWAP1 PUSH2 0x10F2 JUMP JUMPDEST PUSH1 0x40 MLOAD DUP1 SWAP2 SUB SWAP1 REVERT JUMPDEST PUSH0 PUSH20 0xFFFFFFFFFFFFFFFFFFFFFFFFFFFFFFFFFFFFFFFF AND DUP4 PUSH20 0xFFFFFFFFFFFFFFFFFFFFFFFFFFFFFFFFFFFFFFFF AND SUB PUSH2 0xB2D JUMPI PUSH0 PUSH1 0x40 MLOAD PUSH32 0x94280D6200000000000000000000000000000000000000000000000000000000 DUP2 MSTORE PUSH1 0x4 ADD PUSH2 0xB24 SWAP2 SWAP1 PUSH2 0x10F2 JUMP JUMPDEST PUSH1 0x40 MLOAD DUP1 SWAP2 SUB SWAP1 REVERT JUMPDEST DUP2 PUSH1 0x1 PUSH0 DUP7 PUSH20 0xFFFFFFFFFFFFFFFFFFFFFFFFFFFFFFFFFFFFFFFF AND PUSH20 0xFFFFFFFFFFFFFFFFFFFFFFFFFFFFFFFFFFFFFFFF AND DUP2 MSTORE PUSH1 0x20 ADD SWAP1 DUP2 MSTORE PUSH1 0x20 ADD PUSH0 KECCAK256 PUSH0 DUP6 PUSH20 0xFFFFFFFFFFFFFFFFFFFFFFFFFFFFFFFFFFFFFFFF AND PUSH20 0xFFFFFFFFFFFFFFFFFFFFFFFFFFFFFFFFFFFFFFFF AND DUP2 MSTORE PUSH1 0x20 ADD SWAP1 DUP2 MSTORE PUSH1 0x20 ADD PUSH0 KECCAK256 DUP2 SWAP1 SSTORE POP DUP1 ISZERO PUSH2 0xC16 JUMPI DUP3 PUSH20 0xFFFFFFFFFFFFFFFFFFFFFFFFFFFFFFFFFFFFFFFF AND DUP5 PUSH20 0xFFFFFFFFFFFFFFFFFFFFFFFFFFFFFFFFFFFFFFFF AND PUSH32 0x8C5BE1E5EBEC7D5BD14F71427D1E84F3DD0314C0F7B2291E5B200AC8C7C3B925 DUP5 PUSH1 0x40 MLOAD PUSH2 0xC0D SWAP2 SWAP1 PUSH2 0xFF0 JUMP JUMPDEST PUSH1 0x40 MLOAD DUP1 SWAP2 SUB SWAP1 LOG3 JUMPDEST POP POP POP POP JUMP JUMPDEST PUSH0 PUSH20 0xFFFFFFFFFFFFFFFFFFFFFFFFFFFFFFFFFFFFFFFF AND DUP4 PUSH20 0xFFFFFFFFFFFFFFFFFFFFFFFFFFFFFFFFFFFFFFFF AND SUB PUSH2 0xC6C JUMPI DUP1 PUSH1 0x2 PUSH0 DUP3 DUP3 SLOAD PUSH2 0xC60 SWAP2 SWAP1 PUSH2 0x1208 JUMP JUMPDEST SWAP3 POP POP DUP2 SWAP1 SSTORE POP PUSH2 0xD3A JUMP JUMPDEST PUSH0 DUP1 PUSH0 DUP6 PUSH20 0xFFFFFFFFFFFFFFFFFFFFFFFFFFFFFFFFFFFFFFFF AND PUSH20 0xFFFFFFFFFFFFFFFFFFFFFFFFFFFFFFFFFFFFFFFF AND DUP2 MSTORE PUSH1 0x20 ADD SWAP1 DUP2 MSTORE PUSH1 0x20 ADD PUSH0 KECCAK256 SLOAD SWAP1 POP DUP2 DUP2 LT ISZERO PUSH2 0xCF5 JUMPI DUP4 DUP2 DUP4 PUSH1 0x40 MLOAD PUSH32 0xE450D38C00000000000000000000000000000000000000000000000000000000 DUP2 MSTORE PUSH1 0x4 ADD PUSH2 0xCEC SWAP4 SWAP3 SWAP2 SWAP1 PUSH2 0x11A6 JUMP JUMPDEST PUSH1 0x40 MLOAD DUP1 SWAP2 SUB SWAP1 REVERT JUMPDEST DUP2 DUP2 SUB PUSH0 DUP1 DUP7 PUSH20 0xFFFFFFFFFFFFFFFFFFFFFFFFFFFFFFFFFFFFFFFF AND PUSH20 0xFFFFFFFFFFFFFFFFFFFFFFFFFFFFFFFFFFFFFFFF AND DUP2 MSTORE PUSH1 0x20 ADD SWAP1 DUP2 MSTORE PUSH1 0x20 ADD PUSH0 KECCAK256 DUP2 SWAP1 SSTORE POP POP JUMPDEST PUSH0 PUSH20 0xFFFFFFFFFFFFFFFFFFFFFFFFFFFFFFFFFFFFFFFF AND DUP3 PUSH20 0xFFFFFFFFFFFFFFFFFFFFFFFFFFFFFFFFFFFFFFFF AND SUB PUSH2 0xD81 JUMPI DUP1 PUSH1 0x2 PUSH0 DUP3 DUP3 SLOAD SUB SWAP3 POP POP DUP2 SWAP1 SSTORE POP PUSH2 0xDCB JUMP JUMPDEST DUP1 PUSH0 DUP1 DUP5 PUSH20 0xFFFFFFFFFFFFFFFFFFFFFFFFFFFFFFFFFFFFFFFF AND PUSH20 0xFFFFFFFFFFFFFFFFFFFFFFFFFFFFFFFFFFFFFFFF AND DUP2 MSTORE PUSH1 0x20 ADD SWAP1 DUP2 MSTORE PUSH1 0x20 ADD PUSH0 KECCAK256 PUSH0 DUP3 DUP3 SLOAD ADD SWAP3 POP POP DUP2 SWAP1 SSTORE POP JUMPDEST DUP2 PUSH20 0xFFFFFFFFFFFFFFFFFFFFFFFFFFFFFFFFFFFFFFFF AND DUP4 PUSH20 0xFFFFFFFFFFFFFFFFFFFFFFFFFFFFFFFFFFFFFFFF AND PUSH32 0xDDF252AD1BE2C89B69C2B068FC378DAA952BA7F163C4A11628F55A4DF523B3EF DUP4 PUSH1 0x40 MLOAD PUSH2 0xE28 SWAP2 SWAP1 PUSH2 0xFF0 JUMP JUMPDEST PUSH1 0x40 MLOAD DUP1 SWAP2 SUB SWAP1 LOG3 POP POP POP JUMP JUMPDEST PUSH0 DUP2 MLOAD SWAP1 POP SWAP2 SWAP1 POP JUMP JUMPDEST PUSH0 DUP3 DUP3 MSTORE PUSH1 0x20 DUP3 ADD SWAP1 POP SWAP3 SWAP2 POP POP JUMP JUMPDEST PUSH0 JUMPDEST DUP4 DUP2 LT ISZERO PUSH2 0xE6C JUMPI DUP1 DUP3 ADD MLOAD DUP2 DUP5 ADD MSTORE PUSH1 0x20 DUP2 ADD SWAP1 POP PUSH2 0xE51 JUMP JUMPDEST PUSH0 DUP5 DUP5 ADD MSTORE POP POP POP POP JUMP JUMPDEST PUSH0 PUSH1 0x1F NOT PUSH1 0x1F DUP4 ADD AND SWAP1 POP SWAP2 SWAP1 POP JUMP JUMPDEST PUSH0 PUSH2 0xE91 DUP3 PUSH2 0xE35 JUMP JUMPDEST PUSH2 0xE9B DUP2 DUP6 PUSH2 0xE3F JUMP JUMPDEST SWAP4 POP PUSH2 0xEAB DUP2 DUP6 PUSH1 0x20 DUP7 ADD PUSH2 0xE4F JUMP JUMPDEST PUSH2 0xEB4 DUP2 PUSH2 0xE77 JUMP JUMPDEST DUP5 ADD SWAP2 POP POP SWAP3 SWAP2 POP POP JUMP JUMPDEST PUSH0 PUSH1 0x20 DUP3 ADD SWAP1 POP DUP2 DUP2 SUB PUSH0 DUP4 ADD MSTORE PUSH2 0xED7 DUP2 DUP5 PUSH2 0xE87 JUMP JUMPDEST SWAP1 POP SWAP3 SWAP2 POP POP JUMP JUMPDEST PUSH0 DUP1 REVERT JUMPDEST PUSH0 PUSH20 0xFFFFFFFFFFFFFFFFFFFFFFFFFFFFFFFFFFFFFFFF DUP3 AND SWAP1 POP SWAP2 SWAP1 POP JUMP JUMPDEST PUSH0 PUSH2 0xF0C DUP3 PUSH2 0xEE3 JUMP JUMPDEST SWAP1 POP SWAP2 SWAP1 POP JUMP JUMPDEST PUSH2 0xF1C DUP2 PUSH2 0xF02 JUMP JUMPDEST DUP2 EQ PUSH2 0xF26 JUMPI PUSH0 DUP1 REVERT JUMPDEST POP JUMP JUMPDEST PUSH0 DUP2 CALLDATALOAD SWAP1 POP PUSH2 0xF37 DUP2 PUSH2 0xF13 JUMP JUMPDEST SWAP3 SWAP2 POP POP JUMP JUMPDEST PUSH0 DUP2 SWAP1 POP SWAP2 SWAP1 POP JUMP JUMPDEST PUSH2 0xF4F DUP2 PUSH2 0xF3D JUMP JUMPDEST DUP2 EQ PUSH2 0xF59 JUMPI PUSH0 DUP1 REVERT JUMPDEST POP JUMP JUMPDEST PUSH0 DUP2 CALLDATALOAD SWAP1 POP PUSH2 0xF6A DUP2 PUSH2 0xF46 JUMP JUMPDEST SWAP3 SWAP2 POP POP JUMP JUMPDEST PUSH0 DUP1 PUSH1 0x40 DUP4 DUP6 SUB SLT ISZERO PUSH2 0xF86 JUMPI PUSH2 0xF85 PUSH2 0xEDF JUMP JUMPDEST JUMPDEST PUSH0 PUSH2 0xF93 DUP6 DUP3 DUP7 ADD PUSH2 0xF29 JUMP JUMPDEST SWAP3 POP POP PUSH1 0x20 PUSH2 0xFA4 DUP6 DUP3 DUP7 ADD PUSH2 0xF5C JUMP JUMPDEST SWAP2 POP POP SWAP3 POP SWAP3 SWAP1 POP JUMP JUMPDEST PUSH0 DUP2 ISZERO ISZERO SWAP1 POP SWAP2 SWAP1 POP JUMP JUMPDEST PUSH2 0xFC2 DUP2 PUSH2 0xFAE JUMP JUMPDEST DUP3 MSTORE POP POP JUMP JUMPDEST PUSH0 PUSH1 0x20 DUP3 ADD SWAP1 POP PUSH2 0xFDB PUSH0 DUP4 ADD DUP5 PUSH2 0xFB9 JUMP JUMPDEST SWAP3 SWAP2 POP POP JUMP JUMPDEST PUSH2 0xFEA DUP2 PUSH2 0xF3D JUMP JUMPDEST DUP3 MSTORE POP POP JUMP JUMPDEST PUSH0 PUSH1 0x20 DUP3 ADD SWAP1 POP PUSH2 0x1003 PUSH0 DUP4 ADD DUP5 PUSH2 0xFE1 JUMP JUMPDEST SWAP3 SWAP2 POP POP JUMP JUMPDEST PUSH0 DUP1 PUSH0 PUSH1 0x60 DUP5 DUP7 SUB SLT ISZERO PUSH2 0x1020 JUMPI PUSH2 0x101F PUSH2 0xEDF JUMP JUMPDEST JUMPDEST PUSH0 PUSH2 0x102D DUP7 DUP3 DUP8 ADD PUSH2 0xF29 JUMP JUMPDEST SWAP4 POP POP PUSH1 0x20 PUSH2 0x103E DUP7 DUP3 DUP8 ADD PUSH2 0xF29 JUMP JUMPDEST SWAP3 POP POP PUSH1 0x40 PUSH2 0x104F DUP7 DUP3 DUP8 ADD PUSH2 0xF5C JUMP JUMPDEST SWAP2 POP POP SWAP3 POP SWAP3 POP SWAP3 JUMP JUMPDEST PUSH0 PUSH1 0xFF DUP3 AND SWAP1 POP SWAP2 SWAP1 POP JUMP JUMPDEST PUSH2 0x106E DUP2 PUSH2 0x1059 JUMP JUMPDEST DUP3 MSTORE POP POP JUMP JUMPDEST PUSH0 PUSH1 0x20 DUP3 ADD SWAP1 POP PUSH2 0x1087 PUSH0 DUP4 ADD DUP5 PUSH2 0x1065 JUMP JUMPDEST SWAP3 SWAP2 POP POP JUMP JUMPDEST PUSH0 PUSH1 0x20 DUP3 DUP5 SUB SLT ISZERO PUSH2 0x10A2 JUMPI PUSH2 0x10A1 PUSH2 0xEDF JUMP JUMPDEST JUMPDEST PUSH0 PUSH2 0x10AF DUP5 DUP3 DUP6 ADD PUSH2 0xF5C JUMP JUMPDEST SWAP2 POP POP SWAP3 SWAP2 POP POP JUMP JUMPDEST PUSH0 PUSH1 0x20 DUP3 DUP5 SUB SLT ISZERO PUSH2 0x10CD JUMPI PUSH2 0x10CC PUSH2 0xEDF JUMP JUMPDEST JUMPDEST PUSH0 PUSH2 0x10DA DUP5 DUP3 DUP6 ADD PUSH2 0xF29 JUMP JUMPDEST SWAP2 POP POP SWAP3 SWAP2 POP POP JUMP JUMPDEST PUSH2 0x10EC DUP2 PUSH2 0xF02 JUMP JUMPDEST DUP3 MSTORE POP POP JUMP JUMPDEST PUSH0 PUSH1 0x20 DUP3 ADD SWAP1 POP PUSH2 0x1105 PUSH0 DUP4 ADD DUP5 PUSH2 0x10E3 JUMP JUMPDEST SWAP3 SWAP2 POP POP JUMP JUMPDEST PUSH0 DUP1 PUSH1 0x40 DUP4 DUP6 SUB SLT ISZERO PUSH2 0x1121 JUMPI PUSH2 0x1120 PUSH2 0xEDF JUMP JUMPDEST JUMPDEST PUSH0 PUSH2 0x112E DUP6 DUP3 DUP7 ADD PUSH2 0xF29 JUMP JUMPDEST SWAP3 POP POP PUSH1 0x20 PUSH2 0x113F DUP6 DUP3 DUP7 ADD PUSH2 0xF29 JUMP JUMPDEST SWAP2 POP POP SWAP3 POP SWAP3 SWAP1 POP JUMP JUMPDEST PUSH32 0x4E487B7100000000000000000000000000000000000000000000000000000000 PUSH0 MSTORE PUSH1 0x22 PUSH1 0x4 MSTORE PUSH1 0x24 PUSH0 REVERT JUMPDEST PUSH0 PUSH1 0x2 DUP3 DIV SWAP1 POP PUSH1 0x1 DUP3 AND DUP1 PUSH2 0x118D JUMPI PUSH1 0x7F DUP3 AND SWAP2 POP JUMPDEST PUSH1 0x20 DUP3 LT DUP2 SUB PUSH2 0x11A0 JUMPI PUSH2 0x119F PUSH2 0x1149 JUMP JUMPDEST JUMPDEST POP SWAP2 SWAP1 POP JUMP JUMPDEST PUSH0 PUSH1 0x60 DUP3 ADD SWAP1 POP PUSH2 0x11B9 PUSH0 DUP4 ADD DUP7 PUSH2 0x10E3 JUMP JUMPDEST PUSH2 0x11C6 PUSH1 0x20 DUP4 ADD DUP6 PUSH2 0xFE1 JUMP JUMPDEST PUSH2 0x11D3 PUSH1 0x40 DUP4 ADD DUP5 PUSH2 0xFE1 JUMP JUMPDEST SWAP5 SWAP4 POP POP POP POP JUMP JUMPDEST PUSH32 0x4E487B7100000000000000000000000000000000000000000000000000000000 PUSH0 MSTORE PUSH1 0x11 PUSH1 0x4 MSTORE PUSH1 0x24 PUSH0 REVERT JUMPDEST PUSH0 PUSH2 0x1212 DUP3 PUSH2 0xF3D JUMP JUMPDEST SWAP2 POP PUSH2 0x121D DUP4 PUSH2 0xF3D JUMP JUMPDEST SWAP3 POP DUP3 DUP3 ADD SWAP1 POP DUP1 DUP3 GT ISZERO PUSH2 0x1235 JUMPI PUSH2 0x1234 PUSH2 0x11DB JUMP JUMPDEST JUMPDEST SWAP3 SWAP2 POP POP JUMP INVALID LOG2 PUSH5 0x6970667358 0x22 SLT KECCAK256 DUP9 0xD3 0x4F PUSH29 0xEC32A5EE10206CCB144E49A45D895245333F20AF7C9642879CE77E7564 PUSH20 0x6F6C634300081400330000000000000000000000 "
		},
		"gasEstimates": {
			"creation": {
				"codeDepositCost": "944200",
				"executionCost": "infinite",
				"totalCost": "infinite"
			},
			"external": {
				"allowance(address,address)": "infinite",
				"approve(address,uint256)": "infinite",
				"balanceOf(address)": "2852",
				"burn(uint256)": "infinite",
				"burnFrom(address,uint256)": "infinite",
				"decimals()": "383",
				"mint(address,uint256)": "infinite",
				"name()": "infinite",
				"owner()": "2604",
				"renounceOwnership()": "infinite",
				"symbol()": "infinite",
				"totalSupply()": "2500",
				"transfer(address,uint256)": "infinite",
				"transferFrom(address,address,uint256)": "infinite",
				"transferOwnership(address)": "infinite"
			}
		},
		"methodIdentifiers": {
			"allowance(address,address)": "dd62ed3e",
			"approve(address,uint256)": "095ea7b3",
			"balanceOf(address)": "70a08231",
			"burn(uint256)": "42966c68",
			"burnFrom(address,uint256)": "79cc6790",
			"decimals()": "313ce567",
			"mint(address,uint256)": "40c10f19",
			"name()": "06fdde03",
			"owner()": "8da5cb5b",
			"renounceOwnership()": "715018a6",
			"symbol()": "95d89b41",
			"totalSupply()": "18160ddd",
			"transfer(address,uint256)": "a9059cbb",
			"transferFrom(address,address,uint256)": "23b872dd",
			"transferOwnership(address)": "f2fde38b"
		}
	},
	"abi": [
		{
			"inputs": [
				{
					"internalType": "address",
					"name": "initialOwner",
					"type": "address"
				}
			],
			"stateMutability": "nonpayable",
			"type": "constructor"
		},
		{
			"inputs": [
				{
					"internalType": "address",
					"name": "spender",
					"type": "address"
				},
				{
					"internalType": "uint256",
					"name": "allowance",
					"type": "uint256"
				},
				{
					"internalType": "uint256",
					"name": "needed",
					"type": "uint256"
				}
			],
			"name": "ERC20InsufficientAllowance",
			"type": "error"
		},
		{
			"inputs": [
				{
					"internalType": "address",
					"name": "sender",
					"type": "address"
				},
				{
					"internalType": "uint256",
					"name": "balance",
					"type": "uint256"
				},
				{
					"internalType": "uint256",
					"name": "needed",
					"type": "uint256"
				}
			],
			"name": "ERC20InsufficientBalance",
			"type": "error"
		},
		{
			"inputs": [
				{
					"internalType": "address",
					"name": "approver",
					"type": "address"
				}
			],
			"name": "ERC20InvalidApprover",
			"type": "error"
		},
		{
			"inputs": [
				{
					"internalType": "address",
					"name": "receiver",
					"type": "address"
				}
			],
			"name": "ERC20InvalidReceiver",
			"type": "error"
		},
		{
			"inputs": [
				{
					"internalType": "address",
					"name": "sender",
					"type": "address"
				}
			],
			"name": "ERC20InvalidSender",
			"type": "error"
		},
		{
			"inputs": [
				{
					"internalType": "address",
					"name": "spender",
					"type": "address"
				}
			],
			"name": "ERC20InvalidSpender",
			"type": "error"
		},
		{
			"inputs": [
				{
					"internalType": "address",
					"name": "owner",
					"type": "address"
				}
			],
			"name": "OwnableInvalidOwner",
			"type": "error"
		},
		{
			"inputs": [
				{
					"internalType": "address",
					"name": "account",
					"type": "address"
				}
			],
			"name": "OwnableUnauthorizedAccount",
			"type": "error"
		},
		{
			"anonymous": false,
			"inputs": [
				{
					"indexed": true,
					"internalType": "address",
					"name": "owner",
					"type": "address"
				},
				{
					"indexed": true,
					"internalType": "address",
					"name": "spender",
					"type": "address"
				},
				{
					"indexed": false,
					"internalType": "uint256",
					"name": "value",
					"type": "uint256"
				}
			],
			"name": "Approval",
			"type": "event"
		},
		{
			"anonymous": false,
			"inputs": [
				{
					"indexed": true,
					"internalType": "address",
					"name": "previousOwner",
					"type": "address"
				},
				{
					"indexed": true,
					"internalType": "address",
					"name": "newOwner",
					"type": "address"
				}
			],
			"name": "OwnershipTransferred",
			"type": "event"
		},
		{
			"anonymous": false,
			"inputs": [
				{
					"indexed": true,
					"internalType": "address",
					"name": "from",
					"type": "address"
				},
				{
					"indexed": true,
					"internalType": "address",
					"name": "to",
					"type": "address"
				},
				{
					"indexed": false,
					"internalType": "uint256",
					"name": "value",
					"type": "uint256"
				}
			],
			"name": "Transfer",
			"type": "event"
		},
		{
			"inputs": [
				{
					"internalType": "address",
					"name": "owner",
					"type": "address"
				},
				{
					"internalType": "address",
					"name": "spender",
					"type": "address"
				}
			],
			"name": "allowance",
			"outputs": [
				{
					"internalType": "uint256",
					"name": "",
					"type": "uint256"
				}
			],
			"stateMutability": "view",
			"type": "function"
		},
		{
			"inputs": [
				{
					"internalType": "address",
					"name": "spender",
					"type": "address"
				},
				{
					"internalType": "uint256",
					"name": "value",
					"type": "uint256"
				}
			],
			"name": "approve",
			"outputs": [
				{
					"internalType": "bool",
					"name": "",
					"type": "bool"
				}
			],
			"stateMutability": "nonpayable",
			"type": "function"
		},
		{
			"inputs": [
				{
					"internalType": "address",
					"name": "account",
					"type": "address"
				}
			],
			"name": "balanceOf",
			"outputs": [
				{
					"internalType": "uint256",
					"name": "",
					"type": "uint256"
				}
			],
			"stateMutability": "view",
			"type": "function"
		},
		{
			"inputs": [
				{
					"internalType": "uint256",
					"name": "value",
					"type": "uint256"
				}
			],
			"name": "burn",
			"outputs": [],
			"stateMutability": "nonpayable",
			"type": "function"
		},
		{
			"inputs": [
				{
					"internalType": "address",
					"name": "account",
					"type": "address"
				},
				{
					"internalType": "uint256",
					"name": "value",
					"type": "uint256"
				}
			],
			"name": "burnFrom",
			"outputs": [],
			"stateMutability": "nonpayable",
			"type": "function"
		},
		{
			"inputs": [],
			"name": "decimals",
			"outputs": [
				{
					"internalType": "uint8",
					"name": "",
					"type": "uint8"
				}
			],
			"stateMutability": "view",
			"type": "function"
		},
		{
			"inputs": [
				{
					"internalType": "address",
					"name": "to",
					"type": "address"
				},
				{
					"internalType": "uint256",
					"name": "amount",
					"type": "uint256"
				}
			],
			"name": "mint",
			"outputs": [],
			"stateMutability": "nonpayable",
			"type": "function"
		},
		{
			"inputs": [],
			"name": "name",
			"outputs": [
				{
					"internalType": "string",
					"name": "",
					"type": "string"
				}
			],
			"stateMutability": "view",
			"type": "function"
		},
		{
			"inputs": [],
			"name": "owner",
			"outputs": [
				{
					"internalType": "address",
					"name": "",
					"type": "address"
				}
			],
			"stateMutability": "view",
			"type": "function"
		},
		{
			"inputs": [],
			"name": "renounceOwnership",
			"outputs": [],
			"stateMutability": "nonpayable",
			"type": "function"
		},
		{
			"inputs": [],
			"name": "symbol",
			"outputs": [
				{
					"internalType": "string",
					"name": "",
					"type": "string"
				}
			],
			"stateMutability": "view",
			"type": "function"
		},
		{
			"inputs": [],
			"name": "totalSupply",
			"outputs": [
				{
					"internalType": "uint256",
					"name": "",
					"type": "uint256"
				}
			],
			"stateMutability": "view",
			"type": "function"
		},
		{
			"inputs": [
				{
					"internalType": "address",
					"name": "to",
					"type": "address"
				},
				{
					"internalType": "uint256",
					"name": "value",
					"type": "uint256"
				}
			],
			"name": "transfer",
			"outputs": [
				{
					"internalType": "bool",
					"name": "",
					"type": "bool"
				}
			],
			"stateMutability": "nonpayable",
			"type": "function"
		},
		{
			"inputs": [
				{
					"internalType": "address",
					"name": "from",
					"type": "address"
				},
				{
					"internalType": "address",
					"name": "to",
					"type": "address"
				},
				{
					"internalType": "uint256",
					"name": "value",
					"type": "uint256"
				}
			],
			"name": "transferFrom",
			"outputs": [
				{
					"internalType": "bool",
					"name": "",
					"type": "bool"
				}
			],
			"stateMutability": "nonpayable",
			"type": "function"
		},
		{
			"inputs": [
				{
					"internalType": "address",
					"name": "newOwner",
					"type": "address"
				}
			],
			"name": "transferOwnership",
			"outputs": [],
			"stateMutability": "nonpayable",
			"type": "function"
		}
	]
}