{
	"data": {
		"bytecode": {
			"linkReferences": {},
			"object": "60806040526a52b7d2dcc80cd2e400000060065534801561001e575f80fd5b50335f73ffffffffffffffffffffffffffffffffffffffff168173ffffffffffffffffffffffffffffffffffffffff1603610090575f6040517f1e4fbdf70000000000000000000000000000000000000000000000000000000081526004016100879190610315565b60405180910390fd5b61009f8161020860201b60201c565b5073694aa1769357215de4fac081bf1f309adc32530660015f6101000a81548173ffffffffffffffffffffffffffffffffffffffff021916908373ffffffffffffffffffffffffffffffffffffffff160217905550731531bc5de10618c511349f8007c08966e45ce8ef60055f6101000a81548173ffffffffffffffffffffffffffffffffffffffff021916908373ffffffffffffffffffffffffffffffffffffffff16021790555030604051610155906102c9565b61015f9190610315565b604051809103905ff080158015610178573d5f803e3d5ffd5b5060045f6101000a81548173ffffffffffffffffffffffffffffffffffffffff021916908373ffffffffffffffffffffffffffffffffffffffff16021790555042600781905550622e248060088190555060026006546101d89190610364565b600a81905550655af3107a4000600d81905550670de0b6b3a7640000600e81905550600d54600b81905550610394565b5f805f9054906101000a900473ffffffffffffffffffffffffffffffffffffffff169050815f806101000a81548173ffffffffffffffffffffffffffffffffffffffff021916908373ffffffffffffffffffffffffffffffffffffffff1602179055508173ffffffffffffffffffffffffffffffffffffffff168173ffffffffffffffffffffffffffffffffffffffff167f8be0079c531659141344cd1fd0a4f28419497f9722a3daafe3b4186f6b6457e060405160405180910390a35050565b611dc5806127a883390190565b5f73ffffffffffffffffffffffffffffffffffffffff82169050919050565b5f6102ff826102d6565b9050919050565b61030f816102f5565b82525050565b5f6020820190506103285f830184610306565b92915050565b5f819050919050565b7f4e487b71000000000000000000000000000000000000000000000000000000005f52601260045260245ffd5b5f61036e8261032e565b91506103798361032e565b92508261038957610388610337565b5b828204905092915050565b612407806103a15f395ff3fe6080604052600436106101d0575f3560e01c8063715018a6116100f65780639e1a4d1911610094578063f0dda65c11610063578063f0dda65c14610ac4578063f2fde38b14610aec578063fc0c546a14610b14578063fe575a8714610b3e576106a2565b80639e1a4d1914610a0a578063d41edb7b14610a34578063e42c08f214610a5e578063e9cbd82214610a9a576106a2565b806382d4d05d116100d057806382d4d05d1461096857806383ca09251461099057806385906256146109b85780638da5cb5b146109e0576106a2565b8063715018a6146109125780637362377b146109285780637ff9b5961461093e576106a2565b80633ba93f261161016e578063537df3b61161013d578063537df3b61461088057806364aabb9e146108a857806365e6ef48146108d257806368eadbfa146108e8576106a2565b80633ba93f26146107ca57806344337ea1146107f2578063518ab2a81461081a578063523fba7f14610844576106a2565b80631ac737b4116101aa5780631ac737b4146107225780631cbaee2d1461074c5780632ca0228a146107765780633711d9fb146107a0576106a2565b80630d1118ce146106a657806312aef8c3146106ce57806318160ddd146106f8576106a2565b366106a25760025f3373ffffffffffffffffffffffffffffffffffffffff1673ffffffffffffffffffffffffffffffffffffffff1681526020019081526020015f205f9054906101000a900460ff161561025f576040517f08c379a0000000000000000000000000000000000000000000000000000000008152600401610256906119b1565b60405180910390fd5b6007544210158015610280575060085460075461027c9190611a05565b4211155b6102bf576040517f08c379a00000000000000000000000000000000000000000000000000000000081526004016102b690611a82565b60405180910390fd5b60025f3373ffffffffffffffffffffffffffffffffffffffff1673ffffffffffffffffffffffffffffffffffffffff1681526020019081526020015f205f9054906101000a900460ff1615610349576040517f08c379a0000000000000000000000000000000000000000000000000000000008152600401610340906119b1565b60405180910390fd5b600754421015801561036a57506008546007546103669190611a05565b4211155b6103a9576040517f08c379a00000000000000000000000000000000000000000000000000000000081526004016103a090611a82565b60405180910390fd5b5f670de0b6b3a7640000600b54346103c19190611acd565b6103cb9190611afd565b90505f811161040f576040517f08c379a000000000000000000000000000000000000000000000000000000000815260040161040690611b88565b60405180910390fd5b80610418610b7a565b11610458576040517f08c379a000000000000000000000000000000000000000000000000000000000815260040161044f90611bf0565b60405180910390fd5b80600a54101561049d576040517f08c379a000000000000000000000000000000000000000000000000000000000815260040161049490611c58565b60405180910390fd5b690a968163f0a57b4000008160035f3373ffffffffffffffffffffffffffffffffffffffff1673ffffffffffffffffffffffffffffffffffffffff1681526020019081526020015f20546104f19190611a05565b1115610532576040517f08c379a000000000000000000000000000000000000000000000000000000000815260040161052990611cc0565b60405180910390fd5b60045f9054906101000a900473ffffffffffffffffffffffffffffffffffffffff1673ffffffffffffffffffffffffffffffffffffffff1663a9059cbb33836040518363ffffffff1660e01b815260040161058e929190611d2c565b6020604051808303815f875af11580156105aa573d5f803e3d5ffd5b505050506040513d601f19601f820116820180604052508101906105ce9190611d8c565b508060035f3373ffffffffffffffffffffffffffffffffffffffff1673ffffffffffffffffffffffffffffffffffffffff1681526020019081526020015f205f82825461061b9190611a05565b925050819055508060095f8282546106339190611a05565b9250508190555080600a5f82825461064b9190611db7565b925050819055503373ffffffffffffffffffffffffffffffffffffffff167f745f661b8143944fb883f50694ebed3a871e43c451d9d4bf4648a9d551d7e47a826040516106989190611dea565b60405180910390a2005b5f80fd5b3480156106b1575f80fd5b506106cc60048036038101906106c79190611e57565b610c19565b005b3480156106d9575f80fd5b506106e2610dc2565b6040516106ef9190611dea565b60405180910390f35b348015610703575f80fd5b5061070c610dc8565b6040516107199190611dea565b60405180910390f35b34801561072d575f80fd5b50610736610dce565b6040516107439190611dea565b60405180910390f35b348015610757575f80fd5b50610760610dd4565b60405161076d9190611dea565b60405180910390f35b348015610781575f80fd5b5061078a610dda565b6040516107979190611dea565b60405180910390f35b3480156107ab575f80fd5b506107b4610de0565b6040516107c19190611dea565b60405180910390f35b3480156107d5575f80fd5b506107f060048036038101906107eb9190611e95565b610de6565b005b3480156107fd575f80fd5b5061081860048036038101906108139190611ec0565b610e86565b005b348015610825575f80fd5b5061082e610ee6565b60405161083b9190611dea565b60405180910390f35b34801561084f575f80fd5b5061086a60048036038101906108659190611ec0565b610eec565b6040516108779190611dea565b60405180910390f35b34801561088b575f80fd5b506108a660048036038101906108a19190611ec0565b610f01565b005b3480156108b3575f80fd5b506108bc610f60565b6040516108c99190611dea565b60405180910390f35b3480156108dd575f80fd5b506108e6610fff565b005b3480156108f3575f80fd5b506108fc611010565b6040516109099190611f03565b60405180910390f35b34801561091d575f80fd5b506109266110ad565b005b348015610933575f80fd5b5061093c6110c0565b005b348015610949575f80fd5b50610952611115565b60405161095f9190611dea565b60405180910390f35b348015610973575f80fd5b5061098e60048036038101906109899190611e95565b61111b565b005b34801561099b575f80fd5b506109b660048036038101906109b19190611f53565b6111b6565b005b3480156109c3575f80fd5b506109de60048036038101906109d99190611e95565b611230565b005b3480156109eb575f80fd5b506109f461154c565b604051610a019190611f7e565b60405180910390f35b348015610a15575f80fd5b50610a1e610b7a565b604051610a2b9190611dea565b60405180910390f35b348015610a3f575f80fd5b50610a48611573565b604051610a559190611dea565b60405180910390f35b348015610a69575f80fd5b50610a846004803603810190610a7f9190611ec0565b611579565b604051610a919190611dea565b60405180910390f35b348015610aa5575f80fd5b50610aae61161a565b604051610abb9190611ff2565b60405180910390f35b348015610acf575f80fd5b50610aea6004803603810190610ae59190611e57565b61163f565b005b348015610af7575f80fd5b50610b126004803603810190610b0d9190611ec0565b61170d565b005b348015610b1f575f80fd5b50610b28611791565b604051610b35919061202b565b60405180910390f35b348015610b49575f80fd5b50610b646004803603810190610b5f9190611ec0565b6117b6565b604051610b719190612053565b60405180910390f35b5f60045f9054906101000a900473ffffffffffffffffffffffffffffffffffffffff1673ffffffffffffffffffffffffffffffffffffffff166370a08231306040518263ffffffff1660e01b8152600401610bd59190611f7e565b602060405180830381865afa158015610bf0573d5f803e3d5ffd5b505050506040513d601f19601f82011682018060405250810190610c149190612080565b905090565b610c21611808565b8060045f9054906101000a900473ffffffffffffffffffffffffffffffffffffffff1673ffffffffffffffffffffffffffffffffffffffff166370a08231846040518263ffffffff1660e01b8152600401610c7c9190611f7e565b602060405180830381865afa158015610c97573d5f803e3d5ffd5b505050506040513d601f19601f82011682018060405250810190610cbb9190612080565b1015610cfc576040517f08c379a0000000000000000000000000000000000000000000000000000000008152600401610cf3906120f5565b60405180910390fd5b60045f9054906101000a900473ffffffffffffffffffffffffffffffffffffffff1673ffffffffffffffffffffffffffffffffffffffff16639dc29fac83836040518363ffffffff1660e01b8152600401610d58929190611d2c565b5f604051808303815f87803b158015610d6f575f80fd5b505af1158015610d81573d5f803e3d5ffd5b505050507f584af6f2b9710961c595285e2363816a2f40607c11c473798e82e242c0e1d31d8282604051610db6929190611d2c565b60405180910390a15050565b600a5481565b60065481565b600e5481565b60075481565b600d5481565b60085481565b60055f9054906101000a900473ffffffffffffffffffffffffffffffffffffffff1673ffffffffffffffffffffffffffffffffffffffff1663095ea7b330836040518363ffffffff1660e01b8152600401610e42929190611d2c565b6020604051808303815f875af1158015610e5e573d5f803e3d5ffd5b505050506040513d601f19601f82011682018060405250810190610e829190611d8c565b5050565b610e8e611808565b600160025f8373ffffffffffffffffffffffffffffffffffffffff1673ffffffffffffffffffffffffffffffffffffffff1681526020019081526020015f205f6101000a81548160ff02191690831515021790555050565b60095481565b6003602052805f5260405f205f915090505481565b610f09611808565b5f60025f8373ffffffffffffffffffffffffffffffffffffffff1673ffffffffffffffffffffffffffffffffffffffff1681526020019081526020015f205f6101000a81548160ff02191690831515021790555050565b5f60055f9054906101000a900473ffffffffffffffffffffffffffffffffffffffff1673ffffffffffffffffffffffffffffffffffffffff166370a08231306040518263ffffffff1660e01b8152600401610fbb9190611f7e565b602060405180830381865afa158015610fd6573d5f803e3d5ffd5b505050506040513d601f19601f82011682018060405250810190610ffa9190612080565b905090565b611007611808565b5f600a81905550565b5f8060015f9054906101000a900473ffffffffffffffffffffffffffffffffffffffff1673ffffffffffffffffffffffffffffffffffffffff1663feaf968c6040518163ffffffff1660e01b815260040160a060405180830381865afa15801561107c573d5f803e3d5ffd5b505050506040513d601f19601f820116820180604052508101906110a0919061217c565b5050509150508091505090565b6110b5611808565b6110be5f61188f565b565b6110c8611808565b6110d061154c565b73ffffffffffffffffffffffffffffffffffffffff166108fc4790811502906040515f60405180830381858888f19350505050158015611112573d5f803e3d5ffd5b50565b600b5481565b611123611808565b600654670de0b6b3a76400008261113a9190611afd565b600a546111479190611a05565b1115611188576040517f08c379a000000000000000000000000000000000000000000000000000000000815260040161117f9061223d565b60405180910390fd5b670de0b6b3a76400008161119c9190611afd565b600a5f8282546111ac9190611a05565b9250508190555050565b6111be611808565b5f8161ffff16036111d5575f6008819055506111f4565b62093a808161ffff166111e89190612269565b62ffffff166008819055505b7fe90d9a44dcfa9bae4bb685b71c60dc6a1dd8ff796ff9aed7f4ee44a2108342cc6008546040516112259190611dea565b60405180910390a150565b8060055f9054906101000a900473ffffffffffffffffffffffffffffffffffffffff1673ffffffffffffffffffffffffffffffffffffffff1663dd62ed3e33306040518363ffffffff1660e01b815260040161128d9291906122a5565b602060405180830381865afa1580156112a8573d5f803e3d5ffd5b505050506040513d601f19601f820116820180604052508101906112cc9190612080565b101561130d576040517f08c379a000000000000000000000000000000000000000000000000000000000815260040161130490612316565b60405180910390fd5b60055f9054906101000a900473ffffffffffffffffffffffffffffffffffffffff1673ffffffffffffffffffffffffffffffffffffffff166323b872dd3330846040518463ffffffff1660e01b815260040161136b93929190612334565b6020604051808303815f875af1158015611387573d5f803e3d5ffd5b505050506040513d601f19601f820116820180604052508101906113ab9190611d8c565b505f600b54826113bb9190611acd565b9050806113c6610b7a565b1015611407576040517f08c379a00000000000000000000000000000000000000000000000000000000081526004016113fe906123b3565b60405180910390fd5b60045f9054906101000a900473ffffffffffffffffffffffffffffffffffffffff1673ffffffffffffffffffffffffffffffffffffffff1663a9059cbb33836040518363ffffffff1660e01b8152600401611463929190611d2c565b6020604051808303815f875af115801561147f573d5f803e3d5ffd5b505050506040513d601f19601f820116820180604052508101906114a39190611d8c565b5060045f9054906101000a900473ffffffffffffffffffffffffffffffffffffffff1673ffffffffffffffffffffffffffffffffffffffff1663a9059cbb6114e961154c565b836040518363ffffffff1660e01b8152600401611507929190611d2c565b6020604051808303815f875af1158015611523573d5f803e3d5ffd5b505050506040513d601f19601f820116820180604052508101906115479190611d8c565b505050565b5f805f9054906101000a900473ffffffffffffffffffffffffffffffffffffffff16905090565b600c5481565b5f60045f9054906101000a900473ffffffffffffffffffffffffffffffffffffffff1673ffffffffffffffffffffffffffffffffffffffff166370a08231836040518263ffffffff1660e01b81526004016115d49190611f7e565b602060405180830381865afa1580156115ef573d5f803e3d5ffd5b505050506040513d601f19601f820116820180604052508101906116139190612080565b9050919050565b60055f9054906101000a900473ffffffffffffffffffffffffffffffffffffffff1681565b611647611808565b60045f9054906101000a900473ffffffffffffffffffffffffffffffffffffffff1673ffffffffffffffffffffffffffffffffffffffff166340c10f1983836040518363ffffffff1660e01b81526004016116a3929190611d2c565b5f604051808303815f87803b1580156116ba575f80fd5b505af11580156116cc573d5f803e3d5ffd5b505050507fa4ebe90a5bc8e90165b9ece0e42b4b2aa829d8f1e5e72b2ca291f65489488a398282604051611701929190611d2c565b60405180910390a15050565b611715611808565b5f73ffffffffffffffffffffffffffffffffffffffff168173ffffffffffffffffffffffffffffffffffffffff1603611785575f6040517f1e4fbdf700000000000000000000000000000000000000000000000000000000815260040161177c9190611f7e565b60405180910390fd5b61178e8161188f565b50565b60045f9054906101000a900473ffffffffffffffffffffffffffffffffffffffff1681565b5f60025f8373ffffffffffffffffffffffffffffffffffffffff1673ffffffffffffffffffffffffffffffffffffffff1681526020019081526020015f205f9054906101000a900460ff169050919050565b611810611950565b73ffffffffffffffffffffffffffffffffffffffff1661182e61154c565b73ffffffffffffffffffffffffffffffffffffffff161461188d57611851611950565b6040517f118cdaa70000000000000000000000000000000000000000000000000000000081526004016118849190611f7e565b60405180910390fd5b565b5f805f9054906101000a900473ffffffffffffffffffffffffffffffffffffffff169050815f806101000a81548173ffffffffffffffffffffffffffffffffffffffff021916908373ffffffffffffffffffffffffffffffffffffffff1602179055508173ffffffffffffffffffffffffffffffffffffffff168173ffffffffffffffffffffffffffffffffffffffff167f8be0079c531659141344cd1fd0a4f28419497f9722a3daafe3b4186f6b6457e060405160405180910390a35050565b5f33905090565b5f82825260208201905092915050565b7f53656e64657220697320626c61636b6c697374656400000000000000000000005f82015250565b5f61199b601583611957565b91506119a682611967565b602082019050919050565b5f6020820190508181035f8301526119c88161198f565b9050919050565b5f819050919050565b7f4e487b71000000000000000000000000000000000000000000000000000000005f52601160045260245ffd5b5f611a0f826119cf565b9150611a1a836119cf565b9250828201905080821115611a3257611a316119d8565b5b92915050565b7f53616c65206973206e6f742061637469766500000000000000000000000000005f82015250565b5f611a6c601283611957565b9150611a7782611a38565b602082019050919050565b5f6020820190508181035f830152611a9981611a60565b9050919050565b7f4e487b71000000000000000000000000000000000000000000000000000000005f52601260045260245ffd5b5f611ad7826119cf565b9150611ae2836119cf565b925082611af257611af1611aa0565b5b828204905092915050565b5f611b07826119cf565b9150611b12836119cf565b9250828202611b20816119cf565b91508282048414831517611b3757611b366119d8565b5b5092915050565b7f6e6f7420656e6f7567682066756e6473210000000000000000000000000000005f82015250565b5f611b72601183611957565b9150611b7d82611b3e565b602082019050919050565b5f6020820190508181035f830152611b9f81611b66565b9050919050565b7f4e6f206d6f726520746f6b656e7320617661696c61626c6500000000000000005f82015250565b5f611bda601883611957565b9150611be582611ba6565b602082019050919050565b5f6020820190508181035f830152611c0781611bce565b9050919050565b7f536f6c64206f75742100000000000000000000000000000000000000000000005f82015250565b5f611c42600983611957565b9150611c4d82611c0e565b602082019050919050565b5f6020820190508181035f830152611c6f81611c36565b9050919050565b7f416c6c6f7765642035306b20746f6b656e73207065722077616c6c65740000005f82015250565b5f611caa601d83611957565b9150611cb582611c76565b602082019050919050565b5f6020820190508181035f830152611cd781611c9e565b9050919050565b5f73ffffffffffffffffffffffffffffffffffffffff82169050919050565b5f611d0782611cde565b9050919050565b611d1781611cfd565b82525050565b611d26816119cf565b82525050565b5f604082019050611d3f5f830185611d0e565b611d4c6020830184611d1d565b9392505050565b5f80fd5b5f8115159050919050565b611d6b81611d57565b8114611d75575f80fd5b50565b5f81519050611d8681611d62565b92915050565b5f60208284031215611da157611da0611d53565b5b5f611dae84828501611d78565b91505092915050565b5f611dc1826119cf565b9150611dcc836119cf565b9250828203905081811115611de457611de36119d8565b5b92915050565b5f602082019050611dfd5f830184611d1d565b92915050565b611e0c81611cfd565b8114611e16575f80fd5b50565b5f81359050611e2781611e03565b92915050565b611e36816119cf565b8114611e40575f80fd5b50565b5f81359050611e5181611e2d565b92915050565b5f8060408385031215611e6d57611e6c611d53565b5b5f611e7a85828601611e19565b9250506020611e8b85828601611e43565b9150509250929050565b5f60208284031215611eaa57611ea9611d53565b5b5f611eb784828501611e43565b91505092915050565b5f60208284031215611ed557611ed4611d53565b5b5f611ee284828501611e19565b91505092915050565b5f819050919050565b611efd81611eeb565b82525050565b5f602082019050611f165f830184611ef4565b92915050565b5f61ffff82169050919050565b611f3281611f1c565b8114611f3c575f80fd5b50565b5f81359050611f4d81611f29565b92915050565b5f60208284031215611f6857611f67611d53565b5b5f611f7584828501611f3f565b91505092915050565b5f602082019050611f915f830184611d0e565b92915050565b5f819050919050565b5f611fba611fb5611fb084611cde565b611f97565b611cde565b9050919050565b5f611fcb82611fa0565b9050919050565b5f611fdc82611fc1565b9050919050565b611fec81611fd2565b82525050565b5f6020820190506120055f830184611fe3565b92915050565b5f61201582611fc1565b9050919050565b6120258161200b565b82525050565b5f60208201905061203e5f83018461201c565b92915050565b61204d81611d57565b82525050565b5f6020820190506120665f830184612044565b92915050565b5f8151905061207a81611e2d565b92915050565b5f6020828403121561209557612094611d53565b5b5f6120a28482850161206c565b91505092915050565b7f4275726e696e67206d6f7265207468616e20706f737369626c650000000000005f82015250565b5f6120df601a83611957565b91506120ea826120ab565b602082019050919050565b5f6020820190508181035f83015261210c816120d3565b9050919050565b5f69ffffffffffffffffffff82169050919050565b61213181612113565b811461213b575f80fd5b50565b5f8151905061214c81612128565b92915050565b61215b81611eeb565b8114612165575f80fd5b50565b5f8151905061217681612152565b92915050565b5f805f805f60a0868803121561219557612194611d53565b5b5f6121a28882890161213e565b95505060206121b388828901612168565b94505060406121c48882890161206c565b93505060606121d58882890161206c565b92505060806121e68882890161213e565b9150509295509295909350565b7f4e6f7420656e6f75676820746f6b656e730000000000000000000000000000005f82015250565b5f612227601183611957565b9150612232826121f3565b602082019050919050565b5f6020820190508181035f8301526122548161221b565b9050919050565b5f62ffffff82169050919050565b5f6122738261225b565b915061227e8361225b565b925082820261228c8161225b565b915080821461229e5761229d6119d8565b5b5092915050565b5f6040820190506122b85f830185611d0e565b6122c56020830184611d0e565b9392505050565b7f416c6c6f77616e636520746f6f206c6f770000000000000000000000000000005f82015250565b5f612300601183611957565b915061230b826122cc565b602082019050919050565b5f6020820190508181035f83015261232d816122f4565b9050919050565b5f6060820190506123475f830186611d0e565b6123546020830185611d0e565b6123616040830184611d1d565b949350505050565b7f4e6f7420656e6f75676820746f6b656e7320617661696c61626c6500000000005f82015250565b5f61239d601b83611957565b91506123a882612369565b602082019050919050565b5f6020820190508181035f8301526123ca81612391565b905091905056fea2646970667358221220ce1b945e1f5ad96ee8d2c85b74bfc7638e57327eb6def9973ff686f106346b3464736f6c63430008190033608060405234801561000f575f80fd5b50604051611dc5380380611dc583398181016040528101906100319190610545565b806040518060400160405280600b81526020017f536f6c617220477265656e0000000000000000000000000000000000000000008152506040518060400160405280600381526020017f534752000000000000000000000000000000000000000000000000000000000081525081600390816100ad91906107aa565b5080600490816100bd91906107aa565b5050505f73ffffffffffffffffffffffffffffffffffffffff168173ffffffffffffffffffffffffffffffffffffffff1603610130575f6040517f1e4fbdf70000000000000000000000000000000000000000000000000000000081526004016101279190610888565b60405180910390fd5b61013f8161017e60201b60201c565b506101788161015261024160201b60201c565b600a61015e9190610a09565b6305f5e10061016d9190610a53565b61024960201b60201c565b50610b24565b5f60055f9054906101000a900473ffffffffffffffffffffffffffffffffffffffff1690508160055f6101000a81548173ffffffffffffffffffffffffffffffffffffffff021916908373ffffffffffffffffffffffffffffffffffffffff1602179055508173ffffffffffffffffffffffffffffffffffffffff168173ffffffffffffffffffffffffffffffffffffffff167f8be0079c531659141344cd1fd0a4f28419497f9722a3daafe3b4186f6b6457e060405160405180910390a35050565b5f6012905090565b5f73ffffffffffffffffffffffffffffffffffffffff168273ffffffffffffffffffffffffffffffffffffffff16036102b9575f6040517fec442f050000000000000000000000000000000000000000000000000000000081526004016102b09190610888565b60405180910390fd5b6102ca5f83836102ce60201b60201c565b5050565b5f73ffffffffffffffffffffffffffffffffffffffff168373ffffffffffffffffffffffffffffffffffffffff160361031e578060025f8282546103129190610a94565b925050819055506103ec565b5f805f8573ffffffffffffffffffffffffffffffffffffffff1673ffffffffffffffffffffffffffffffffffffffff1681526020019081526020015f20549050818110156103a7578381836040517fe450d38c00000000000000000000000000000000000000000000000000000000815260040161039e93929190610ad6565b60405180910390fd5b8181035f808673ffffffffffffffffffffffffffffffffffffffff1673ffffffffffffffffffffffffffffffffffffffff1681526020019081526020015f2081905550505b5f73ffffffffffffffffffffffffffffffffffffffff168273ffffffffffffffffffffffffffffffffffffffff1603610433578060025f828254039250508190555061047d565b805f808473ffffffffffffffffffffffffffffffffffffffff1673ffffffffffffffffffffffffffffffffffffffff1681526020019081526020015f205f82825401925050819055505b8173ffffffffffffffffffffffffffffffffffffffff168373ffffffffffffffffffffffffffffffffffffffff167fddf252ad1be2c89b69c2b068fc378daa952ba7f163c4a11628f55a4df523b3ef836040516104da9190610b0b565b60405180910390a3505050565b5f80fd5b5f73ffffffffffffffffffffffffffffffffffffffff82169050919050565b5f610514826104eb565b9050919050565b6105248161050a565b811461052e575f80fd5b50565b5f8151905061053f8161051b565b92915050565b5f6020828403121561055a576105596104e7565b5b5f61056784828501610531565b91505092915050565b5f81519050919050565b7f4e487b71000000000000000000000000000000000000000000000000000000005f52604160045260245ffd5b7f4e487b71000000000000000000000000000000000000000000000000000000005f52602260045260245ffd5b5f60028204905060018216806105eb57607f821691505b6020821081036105fe576105fd6105a7565b5b50919050565b5f819050815f5260205f209050919050565b5f6020601f8301049050919050565b5f82821b905092915050565b5f600883026106607fffffffffffffffffffffffffffffffffffffffffffffffffffffffffffffffff82610625565b61066a8683610625565b95508019841693508086168417925050509392505050565b5f819050919050565b5f819050919050565b5f6106ae6106a96106a484610682565b61068b565b610682565b9050919050565b5f819050919050565b6106c783610694565b6106db6106d3826106b5565b848454610631565b825550505050565b5f90565b6106ef6106e3565b6106fa8184846106be565b505050565b5b8181101561071d576107125f826106e7565b600181019050610700565b5050565b601f8211156107625761073381610604565b61073c84610616565b8101602085101561074b578190505b61075f61075785610616565b8301826106ff565b50505b505050565b5f82821c905092915050565b5f6107825f1984600802610767565b1980831691505092915050565b5f61079a8383610773565b9150826002028217905092915050565b6107b382610570565b67ffffffffffffffff8111156107cc576107cb61057a565b5b6107d682546105d4565b6107e1828285610721565b5f60209050601f831160018114610812575f8415610800578287015190505b61080a858261078f565b865550610871565b601f19841661082086610604565b5f5b8281101561084757848901518255600182019150602085019450602081019050610822565b868310156108645784890151610860601f891682610773565b8355505b6001600288020188555050505b505050505050565b6108828161050a565b82525050565b5f60208201905061089b5f830184610879565b92915050565b7f4e487b71000000000000000000000000000000000000000000000000000000005f52601160045260245ffd5b5f8160011c9050919050565b5f808291508390505b6001851115610923578086048111156108ff576108fe6108a1565b5b600185161561090e5780820291505b808102905061091c856108ce565b94506108e3565b94509492505050565b5f8261093b57600190506109f6565b81610948575f90506109f6565b816001811461095e576002811461096857610997565b60019150506109f6565b60ff84111561097a576109796108a1565b5b8360020a915084821115610991576109906108a1565b5b506109f6565b5060208310610133831016604e8410600b84101617156109cc5782820a9050838111156109c7576109c66108a1565b5b6109f6565b6109d984848460016108da565b925090508184048111156109f0576109ef6108a1565b5b81810290505b9392505050565b5f60ff82169050919050565b5f610a1382610682565b9150610a1e836109fd565b9250610a4b7fffffffffffffffffffffffffffffffffffffffffffffffffffffffffffffffff848461092c565b905092915050565b5f610a5d82610682565b9150610a6883610682565b9250828202610a7681610682565b91508282048414831517610a8d57610a8c6108a1565b5b5092915050565b5f610a9e82610682565b9150610aa983610682565b9250828201905080821115610ac157610ac06108a1565b5b92915050565b610ad081610682565b82525050565b5f606082019050610ae95f830186610879565b610af66020830185610ac7565b610b036040830184610ac7565b949350505050565b5f602082019050610b1e5f830184610ac7565b92915050565b61129480610b315f395ff3fe608060405234801561000f575f80fd5b50600436106100fe575f3560e01c8063715018a6116100955780639dc29fac116100645780639dc29fac14610286578063a9059cbb146102a2578063dd62ed3e146102d2578063f2fde38b14610302576100fe565b8063715018a61461022457806379cc67901461022e5780638da5cb5b1461024a57806395d89b4114610268576100fe565b8063313ce567116100d1578063313ce5671461019e57806340c10f19146101bc57806342966c68146101d857806370a08231146101f4576100fe565b806306fdde0314610102578063095ea7b31461012057806318160ddd1461015057806323b872dd1461016e575b5f80fd5b61010a61031e565b6040516101179190610ee2565b60405180910390f35b61013a60048036038101906101359190610f93565b6103ae565b6040516101479190610feb565b60405180910390f35b6101586103d0565b6040516101659190611013565b60405180910390f35b6101886004803603810190610183919061102c565b6103d9565b6040516101959190610feb565b60405180910390f35b6101a6610407565b6040516101b39190611097565b60405180910390f35b6101d660048036038101906101d19190610f93565b61040f565b005b6101f260048036038101906101ed91906110b0565b610425565b005b61020e600480360381019061020991906110db565b610439565b60405161021b9190611013565b60405180910390f35b61022c61047e565b005b61024860048036038101906102439190610f93565b610491565b005b6102526104b1565b60405161025f9190611115565b60405180910390f35b6102706104d9565b60405161027d9190610ee2565b60405180910390f35b6102a0600480360381019061029b9190610f93565b610569565b005b6102bc60048036038101906102b79190610f93565b61057f565b6040516102c99190610feb565b60405180910390f35b6102ec60048036038101906102e7919061112e565b6105a1565b6040516102f99190611013565b60405180910390f35b61031c600480360381019061031791906110db565b610623565b005b60606003805461032d90611199565b80601f016020809104026020016040519081016040528092919081815260200182805461035990611199565b80156103a45780601f1061037b576101008083540402835291602001916103a4565b820191905f5260205f20905b81548152906001019060200180831161038757829003601f168201915b5050505050905090565b5f806103b86106a7565b90506103c58185856106ae565b600191505092915050565b5f600254905090565b5f806103e36106a7565b90506103f08582856106c0565b6103fb858585610752565b60019150509392505050565b5f6012905090565b610417610842565b61042182826108c9565b5050565b6104366104306106a7565b82610948565b50565b5f805f8373ffffffffffffffffffffffffffffffffffffffff1673ffffffffffffffffffffffffffffffffffffffff1681526020019081526020015f20549050919050565b610486610842565b61048f5f6109c7565b565b6104a38261049d6106a7565b836106c0565b6104ad8282610948565b5050565b5f60055f9054906101000a900473ffffffffffffffffffffffffffffffffffffffff16905090565b6060600480546104e890611199565b80601f016020809104026020016040519081016040528092919081815260200182805461051490611199565b801561055f5780601f106105365761010080835404028352916020019161055f565b820191905f5260205f20905b81548152906001019060200180831161054257829003601f168201915b5050505050905090565b610571610842565b61057b8282610948565b5050565b5f806105896106a7565b9050610596818585610752565b600191505092915050565b5f60015f8473ffffffffffffffffffffffffffffffffffffffff1673ffffffffffffffffffffffffffffffffffffffff1681526020019081526020015f205f8373ffffffffffffffffffffffffffffffffffffffff1673ffffffffffffffffffffffffffffffffffffffff1681526020019081526020015f2054905092915050565b61062b610842565b5f73ffffffffffffffffffffffffffffffffffffffff168173ffffffffffffffffffffffffffffffffffffffff160361069b575f6040517f1e4fbdf70000000000000000000000000000000000000000000000000000000081526004016106929190611115565b60405180910390fd5b6106a4816109c7565b50565b5f33905090565b6106bb8383836001610a8a565b505050565b5f6106cb84846105a1565b90507fffffffffffffffffffffffffffffffffffffffffffffffffffffffffffffffff811461074c578181101561073d578281836040517ffb8f41b2000000000000000000000000000000000000000000000000000000008152600401610734939291906111c9565b60405180910390fd5b61074b84848484035f610a8a565b5b50505050565b5f73ffffffffffffffffffffffffffffffffffffffff168373ffffffffffffffffffffffffffffffffffffffff16036107c2575f6040517f96c6fd1e0000000000000000000000000000000000000000000000000000000081526004016107b99190611115565b60405180910390fd5b5f73ffffffffffffffffffffffffffffffffffffffff168273ffffffffffffffffffffffffffffffffffffffff1603610832575f6040517fec442f050000000000000000000000000000000000000000000000000000000081526004016108299190611115565b60405180910390fd5b61083d838383610c59565b505050565b61084a6106a7565b73ffffffffffffffffffffffffffffffffffffffff166108686104b1565b73ffffffffffffffffffffffffffffffffffffffff16146108c75761088b6106a7565b6040517f118cdaa70000000000000000000000000000000000000000000000000000000081526004016108be9190611115565b60405180910390fd5b565b5f73ffffffffffffffffffffffffffffffffffffffff168273ffffffffffffffffffffffffffffffffffffffff1603610939575f6040517fec442f050000000000000000000000000000000000000000000000000000000081526004016109309190611115565b60405180910390fd5b6109445f8383610c59565b5050565b5f73ffffffffffffffffffffffffffffffffffffffff168273ffffffffffffffffffffffffffffffffffffffff16036109b8575f6040517f96c6fd1e0000000000000000000000000000000000000000000000000000000081526004016109af9190611115565b60405180910390fd5b6109c3825f83610c59565b5050565b5f60055f9054906101000a900473ffffffffffffffffffffffffffffffffffffffff1690508160055f6101000a81548173ffffffffffffffffffffffffffffffffffffffff021916908373ffffffffffffffffffffffffffffffffffffffff1602179055508173ffffffffffffffffffffffffffffffffffffffff168173ffffffffffffffffffffffffffffffffffffffff167f8be0079c531659141344cd1fd0a4f28419497f9722a3daafe3b4186f6b6457e060405160405180910390a35050565b5f73ffffffffffffffffffffffffffffffffffffffff168473ffffffffffffffffffffffffffffffffffffffff1603610afa575f6040517fe602df05000000000000000000000000000000000000000000000000000000008152600401610af19190611115565b60405180910390fd5b5f73ffffffffffffffffffffffffffffffffffffffff168373ffffffffffffffffffffffffffffffffffffffff1603610b6a575f6040517f94280d62000000000000000000000000000000000000000000000000000000008152600401610b619190611115565b60405180910390fd5b8160015f8673ffffffffffffffffffffffffffffffffffffffff1673ffffffffffffffffffffffffffffffffffffffff1681526020019081526020015f205f8573ffffffffffffffffffffffffffffffffffffffff1673ffffffffffffffffffffffffffffffffffffffff1681526020019081526020015f20819055508015610c53578273ffffffffffffffffffffffffffffffffffffffff168473ffffffffffffffffffffffffffffffffffffffff167f8c5be1e5ebec7d5bd14f71427d1e84f3dd0314c0f7b2291e5b200ac8c7c3b92584604051610c4a9190611013565b60405180910390a35b50505050565b5f73ffffffffffffffffffffffffffffffffffffffff168373ffffffffffffffffffffffffffffffffffffffff1603610ca9578060025f828254610c9d919061122b565b92505081905550610d77565b5f805f8573ffffffffffffffffffffffffffffffffffffffff1673ffffffffffffffffffffffffffffffffffffffff1681526020019081526020015f2054905081811015610d32578381836040517fe450d38c000000000000000000000000000000000000000000000000000000008152600401610d29939291906111c9565b60405180910390fd5b8181035f808673ffffffffffffffffffffffffffffffffffffffff1673ffffffffffffffffffffffffffffffffffffffff1681526020019081526020015f2081905550505b5f73ffffffffffffffffffffffffffffffffffffffff168273ffffffffffffffffffffffffffffffffffffffff1603610dbe578060025f8282540392505081905550610e08565b805f808473ffffffffffffffffffffffffffffffffffffffff1673ffffffffffffffffffffffffffffffffffffffff1681526020019081526020015f205f82825401925050819055505b8173ffffffffffffffffffffffffffffffffffffffff168373ffffffffffffffffffffffffffffffffffffffff167fddf252ad1be2c89b69c2b068fc378daa952ba7f163c4a11628f55a4df523b3ef83604051610e659190611013565b60405180910390a3505050565b5f81519050919050565b5f82825260208201905092915050565b8281835e5f83830152505050565b5f601f19601f8301169050919050565b5f610eb482610e72565b610ebe8185610e7c565b9350610ece818560208601610e8c565b610ed781610e9a565b840191505092915050565b5f6020820190508181035f830152610efa8184610eaa565b905092915050565b5f80fd5b5f73ffffffffffffffffffffffffffffffffffffffff82169050919050565b5f610f2f82610f06565b9050919050565b610f3f81610f25565b8114610f49575f80fd5b50565b5f81359050610f5a81610f36565b92915050565b5f819050919050565b610f7281610f60565b8114610f7c575f80fd5b50565b5f81359050610f8d81610f69565b92915050565b5f8060408385031215610fa957610fa8610f02565b5b5f610fb685828601610f4c565b9250506020610fc785828601610f7f565b9150509250929050565b5f8115159050919050565b610fe581610fd1565b82525050565b5f602082019050610ffe5f830184610fdc565b92915050565b61100d81610f60565b82525050565b5f6020820190506110265f830184611004565b92915050565b5f805f6060848603121561104357611042610f02565b5b5f61105086828701610f4c565b935050602061106186828701610f4c565b925050604061107286828701610f7f565b9150509250925092565b5f60ff82169050919050565b6110918161107c565b82525050565b5f6020820190506110aa5f830184611088565b92915050565b5f602082840312156110c5576110c4610f02565b5b5f6110d284828501610f7f565b91505092915050565b5f602082840312156110f0576110ef610f02565b5b5f6110fd84828501610f4c565b91505092915050565b61110f81610f25565b82525050565b5f6020820190506111285f830184611106565b92915050565b5f806040838503121561114457611143610f02565b5b5f61115185828601610f4c565b925050602061116285828601610f4c565b9150509250929050565b7f4e487b71000000000000000000000000000000000000000000000000000000005f52602260045260245ffd5b5f60028204905060018216806111b057607f821691505b6020821081036111c3576111c261116c565b5b50919050565b5f6060820190506111dc5f830186611106565b6111e96020830185611004565b6111f66040830184611004565b949350505050565b7f4e487b71000000000000000000000000000000000000000000000000000000005f52601160045260245ffd5b5f61123582610f60565b915061124083610f60565b9250828201905080821115611258576112576111fe565b5b9291505056fea26469706673582212200ce05bfb0d4a68169e17c8f4a6f32dfa4d9e9aa37e5930cbd8b082c210e790c564736f6c63430008190033",
			"opcodes": "PUSH1 0x80 PUSH1 0x40 MSTORE PUSH11 0x52B7D2DCC80CD2E4000000 PUSH1 0x6 SSTORE CALLVALUE DUP1 ISZERO PUSH2 0x1E JUMPI PUSH0 DUP1 REVERT JUMPDEST POP CALLER PUSH0 PUSH20 0xFFFFFFFFFFFFFFFFFFFFFFFFFFFFFFFFFFFFFFFF AND DUP2 PUSH20 0xFFFFFFFFFFFFFFFFFFFFFFFFFFFFFFFFFFFFFFFF AND SUB PUSH2 0x90 JUMPI PUSH0 PUSH1 0x40 MLOAD PUSH32 0x1E4FBDF700000000000000000000000000000000000000000000000000000000 DUP2 MSTORE PUSH1 0x4 ADD PUSH2 0x87 SWAP2 SWAP1 PUSH2 0x315 JUMP JUMPDEST PUSH1 0x40 MLOAD DUP1 SWAP2 SUB SWAP1 REVERT JUMPDEST PUSH2 0x9F DUP2 PUSH2 0x208 PUSH1 0x20 SHL PUSH1 0x20 SHR JUMP JUMPDEST POP PUSH20 0x694AA1769357215DE4FAC081BF1F309ADC325306 PUSH1 0x1 PUSH0 PUSH2 0x100 EXP DUP2 SLOAD DUP2 PUSH20 0xFFFFFFFFFFFFFFFFFFFFFFFFFFFFFFFFFFFFFFFF MUL NOT AND SWAP1 DUP4 PUSH20 0xFFFFFFFFFFFFFFFFFFFFFFFFFFFFFFFFFFFFFFFF AND MUL OR SWAP1 SSTORE POP PUSH20 0x1531BC5DE10618C511349F8007C08966E45CE8EF PUSH1 0x5 PUSH0 PUSH2 0x100 EXP DUP2 SLOAD DUP2 PUSH20 0xFFFFFFFFFFFFFFFFFFFFFFFFFFFFFFFFFFFFFFFF MUL NOT AND SWAP1 DUP4 PUSH20 0xFFFFFFFFFFFFFFFFFFFFFFFFFFFFFFFFFFFFFFFF AND MUL OR SWAP1 SSTORE POP ADDRESS PUSH1 0x40 MLOAD PUSH2 0x155 SWAP1 PUSH2 0x2C9 JUMP JUMPDEST PUSH2 0x15F SWAP2 SWAP1 PUSH2 0x315 JUMP JUMPDEST PUSH1 0x40 MLOAD DUP1 SWAP2 SUB SWAP1 PUSH0 CREATE DUP1 ISZERO DUP1 ISZERO PUSH2 0x178 JUMPI RETURNDATASIZE PUSH0 DUP1 RETURNDATACOPY RETURNDATASIZE PUSH0 REVERT JUMPDEST POP PUSH1 0x4 PUSH0 PUSH2 0x100 EXP DUP2 SLOAD DUP2 PUSH20 0xFFFFFFFFFFFFFFFFFFFFFFFFFFFFFFFFFFFFFFFF MUL NOT AND SWAP1 DUP4 PUSH20 0xFFFFFFFFFFFFFFFFFFFFFFFFFFFFFFFFFFFFFFFF AND MUL OR SWAP1 SSTORE POP TIMESTAMP PUSH1 0x7 DUP2 SWAP1 SSTORE POP PUSH3 0x2E2480 PUSH1 0x8 DUP2 SWAP1 SSTORE POP PUSH1 0x2 PUSH1 0x6 SLOAD PUSH2 0x1D8 SWAP2 SWAP1 PUSH2 0x364 JUMP JUMPDEST PUSH1 0xA DUP2 SWAP1 SSTORE POP PUSH6 0x5AF3107A4000 PUSH1 0xD DUP2 SWAP1 SSTORE POP PUSH8 0xDE0B6B3A7640000 PUSH1 0xE DUP2 SWAP1 SSTORE POP PUSH1 0xD SLOAD PUSH1 0xB DUP2 SWAP1 SSTORE POP PUSH2 0x394 JUMP JUMPDEST PUSH0 DUP1 PUSH0 SWAP1 SLOAD SWAP1 PUSH2 0x100 EXP SWAP1 DIV PUSH20 0xFFFFFFFFFFFFFFFFFFFFFFFFFFFFFFFFFFFFFFFF AND SWAP1 POP DUP2 PUSH0 DUP1 PUSH2 0x100 EXP DUP2 SLOAD DUP2 PUSH20 0xFFFFFFFFFFFFFFFFFFFFFFFFFFFFFFFFFFFFFFFF MUL NOT AND SWAP1 DUP4 PUSH20 0xFFFFFFFFFFFFFFFFFFFFFFFFFFFFFFFFFFFFFFFF AND MUL OR SWAP1 SSTORE POP DUP2 PUSH20 0xFFFFFFFFFFFFFFFFFFFFFFFFFFFFFFFFFFFFFFFF AND DUP2 PUSH20 0xFFFFFFFFFFFFFFFFFFFFFFFFFFFFFFFFFFFFFFFF AND PUSH32 0x8BE0079C531659141344CD1FD0A4F28419497F9722A3DAAFE3B4186F6B6457E0 PUSH1 0x40 MLOAD PUSH1 0x40 MLOAD DUP1 SWAP2 SUB SWAP1 LOG3 POP POP JUMP JUMPDEST PUSH2 0x1DC5 DUP1 PUSH2 0x27A8 DUP4 CODECOPY ADD SWAP1 JUMP JUMPDEST PUSH0 PUSH20 0xFFFFFFFFFFFFFFFFFFFFFFFFFFFFFFFFFFFFFFFF DUP3 AND SWAP1 POP SWAP2 SWAP1 POP JUMP JUMPDEST PUSH0 PUSH2 0x2FF DUP3 PUSH2 0x2D6 JUMP JUMPDEST SWAP1 POP SWAP2 SWAP1 POP JUMP JUMPDEST PUSH2 0x30F DUP2 PUSH2 0x2F5 JUMP JUMPDEST DUP3 MSTORE POP POP JUMP JUMPDEST PUSH0 PUSH1 0x20 DUP3 ADD SWAP1 POP PUSH2 0x328 PUSH0 DUP4 ADD DUP5 PUSH2 0x306 JUMP JUMPDEST SWAP3 SWAP2 POP POP JUMP JUMPDEST PUSH0 DUP2 SWAP1 POP SWAP2 SWAP1 POP JUMP JUMPDEST PUSH32 0x4E487B7100000000000000000000000000000000000000000000000000000000 PUSH0 MSTORE PUSH1 0x12 PUSH1 0x4 MSTORE PUSH1 0x24 PUSH0 REVERT JUMPDEST PUSH0 PUSH2 0x36E DUP3 PUSH2 0x32E JUMP JUMPDEST SWAP2 POP PUSH2 0x379 DUP4 PUSH2 0x32E JUMP JUMPDEST SWAP3 POP DUP3 PUSH2 0x389 JUMPI PUSH2 0x388 PUSH2 0x337 JUMP JUMPDEST JUMPDEST DUP3 DUP3 DIV SWAP1 POP SWAP3 SWAP2 POP POP JUMP JUMPDEST PUSH2 0x2407 DUP1 PUSH2 0x3A1 PUSH0 CODECOPY PUSH0 RETURN INVALID PUSH1 0x80 PUSH1 0x40 MSTORE PUSH1 0x4 CALLDATASIZE LT PUSH2 0x1D0 JUMPI PUSH0 CALLDATALOAD PUSH1 0xE0 SHR DUP1 PUSH4 0x715018A6 GT PUSH2 0xF6 JUMPI DUP1 PUSH4 0x9E1A4D19 GT PUSH2 0x94 JUMPI DUP1 PUSH4 0xF0DDA65C GT PUSH2 0x63 JUMPI DUP1 PUSH4 0xF0DDA65C EQ PUSH2 0xAC4 JUMPI DUP1 PUSH4 0xF2FDE38B EQ PUSH2 0xAEC JUMPI DUP1 PUSH4 0xFC0C546A EQ PUSH2 0xB14 JUMPI DUP1 PUSH4 0xFE575A87 EQ PUSH2 0xB3E JUMPI PUSH2 0x6A2 JUMP JUMPDEST DUP1 PUSH4 0x9E1A4D19 EQ PUSH2 0xA0A JUMPI DUP1 PUSH4 0xD41EDB7B EQ PUSH2 0xA34 JUMPI DUP1 PUSH4 0xE42C08F2 EQ PUSH2 0xA5E JUMPI DUP1 PUSH4 0xE9CBD822 EQ PUSH2 0xA9A JUMPI PUSH2 0x6A2 JUMP JUMPDEST DUP1 PUSH4 0x82D4D05D GT PUSH2 0xD0 JUMPI DUP1 PUSH4 0x82D4D05D EQ PUSH2 0x968 JUMPI DUP1 PUSH4 0x83CA0925 EQ PUSH2 0x990 JUMPI DUP1 PUSH4 0x85906256 EQ PUSH2 0x9B8 JUMPI DUP1 PUSH4 0x8DA5CB5B EQ PUSH2 0x9E0 JUMPI PUSH2 0x6A2 JUMP JUMPDEST DUP1 PUSH4 0x715018A6 EQ PUSH2 0x912 JUMPI DUP1 PUSH4 0x7362377B EQ PUSH2 0x928 JUMPI DUP1 PUSH4 0x7FF9B596 EQ PUSH2 0x93E JUMPI PUSH2 0x6A2 JUMP JUMPDEST DUP1 PUSH4 0x3BA93F26 GT PUSH2 0x16E JUMPI DUP1 PUSH4 0x537DF3B6 GT PUSH2 0x13D JUMPI DUP1 PUSH4 0x537DF3B6 EQ PUSH2 0x880 JUMPI DUP1 PUSH4 0x64AABB9E EQ PUSH2 0x8A8 JUMPI DUP1 PUSH4 0x65E6EF48 EQ PUSH2 0x8D2 JUMPI DUP1 PUSH4 0x68EADBFA EQ PUSH2 0x8E8 JUMPI PUSH2 0x6A2 JUMP JUMPDEST DUP1 PUSH4 0x3BA93F26 EQ PUSH2 0x7CA JUMPI DUP1 PUSH4 0x44337EA1 EQ PUSH2 0x7F2 JUMPI DUP1 PUSH4 0x518AB2A8 EQ PUSH2 0x81A JUMPI DUP1 PUSH4 0x523FBA7F EQ PUSH2 0x844 JUMPI PUSH2 0x6A2 JUMP JUMPDEST DUP1 PUSH4 0x1AC737B4 GT PUSH2 0x1AA JUMPI DUP1 PUSH4 0x1AC737B4 EQ PUSH2 0x722 JUMPI DUP1 PUSH4 0x1CBAEE2D EQ PUSH2 0x74C JUMPI DUP1 PUSH4 0x2CA0228A EQ PUSH2 0x776 JUMPI DUP1 PUSH4 0x3711D9FB EQ PUSH2 0x7A0 JUMPI PUSH2 0x6A2 JUMP JUMPDEST DUP1 PUSH4 0xD1118CE EQ PUSH2 0x6A6 JUMPI DUP1 PUSH4 0x12AEF8C3 EQ PUSH2 0x6CE JUMPI DUP1 PUSH4 0x18160DDD EQ PUSH2 0x6F8 JUMPI PUSH2 0x6A2 JUMP JUMPDEST CALLDATASIZE PUSH2 0x6A2 JUMPI PUSH1 0x2 PUSH0 CALLER PUSH20 0xFFFFFFFFFFFFFFFFFFFFFFFFFFFFFFFFFFFFFFFF AND PUSH20 0xFFFFFFFFFFFFFFFFFFFFFFFFFFFFFFFFFFFFFFFF AND DUP2 MSTORE PUSH1 0x20 ADD SWAP1 DUP2 MSTORE PUSH1 0x20 ADD PUSH0 KECCAK256 PUSH0 SWAP1 SLOAD SWAP1 PUSH2 0x100 EXP SWAP1 DIV PUSH1 0xFF AND ISZERO PUSH2 0x25F JUMPI PUSH1 0x40 MLOAD PUSH32 0x8C379A000000000000000000000000000000000000000000000000000000000 DUP2 MSTORE PUSH1 0x4 ADD PUSH2 0x256 SWAP1 PUSH2 0x19B1 JUMP JUMPDEST PUSH1 0x40 MLOAD DUP1 SWAP2 SUB SWAP1 REVERT JUMPDEST PUSH1 0x7 SLOAD TIMESTAMP LT ISZERO DUP1 ISZERO PUSH2 0x280 JUMPI POP PUSH1 0x8 SLOAD PUSH1 0x7 SLOAD PUSH2 0x27C SWAP2 SWAP1 PUSH2 0x1A05 JUMP JUMPDEST TIMESTAMP GT ISZERO JUMPDEST PUSH2 0x2BF JUMPI PUSH1 0x40 MLOAD PUSH32 0x8C379A000000000000000000000000000000000000000000000000000000000 DUP2 MSTORE PUSH1 0x4 ADD PUSH2 0x2B6 SWAP1 PUSH2 0x1A82 JUMP JUMPDEST PUSH1 0x40 MLOAD DUP1 SWAP2 SUB SWAP1 REVERT JUMPDEST PUSH1 0x2 PUSH0 CALLER PUSH20 0xFFFFFFFFFFFFFFFFFFFFFFFFFFFFFFFFFFFFFFFF AND PUSH20 0xFFFFFFFFFFFFFFFFFFFFFFFFFFFFFFFFFFFFFFFF AND DUP2 MSTORE PUSH1 0x20 ADD SWAP1 DUP2 MSTORE PUSH1 0x20 ADD PUSH0 KECCAK256 PUSH0 SWAP1 SLOAD SWAP1 PUSH2 0x100 EXP SWAP1 DIV PUSH1 0xFF AND ISZERO PUSH2 0x349 JUMPI PUSH1 0x40 MLOAD PUSH32 0x8C379A000000000000000000000000000000000000000000000000000000000 DUP2 MSTORE PUSH1 0x4 ADD PUSH2 0x340 SWAP1 PUSH2 0x19B1 JUMP JUMPDEST PUSH1 0x40 MLOAD DUP1 SWAP2 SUB SWAP1 REVERT JUMPDEST PUSH1 0x7 SLOAD TIMESTAMP LT ISZERO DUP1 ISZERO PUSH2 0x36A JUMPI POP PUSH1 0x8 SLOAD PUSH1 0x7 SLOAD PUSH2 0x366 SWAP2 SWAP1 PUSH2 0x1A05 JUMP JUMPDEST TIMESTAMP GT ISZERO JUMPDEST PUSH2 0x3A9 JUMPI PUSH1 0x40 MLOAD PUSH32 0x8C379A000000000000000000000000000000000000000000000000000000000 DUP2 MSTORE PUSH1 0x4 ADD PUSH2 0x3A0 SWAP1 PUSH2 0x1A82 JUMP JUMPDEST PUSH1 0x40 MLOAD DUP1 SWAP2 SUB SWAP1 REVERT JUMPDEST PUSH0 PUSH8 0xDE0B6B3A7640000 PUSH1 0xB SLOAD CALLVALUE PUSH2 0x3C1 SWAP2 SWAP1 PUSH2 0x1ACD JUMP JUMPDEST PUSH2 0x3CB SWAP2 SWAP1 PUSH2 0x1AFD JUMP JUMPDEST SWAP1 POP PUSH0 DUP2 GT PUSH2 0x40F JUMPI PUSH1 0x40 MLOAD PUSH32 0x8C379A000000000000000000000000000000000000000000000000000000000 DUP2 MSTORE PUSH1 0x4 ADD PUSH2 0x406 SWAP1 PUSH2 0x1B88 JUMP JUMPDEST PUSH1 0x40 MLOAD DUP1 SWAP2 SUB SWAP1 REVERT JUMPDEST DUP1 PUSH2 0x418 PUSH2 0xB7A JUMP JUMPDEST GT PUSH2 0x458 JUMPI PUSH1 0x40 MLOAD PUSH32 0x8C379A000000000000000000000000000000000000000000000000000000000 DUP2 MSTORE PUSH1 0x4 ADD PUSH2 0x44F SWAP1 PUSH2 0x1BF0 JUMP JUMPDEST PUSH1 0x40 MLOAD DUP1 SWAP2 SUB SWAP1 REVERT JUMPDEST DUP1 PUSH1 0xA SLOAD LT ISZERO PUSH2 0x49D JUMPI PUSH1 0x40 MLOAD PUSH32 0x8C379A000000000000000000000000000000000000000000000000000000000 DUP2 MSTORE PUSH1 0x4 ADD PUSH2 0x494 SWAP1 PUSH2 0x1C58 JUMP JUMPDEST PUSH1 0x40 MLOAD DUP1 SWAP2 SUB SWAP1 REVERT JUMPDEST PUSH10 0xA968163F0A57B400000 DUP2 PUSH1 0x3 PUSH0 CALLER PUSH20 0xFFFFFFFFFFFFFFFFFFFFFFFFFFFFFFFFFFFFFFFF AND PUSH20 0xFFFFFFFFFFFFFFFFFFFFFFFFFFFFFFFFFFFFFFFF AND DUP2 MSTORE PUSH1 0x20 ADD SWAP1 DUP2 MSTORE PUSH1 0x20 ADD PUSH0 KECCAK256 SLOAD PUSH2 0x4F1 SWAP2 SWAP1 PUSH2 0x1A05 JUMP JUMPDEST GT ISZERO PUSH2 0x532 JUMPI PUSH1 0x40 MLOAD PUSH32 0x8C379A000000000000000000000000000000000000000000000000000000000 DUP2 MSTORE PUSH1 0x4 ADD PUSH2 0x529 SWAP1 PUSH2 0x1CC0 JUMP JUMPDEST PUSH1 0x40 MLOAD DUP1 SWAP2 SUB SWAP1 REVERT JUMPDEST PUSH1 0x4 PUSH0 SWAP1 SLOAD SWAP1 PUSH2 0x100 EXP SWAP1 DIV PUSH20 0xFFFFFFFFFFFFFFFFFFFFFFFFFFFFFFFFFFFFFFFF AND PUSH20 0xFFFFFFFFFFFFFFFFFFFFFFFFFFFFFFFFFFFFFFFF AND PUSH4 0xA9059CBB CALLER DUP4 PUSH1 0x40 MLOAD DUP4 PUSH4 0xFFFFFFFF AND PUSH1 0xE0 SHL DUP2 MSTORE PUSH1 0x4 ADD PUSH2 0x58E SWAP3 SWAP2 SWAP1 PUSH2 0x1D2C JUMP JUMPDEST PUSH1 0x20 PUSH1 0x40 MLOAD DUP1 DUP4 SUB DUP2 PUSH0 DUP8 GAS CALL ISZERO DUP1 ISZERO PUSH2 0x5AA JUMPI RETURNDATASIZE PUSH0 DUP1 RETURNDATACOPY RETURNDATASIZE PUSH0 REVERT JUMPDEST POP POP POP POP PUSH1 0x40 MLOAD RETURNDATASIZE PUSH1 0x1F NOT PUSH1 0x1F DUP3 ADD AND DUP3 ADD DUP1 PUSH1 0x40 MSTORE POP DUP2 ADD SWAP1 PUSH2 0x5CE SWAP2 SWAP1 PUSH2 0x1D8C JUMP JUMPDEST POP DUP1 PUSH1 0x3 PUSH0 CALLER PUSH20 0xFFFFFFFFFFFFFFFFFFFFFFFFFFFFFFFFFFFFFFFF AND PUSH20 0xFFFFFFFFFFFFFFFFFFFFFFFFFFFFFFFFFFFFFFFF AND DUP2 MSTORE PUSH1 0x20 ADD SWAP1 DUP2 MSTORE PUSH1 0x20 ADD PUSH0 KECCAK256 PUSH0 DUP3 DUP3 SLOAD PUSH2 0x61B SWAP2 SWAP1 PUSH2 0x1A05 JUMP JUMPDEST SWAP3 POP POP DUP2 SWAP1 SSTORE POP DUP1 PUSH1 0x9 PUSH0 DUP3 DUP3 SLOAD PUSH2 0x633 SWAP2 SWAP1 PUSH2 0x1A05 JUMP JUMPDEST SWAP3 POP POP DUP2 SWAP1 SSTORE POP DUP1 PUSH1 0xA PUSH0 DUP3 DUP3 SLOAD PUSH2 0x64B SWAP2 SWAP1 PUSH2 0x1DB7 JUMP JUMPDEST SWAP3 POP POP DUP2 SWAP1 SSTORE POP CALLER PUSH20 0xFFFFFFFFFFFFFFFFFFFFFFFFFFFFFFFFFFFFFFFF AND PUSH32 0x745F661B8143944FB883F50694EBED3A871E43C451D9D4BF4648A9D551D7E47A DUP3 PUSH1 0x40 MLOAD PUSH2 0x698 SWAP2 SWAP1 PUSH2 0x1DEA JUMP JUMPDEST PUSH1 0x40 MLOAD DUP1 SWAP2 SUB SWAP1 LOG2 STOP JUMPDEST PUSH0 DUP1 REVERT JUMPDEST CALLVALUE DUP1 ISZERO PUSH2 0x6B1 JUMPI PUSH0 DUP1 REVERT JUMPDEST POP PUSH2 0x6CC PUSH1 0x4 DUP1 CALLDATASIZE SUB DUP2 ADD SWAP1 PUSH2 0x6C7 SWAP2 SWAP1 PUSH2 0x1E57 JUMP JUMPDEST PUSH2 0xC19 JUMP JUMPDEST STOP JUMPDEST CALLVALUE DUP1 ISZERO PUSH2 0x6D9 JUMPI PUSH0 DUP1 REVERT JUMPDEST POP PUSH2 0x6E2 PUSH2 0xDC2 JUMP JUMPDEST PUSH1 0x40 MLOAD PUSH2 0x6EF SWAP2 SWAP1 PUSH2 0x1DEA JUMP JUMPDEST PUSH1 0x40 MLOAD DUP1 SWAP2 SUB SWAP1 RETURN JUMPDEST CALLVALUE DUP1 ISZERO PUSH2 0x703 JUMPI PUSH0 DUP1 REVERT JUMPDEST POP PUSH2 0x70C PUSH2 0xDC8 JUMP JUMPDEST PUSH1 0x40 MLOAD PUSH2 0x719 SWAP2 SWAP1 PUSH2 0x1DEA JUMP JUMPDEST PUSH1 0x40 MLOAD DUP1 SWAP2 SUB SWAP1 RETURN JUMPDEST CALLVALUE DUP1 ISZERO PUSH2 0x72D JUMPI PUSH0 DUP1 REVERT JUMPDEST POP PUSH2 0x736 PUSH2 0xDCE JUMP JUMPDEST PUSH1 0x40 MLOAD PUSH2 0x743 SWAP2 SWAP1 PUSH2 0x1DEA JUMP JUMPDEST PUSH1 0x40 MLOAD DUP1 SWAP2 SUB SWAP1 RETURN JUMPDEST CALLVALUE DUP1 ISZERO PUSH2 0x757 JUMPI PUSH0 DUP1 REVERT JUMPDEST POP PUSH2 0x760 PUSH2 0xDD4 JUMP JUMPDEST PUSH1 0x40 MLOAD PUSH2 0x76D SWAP2 SWAP1 PUSH2 0x1DEA JUMP JUMPDEST PUSH1 0x40 MLOAD DUP1 SWAP2 SUB SWAP1 RETURN JUMPDEST CALLVALUE DUP1 ISZERO PUSH2 0x781 JUMPI PUSH0 DUP1 REVERT JUMPDEST POP PUSH2 0x78A PUSH2 0xDDA JUMP JUMPDEST PUSH1 0x40 MLOAD PUSH2 0x797 SWAP2 SWAP1 PUSH2 0x1DEA JUMP JUMPDEST PUSH1 0x40 MLOAD DUP1 SWAP2 SUB SWAP1 RETURN JUMPDEST CALLVALUE DUP1 ISZERO PUSH2 0x7AB JUMPI PUSH0 DUP1 REVERT JUMPDEST POP PUSH2 0x7B4 PUSH2 0xDE0 JUMP JUMPDEST PUSH1 0x40 MLOAD PUSH2 0x7C1 SWAP2 SWAP1 PUSH2 0x1DEA JUMP JUMPDEST PUSH1 0x40 MLOAD DUP1 SWAP2 SUB SWAP1 RETURN JUMPDEST CALLVALUE DUP1 ISZERO PUSH2 0x7D5 JUMPI PUSH0 DUP1 REVERT JUMPDEST POP PUSH2 0x7F0 PUSH1 0x4 DUP1 CALLDATASIZE SUB DUP2 ADD SWAP1 PUSH2 0x7EB SWAP2 SWAP1 PUSH2 0x1E95 JUMP JUMPDEST PUSH2 0xDE6 JUMP JUMPDEST STOP JUMPDEST CALLVALUE DUP1 ISZERO PUSH2 0x7FD JUMPI PUSH0 DUP1 REVERT JUMPDEST POP PUSH2 0x818 PUSH1 0x4 DUP1 CALLDATASIZE SUB DUP2 ADD SWAP1 PUSH2 0x813 SWAP2 SWAP1 PUSH2 0x1EC0 JUMP JUMPDEST PUSH2 0xE86 JUMP JUMPDEST STOP JUMPDEST CALLVALUE DUP1 ISZERO PUSH2 0x825 JUMPI PUSH0 DUP1 REVERT JUMPDEST POP PUSH2 0x82E PUSH2 0xEE6 JUMP JUMPDEST PUSH1 0x40 MLOAD PUSH2 0x83B SWAP2 SWAP1 PUSH2 0x1DEA JUMP JUMPDEST PUSH1 0x40 MLOAD DUP1 SWAP2 SUB SWAP1 RETURN JUMPDEST CALLVALUE DUP1 ISZERO PUSH2 0x84F JUMPI PUSH0 DUP1 REVERT JUMPDEST POP PUSH2 0x86A PUSH1 0x4 DUP1 CALLDATASIZE SUB DUP2 ADD SWAP1 PUSH2 0x865 SWAP2 SWAP1 PUSH2 0x1EC0 JUMP JUMPDEST PUSH2 0xEEC JUMP JUMPDEST PUSH1 0x40 MLOAD PUSH2 0x877 SWAP2 SWAP1 PUSH2 0x1DEA JUMP JUMPDEST PUSH1 0x40 MLOAD DUP1 SWAP2 SUB SWAP1 RETURN JUMPDEST CALLVALUE DUP1 ISZERO PUSH2 0x88B JUMPI PUSH0 DUP1 REVERT JUMPDEST POP PUSH2 0x8A6 PUSH1 0x4 DUP1 CALLDATASIZE SUB DUP2 ADD SWAP1 PUSH2 0x8A1 SWAP2 SWAP1 PUSH2 0x1EC0 JUMP JUMPDEST PUSH2 0xF01 JUMP JUMPDEST STOP JUMPDEST CALLVALUE DUP1 ISZERO PUSH2 0x8B3 JUMPI PUSH0 DUP1 REVERT JUMPDEST POP PUSH2 0x8BC PUSH2 0xF60 JUMP JUMPDEST PUSH1 0x40 MLOAD PUSH2 0x8C9 SWAP2 SWAP1 PUSH2 0x1DEA JUMP JUMPDEST PUSH1 0x40 MLOAD DUP1 SWAP2 SUB SWAP1 RETURN JUMPDEST CALLVALUE DUP1 ISZERO PUSH2 0x8DD JUMPI PUSH0 DUP1 REVERT JUMPDEST POP PUSH2 0x8E6 PUSH2 0xFFF JUMP JUMPDEST STOP JUMPDEST CALLVALUE DUP1 ISZERO PUSH2 0x8F3 JUMPI PUSH0 DUP1 REVERT JUMPDEST POP PUSH2 0x8FC PUSH2 0x1010 JUMP JUMPDEST PUSH1 0x40 MLOAD PUSH2 0x909 SWAP2 SWAP1 PUSH2 0x1F03 JUMP JUMPDEST PUSH1 0x40 MLOAD DUP1 SWAP2 SUB SWAP1 RETURN JUMPDEST CALLVALUE DUP1 ISZERO PUSH2 0x91D JUMPI PUSH0 DUP1 REVERT JUMPDEST POP PUSH2 0x926 PUSH2 0x10AD JUMP JUMPDEST STOP JUMPDEST CALLVALUE DUP1 ISZERO PUSH2 0x933 JUMPI PUSH0 DUP1 REVERT JUMPDEST POP PUSH2 0x93C PUSH2 0x10C0 JUMP JUMPDEST STOP JUMPDEST CALLVALUE DUP1 ISZERO PUSH2 0x949 JUMPI PUSH0 DUP1 REVERT JUMPDEST POP PUSH2 0x952 PUSH2 0x1115 JUMP JUMPDEST PUSH1 0x40 MLOAD PUSH2 0x95F SWAP2 SWAP1 PUSH2 0x1DEA JUMP JUMPDEST PUSH1 0x40 MLOAD DUP1 SWAP2 SUB SWAP1 RETURN JUMPDEST CALLVALUE DUP1 ISZERO PUSH2 0x973 JUMPI PUSH0 DUP1 REVERT JUMPDEST POP PUSH2 0x98E PUSH1 0x4 DUP1 CALLDATASIZE SUB DUP2 ADD SWAP1 PUSH2 0x989 SWAP2 SWAP1 PUSH2 0x1E95 JUMP JUMPDEST PUSH2 0x111B JUMP JUMPDEST STOP JUMPDEST CALLVALUE DUP1 ISZERO PUSH2 0x99B JUMPI PUSH0 DUP1 REVERT JUMPDEST POP PUSH2 0x9B6 PUSH1 0x4 DUP1 CALLDATASIZE SUB DUP2 ADD SWAP1 PUSH2 0x9B1 SWAP2 SWAP1 PUSH2 0x1F53 JUMP JUMPDEST PUSH2 0x11B6 JUMP JUMPDEST STOP JUMPDEST CALLVALUE DUP1 ISZERO PUSH2 0x9C3 JUMPI PUSH0 DUP1 REVERT JUMPDEST POP PUSH2 0x9DE PUSH1 0x4 DUP1 CALLDATASIZE SUB DUP2 ADD SWAP1 PUSH2 0x9D9 SWAP2 SWAP1 PUSH2 0x1E95 JUMP JUMPDEST PUSH2 0x1230 JUMP JUMPDEST STOP JUMPDEST CALLVALUE DUP1 ISZERO PUSH2 0x9EB JUMPI PUSH0 DUP1 REVERT JUMPDEST POP PUSH2 0x9F4 PUSH2 0x154C JUMP JUMPDEST PUSH1 0x40 MLOAD PUSH2 0xA01 SWAP2 SWAP1 PUSH2 0x1F7E JUMP JUMPDEST PUSH1 0x40 MLOAD DUP1 SWAP2 SUB SWAP1 RETURN JUMPDEST CALLVALUE DUP1 ISZERO PUSH2 0xA15 JUMPI PUSH0 DUP1 REVERT JUMPDEST POP PUSH2 0xA1E PUSH2 0xB7A JUMP JUMPDEST PUSH1 0x40 MLOAD PUSH2 0xA2B SWAP2 SWAP1 PUSH2 0x1DEA JUMP JUMPDEST PUSH1 0x40 MLOAD DUP1 SWAP2 SUB SWAP1 RETURN JUMPDEST CALLVALUE DUP1 ISZERO PUSH2 0xA3F JUMPI PUSH0 DUP1 REVERT JUMPDEST POP PUSH2 0xA48 PUSH2 0x1573 JUMP JUMPDEST PUSH1 0x40 MLOAD PUSH2 0xA55 SWAP2 SWAP1 PUSH2 0x1DEA JUMP JUMPDEST PUSH1 0x40 MLOAD DUP1 SWAP2 SUB SWAP1 RETURN JUMPDEST CALLVALUE DUP1 ISZERO PUSH2 0xA69 JUMPI PUSH0 DUP1 REVERT JUMPDEST POP PUSH2 0xA84 PUSH1 0x4 DUP1 CALLDATASIZE SUB DUP2 ADD SWAP1 PUSH2 0xA7F SWAP2 SWAP1 PUSH2 0x1EC0 JUMP JUMPDEST PUSH2 0x1579 JUMP JUMPDEST PUSH1 0x40 MLOAD PUSH2 0xA91 SWAP2 SWAP1 PUSH2 0x1DEA JUMP JUMPDEST PUSH1 0x40 MLOAD DUP1 SWAP2 SUB SWAP1 RETURN JUMPDEST CALLVALUE DUP1 ISZERO PUSH2 0xAA5 JUMPI PUSH0 DUP1 REVERT JUMPDEST POP PUSH2 0xAAE PUSH2 0x161A JUMP JUMPDEST PUSH1 0x40 MLOAD PUSH2 0xABB SWAP2 SWAP1 PUSH2 0x1FF2 JUMP JUMPDEST PUSH1 0x40 MLOAD DUP1 SWAP2 SUB SWAP1 RETURN JUMPDEST CALLVALUE DUP1 ISZERO PUSH2 0xACF JUMPI PUSH0 DUP1 REVERT JUMPDEST POP PUSH2 0xAEA PUSH1 0x4 DUP1 CALLDATASIZE SUB DUP2 ADD SWAP1 PUSH2 0xAE5 SWAP2 SWAP1 PUSH2 0x1E57 JUMP JUMPDEST PUSH2 0x163F JUMP JUMPDEST STOP JUMPDEST CALLVALUE DUP1 ISZERO PUSH2 0xAF7 JUMPI PUSH0 DUP1 REVERT JUMPDEST POP PUSH2 0xB12 PUSH1 0x4 DUP1 CALLDATASIZE SUB DUP2 ADD SWAP1 PUSH2 0xB0D SWAP2 SWAP1 PUSH2 0x1EC0 JUMP JUMPDEST PUSH2 0x170D JUMP JUMPDEST STOP JUMPDEST CALLVALUE DUP1 ISZERO PUSH2 0xB1F JUMPI PUSH0 DUP1 REVERT JUMPDEST POP PUSH2 0xB28 PUSH2 0x1791 JUMP JUMPDEST PUSH1 0x40 MLOAD PUSH2 0xB35 SWAP2 SWAP1 PUSH2 0x202B JUMP JUMPDEST PUSH1 0x40 MLOAD DUP1 SWAP2 SUB SWAP1 RETURN JUMPDEST CALLVALUE DUP1 ISZERO PUSH2 0xB49 JUMPI PUSH0 DUP1 REVERT JUMPDEST POP PUSH2 0xB64 PUSH1 0x4 DUP1 CALLDATASIZE SUB DUP2 ADD SWAP1 PUSH2 0xB5F SWAP2 SWAP1 PUSH2 0x1EC0 JUMP JUMPDEST PUSH2 0x17B6 JUMP JUMPDEST PUSH1 0x40 MLOAD PUSH2 0xB71 SWAP2 SWAP1 PUSH2 0x2053 JUMP JUMPDEST PUSH1 0x40 MLOAD DUP1 SWAP2 SUB SWAP1 RETURN JUMPDEST PUSH0 PUSH1 0x4 PUSH0 SWAP1 SLOAD SWAP1 PUSH2 0x100 EXP SWAP1 DIV PUSH20 0xFFFFFFFFFFFFFFFFFFFFFFFFFFFFFFFFFFFFFFFF AND PUSH20 0xFFFFFFFFFFFFFFFFFFFFFFFFFFFFFFFFFFFFFFFF AND PUSH4 0x70A08231 ADDRESS PUSH1 0x40 MLOAD DUP3 PUSH4 0xFFFFFFFF AND PUSH1 0xE0 SHL DUP2 MSTORE PUSH1 0x4 ADD PUSH2 0xBD5 SWAP2 SWAP1 PUSH2 0x1F7E JUMP JUMPDEST PUSH1 0x20 PUSH1 0x40 MLOAD DUP1 DUP4 SUB DUP2 DUP7 GAS STATICCALL ISZERO DUP1 ISZERO PUSH2 0xBF0 JUMPI RETURNDATASIZE PUSH0 DUP1 RETURNDATACOPY RETURNDATASIZE PUSH0 REVERT JUMPDEST POP POP POP POP PUSH1 0x40 MLOAD RETURNDATASIZE PUSH1 0x1F NOT PUSH1 0x1F DUP3 ADD AND DUP3 ADD DUP1 PUSH1 0x40 MSTORE POP DUP2 ADD SWAP1 PUSH2 0xC14 SWAP2 SWAP1 PUSH2 0x2080 JUMP JUMPDEST SWAP1 POP SWAP1 JUMP JUMPDEST PUSH2 0xC21 PUSH2 0x1808 JUMP JUMPDEST DUP1 PUSH1 0x4 PUSH0 SWAP1 SLOAD SWAP1 PUSH2 0x100 EXP SWAP1 DIV PUSH20 0xFFFFFFFFFFFFFFFFFFFFFFFFFFFFFFFFFFFFFFFF AND PUSH20 0xFFFFFFFFFFFFFFFFFFFFFFFFFFFFFFFFFFFFFFFF AND PUSH4 0x70A08231 DUP5 PUSH1 0x40 MLOAD DUP3 PUSH4 0xFFFFFFFF AND PUSH1 0xE0 SHL DUP2 MSTORE PUSH1 0x4 ADD PUSH2 0xC7C SWAP2 SWAP1 PUSH2 0x1F7E JUMP JUMPDEST PUSH1 0x20 PUSH1 0x40 MLOAD DUP1 DUP4 SUB DUP2 DUP7 GAS STATICCALL ISZERO DUP1 ISZERO PUSH2 0xC97 JUMPI RETURNDATASIZE PUSH0 DUP1 RETURNDATACOPY RETURNDATASIZE PUSH0 REVERT JUMPDEST POP POP POP POP PUSH1 0x40 MLOAD RETURNDATASIZE PUSH1 0x1F NOT PUSH1 0x1F DUP3 ADD AND DUP3 ADD DUP1 PUSH1 0x40 MSTORE POP DUP2 ADD SWAP1 PUSH2 0xCBB SWAP2 SWAP1 PUSH2 0x2080 JUMP JUMPDEST LT ISZERO PUSH2 0xCFC JUMPI PUSH1 0x40 MLOAD PUSH32 0x8C379A000000000000000000000000000000000000000000000000000000000 DUP2 MSTORE PUSH1 0x4 ADD PUSH2 0xCF3 SWAP1 PUSH2 0x20F5 JUMP JUMPDEST PUSH1 0x40 MLOAD DUP1 SWAP2 SUB SWAP1 REVERT JUMPDEST PUSH1 0x4 PUSH0 SWAP1 SLOAD SWAP1 PUSH2 0x100 EXP SWAP1 DIV PUSH20 0xFFFFFFFFFFFFFFFFFFFFFFFFFFFFFFFFFFFFFFFF AND PUSH20 0xFFFFFFFFFFFFFFFFFFFFFFFFFFFFFFFFFFFFFFFF AND PUSH4 0x9DC29FAC DUP4 DUP4 PUSH1 0x40 MLOAD DUP4 PUSH4 0xFFFFFFFF AND PUSH1 0xE0 SHL DUP2 MSTORE PUSH1 0x4 ADD PUSH2 0xD58 SWAP3 SWAP2 SWAP1 PUSH2 0x1D2C JUMP JUMPDEST PUSH0 PUSH1 0x40 MLOAD DUP1 DUP4 SUB DUP2 PUSH0 DUP8 DUP1 EXTCODESIZE ISZERO DUP1 ISZERO PUSH2 0xD6F JUMPI PUSH0 DUP1 REVERT JUMPDEST POP GAS CALL ISZERO DUP1 ISZERO PUSH2 0xD81 JUMPI RETURNDATASIZE PUSH0 DUP1 RETURNDATACOPY RETURNDATASIZE PUSH0 REVERT JUMPDEST POP POP POP POP PUSH32 0x584AF6F2B9710961C595285E2363816A2F40607C11C473798E82E242C0E1D31D DUP3 DUP3 PUSH1 0x40 MLOAD PUSH2 0xDB6 SWAP3 SWAP2 SWAP1 PUSH2 0x1D2C JUMP JUMPDEST PUSH1 0x40 MLOAD DUP1 SWAP2 SUB SWAP1 LOG1 POP POP JUMP JUMPDEST PUSH1 0xA SLOAD DUP2 JUMP JUMPDEST PUSH1 0x6 SLOAD DUP2 JUMP JUMPDEST PUSH1 0xE SLOAD DUP2 JUMP JUMPDEST PUSH1 0x7 SLOAD DUP2 JUMP JUMPDEST PUSH1 0xD SLOAD DUP2 JUMP JUMPDEST PUSH1 0x8 SLOAD DUP2 JUMP JUMPDEST PUSH1 0x5 PUSH0 SWAP1 SLOAD SWAP1 PUSH2 0x100 EXP SWAP1 DIV PUSH20 0xFFFFFFFFFFFFFFFFFFFFFFFFFFFFFFFFFFFFFFFF AND PUSH20 0xFFFFFFFFFFFFFFFFFFFFFFFFFFFFFFFFFFFFFFFF AND PUSH4 0x95EA7B3 ADDRESS DUP4 PUSH1 0x40 MLOAD DUP4 PUSH4 0xFFFFFFFF AND PUSH1 0xE0 SHL DUP2 MSTORE PUSH1 0x4 ADD PUSH2 0xE42 SWAP3 SWAP2 SWAP1 PUSH2 0x1D2C JUMP JUMPDEST PUSH1 0x20 PUSH1 0x40 MLOAD DUP1 DUP4 SUB DUP2 PUSH0 DUP8 GAS CALL ISZERO DUP1 ISZERO PUSH2 0xE5E JUMPI RETURNDATASIZE PUSH0 DUP1 RETURNDATACOPY RETURNDATASIZE PUSH0 REVERT JUMPDEST POP POP POP POP PUSH1 0x40 MLOAD RETURNDATASIZE PUSH1 0x1F NOT PUSH1 0x1F DUP3 ADD AND DUP3 ADD DUP1 PUSH1 0x40 MSTORE POP DUP2 ADD SWAP1 PUSH2 0xE82 SWAP2 SWAP1 PUSH2 0x1D8C JUMP JUMPDEST POP POP JUMP JUMPDEST PUSH2 0xE8E PUSH2 0x1808 JUMP JUMPDEST PUSH1 0x1 PUSH1 0x2 PUSH0 DUP4 PUSH20 0xFFFFFFFFFFFFFFFFFFFFFFFFFFFFFFFFFFFFFFFF AND PUSH20 0xFFFFFFFFFFFFFFFFFFFFFFFFFFFFFFFFFFFFFFFF AND DUP2 MSTORE PUSH1 0x20 ADD SWAP1 DUP2 MSTORE PUSH1 0x20 ADD PUSH0 KECCAK256 PUSH0 PUSH2 0x100 EXP DUP2 SLOAD DUP2 PUSH1 0xFF MUL NOT AND SWAP1 DUP4 ISZERO ISZERO MUL OR SWAP1 SSTORE POP POP JUMP JUMPDEST PUSH1 0x9 SLOAD DUP2 JUMP JUMPDEST PUSH1 0x3 PUSH1 0x20 MSTORE DUP1 PUSH0 MSTORE PUSH1 0x40 PUSH0 KECCAK256 PUSH0 SWAP2 POP SWAP1 POP SLOAD DUP2 JUMP JUMPDEST PUSH2 0xF09 PUSH2 0x1808 JUMP JUMPDEST PUSH0 PUSH1 0x2 PUSH0 DUP4 PUSH20 0xFFFFFFFFFFFFFFFFFFFFFFFFFFFFFFFFFFFFFFFF AND PUSH20 0xFFFFFFFFFFFFFFFFFFFFFFFFFFFFFFFFFFFFFFFF AND DUP2 MSTORE PUSH1 0x20 ADD SWAP1 DUP2 MSTORE PUSH1 0x20 ADD PUSH0 KECCAK256 PUSH0 PUSH2 0x100 EXP DUP2 SLOAD DUP2 PUSH1 0xFF MUL NOT AND SWAP1 DUP4 ISZERO ISZERO MUL OR SWAP1 SSTORE POP POP JUMP JUMPDEST PUSH0 PUSH1 0x5 PUSH0 SWAP1 SLOAD SWAP1 PUSH2 0x100 EXP SWAP1 DIV PUSH20 0xFFFFFFFFFFFFFFFFFFFFFFFFFFFFFFFFFFFFFFFF AND PUSH20 0xFFFFFFFFFFFFFFFFFFFFFFFFFFFFFFFFFFFFFFFF AND PUSH4 0x70A08231 ADDRESS PUSH1 0x40 MLOAD DUP3 PUSH4 0xFFFFFFFF AND PUSH1 0xE0 SHL DUP2 MSTORE PUSH1 0x4 ADD PUSH2 0xFBB SWAP2 SWAP1 PUSH2 0x1F7E JUMP JUMPDEST PUSH1 0x20 PUSH1 0x40 MLOAD DUP1 DUP4 SUB DUP2 DUP7 GAS STATICCALL ISZERO DUP1 ISZERO PUSH2 0xFD6 JUMPI RETURNDATASIZE PUSH0 DUP1 RETURNDATACOPY RETURNDATASIZE PUSH0 REVERT JUMPDEST POP POP POP POP PUSH1 0x40 MLOAD RETURNDATASIZE PUSH1 0x1F NOT PUSH1 0x1F DUP3 ADD AND DUP3 ADD DUP1 PUSH1 0x40 MSTORE POP DUP2 ADD SWAP1 PUSH2 0xFFA SWAP2 SWAP1 PUSH2 0x2080 JUMP JUMPDEST SWAP1 POP SWAP1 JUMP JUMPDEST PUSH2 0x1007 PUSH2 0x1808 JUMP JUMPDEST PUSH0 PUSH1 0xA DUP2 SWAP1 SSTORE POP JUMP JUMPDEST PUSH0 DUP1 PUSH1 0x1 PUSH0 SWAP1 SLOAD SWAP1 PUSH2 0x100 EXP SWAP1 DIV PUSH20 0xFFFFFFFFFFFFFFFFFFFFFFFFFFFFFFFFFFFFFFFF AND PUSH20 0xFFFFFFFFFFFFFFFFFFFFFFFFFFFFFFFFFFFFFFFF AND PUSH4 0xFEAF968C PUSH1 0x40 MLOAD DUP2 PUSH4 0xFFFFFFFF AND PUSH1 0xE0 SHL DUP2 MSTORE PUSH1 0x4 ADD PUSH1 0xA0 PUSH1 0x40 MLOAD DUP1 DUP4 SUB DUP2 DUP7 GAS STATICCALL ISZERO DUP1 ISZERO PUSH2 0x107C JUMPI RETURNDATASIZE PUSH0 DUP1 RETURNDATACOPY RETURNDATASIZE PUSH0 REVERT JUMPDEST POP POP POP POP PUSH1 0x40 MLOAD RETURNDATASIZE PUSH1 0x1F NOT PUSH1 0x1F DUP3 ADD AND DUP3 ADD DUP1 PUSH1 0x40 MSTORE POP DUP2 ADD SWAP1 PUSH2 0x10A0 SWAP2 SWAP1 PUSH2 0x217C JUMP JUMPDEST POP POP POP SWAP2 POP POP DUP1 SWAP2 POP POP SWAP1 JUMP JUMPDEST PUSH2 0x10B5 PUSH2 0x1808 JUMP JUMPDEST PUSH2 0x10BE PUSH0 PUSH2 0x188F JUMP JUMPDEST JUMP JUMPDEST PUSH2 0x10C8 PUSH2 0x1808 JUMP JUMPDEST PUSH2 0x10D0 PUSH2 0x154C JUMP JUMPDEST PUSH20 0xFFFFFFFFFFFFFFFFFFFFFFFFFFFFFFFFFFFFFFFF AND PUSH2 0x8FC SELFBALANCE SWAP1 DUP2 ISZERO MUL SWAP1 PUSH1 0x40 MLOAD PUSH0 PUSH1 0x40 MLOAD DUP1 DUP4 SUB DUP2 DUP6 DUP9 DUP9 CALL SWAP4 POP POP POP POP ISZERO DUP1 ISZERO PUSH2 0x1112 JUMPI RETURNDATASIZE PUSH0 DUP1 RETURNDATACOPY RETURNDATASIZE PUSH0 REVERT JUMPDEST POP JUMP JUMPDEST PUSH1 0xB SLOAD DUP2 JUMP JUMPDEST PUSH2 0x1123 PUSH2 0x1808 JUMP JUMPDEST PUSH1 0x6 SLOAD PUSH8 0xDE0B6B3A7640000 DUP3 PUSH2 0x113A SWAP2 SWAP1 PUSH2 0x1AFD JUMP JUMPDEST PUSH1 0xA SLOAD PUSH2 0x1147 SWAP2 SWAP1 PUSH2 0x1A05 JUMP JUMPDEST GT ISZERO PUSH2 0x1188 JUMPI PUSH1 0x40 MLOAD PUSH32 0x8C379A000000000000000000000000000000000000000000000000000000000 DUP2 MSTORE PUSH1 0x4 ADD PUSH2 0x117F SWAP1 PUSH2 0x223D JUMP JUMPDEST PUSH1 0x40 MLOAD DUP1 SWAP2 SUB SWAP1 REVERT JUMPDEST PUSH8 0xDE0B6B3A7640000 DUP2 PUSH2 0x119C SWAP2 SWAP1 PUSH2 0x1AFD JUMP JUMPDEST PUSH1 0xA PUSH0 DUP3 DUP3 SLOAD PUSH2 0x11AC SWAP2 SWAP1 PUSH2 0x1A05 JUMP JUMPDEST SWAP3 POP POP DUP2 SWAP1 SSTORE POP POP JUMP JUMPDEST PUSH2 0x11BE PUSH2 0x1808 JUMP JUMPDEST PUSH0 DUP2 PUSH2 0xFFFF AND SUB PUSH2 0x11D5 JUMPI PUSH0 PUSH1 0x8 DUP2 SWAP1 SSTORE POP PUSH2 0x11F4 JUMP JUMPDEST PUSH3 0x93A80 DUP2 PUSH2 0xFFFF AND PUSH2 0x11E8 SWAP2 SWAP1 PUSH2 0x2269 JUMP JUMPDEST PUSH3 0xFFFFFF AND PUSH1 0x8 DUP2 SWAP1 SSTORE POP JUMPDEST PUSH32 0xE90D9A44DCFA9BAE4BB685B71C60DC6A1DD8FF796FF9AED7F4EE44A2108342CC PUSH1 0x8 SLOAD PUSH1 0x40 MLOAD PUSH2 0x1225 SWAP2 SWAP1 PUSH2 0x1DEA JUMP JUMPDEST PUSH1 0x40 MLOAD DUP1 SWAP2 SUB SWAP1 LOG1 POP JUMP JUMPDEST DUP1 PUSH1 0x5 PUSH0 SWAP1 SLOAD SWAP1 PUSH2 0x100 EXP SWAP1 DIV PUSH20 0xFFFFFFFFFFFFFFFFFFFFFFFFFFFFFFFFFFFFFFFF AND PUSH20 0xFFFFFFFFFFFFFFFFFFFFFFFFFFFFFFFFFFFFFFFF AND PUSH4 0xDD62ED3E CALLER ADDRESS PUSH1 0x40 MLOAD DUP4 PUSH4 0xFFFFFFFF AND PUSH1 0xE0 SHL DUP2 MSTORE PUSH1 0x4 ADD PUSH2 0x128D SWAP3 SWAP2 SWAP1 PUSH2 0x22A5 JUMP JUMPDEST PUSH1 0x20 PUSH1 0x40 MLOAD DUP1 DUP4 SUB DUP2 DUP7 GAS STATICCALL ISZERO DUP1 ISZERO PUSH2 0x12A8 JUMPI RETURNDATASIZE PUSH0 DUP1 RETURNDATACOPY RETURNDATASIZE PUSH0 REVERT JUMPDEST POP POP POP POP PUSH1 0x40 MLOAD RETURNDATASIZE PUSH1 0x1F NOT PUSH1 0x1F DUP3 ADD AND DUP3 ADD DUP1 PUSH1 0x40 MSTORE POP DUP2 ADD SWAP1 PUSH2 0x12CC SWAP2 SWAP1 PUSH2 0x2080 JUMP JUMPDEST LT ISZERO PUSH2 0x130D JUMPI PUSH1 0x40 MLOAD PUSH32 0x8C379A000000000000000000000000000000000000000000000000000000000 DUP2 MSTORE PUSH1 0x4 ADD PUSH2 0x1304 SWAP1 PUSH2 0x2316 JUMP JUMPDEST PUSH1 0x40 MLOAD DUP1 SWAP2 SUB SWAP1 REVERT JUMPDEST PUSH1 0x5 PUSH0 SWAP1 SLOAD SWAP1 PUSH2 0x100 EXP SWAP1 DIV PUSH20 0xFFFFFFFFFFFFFFFFFFFFFFFFFFFFFFFFFFFFFFFF AND PUSH20 0xFFFFFFFFFFFFFFFFFFFFFFFFFFFFFFFFFFFFFFFF AND PUSH4 0x23B872DD CALLER ADDRESS DUP5 PUSH1 0x40 MLOAD DUP5 PUSH4 0xFFFFFFFF AND PUSH1 0xE0 SHL DUP2 MSTORE PUSH1 0x4 ADD PUSH2 0x136B SWAP4 SWAP3 SWAP2 SWAP1 PUSH2 0x2334 JUMP JUMPDEST PUSH1 0x20 PUSH1 0x40 MLOAD DUP1 DUP4 SUB DUP2 PUSH0 DUP8 GAS CALL ISZERO DUP1 ISZERO PUSH2 0x1387 JUMPI RETURNDATASIZE PUSH0 DUP1 RETURNDATACOPY RETURNDATASIZE PUSH0 REVERT JUMPDEST POP POP POP POP PUSH1 0x40 MLOAD RETURNDATASIZE PUSH1 0x1F NOT PUSH1 0x1F DUP3 ADD AND DUP3 ADD DUP1 PUSH1 0x40 MSTORE POP DUP2 ADD SWAP1 PUSH2 0x13AB SWAP2 SWAP1 PUSH2 0x1D8C JUMP JUMPDEST POP PUSH0 PUSH1 0xB SLOAD DUP3 PUSH2 0x13BB SWAP2 SWAP1 PUSH2 0x1ACD JUMP JUMPDEST SWAP1 POP DUP1 PUSH2 0x13C6 PUSH2 0xB7A JUMP JUMPDEST LT ISZERO PUSH2 0x1407 JUMPI PUSH1 0x40 MLOAD PUSH32 0x8C379A000000000000000000000000000000000000000000000000000000000 DUP2 MSTORE PUSH1 0x4 ADD PUSH2 0x13FE SWAP1 PUSH2 0x23B3 JUMP JUMPDEST PUSH1 0x40 MLOAD DUP1 SWAP2 SUB SWAP1 REVERT JUMPDEST PUSH1 0x4 PUSH0 SWAP1 SLOAD SWAP1 PUSH2 0x100 EXP SWAP1 DIV PUSH20 0xFFFFFFFFFFFFFFFFFFFFFFFFFFFFFFFFFFFFFFFF AND PUSH20 0xFFFFFFFFFFFFFFFFFFFFFFFFFFFFFFFFFFFFFFFF AND PUSH4 0xA9059CBB CALLER DUP4 PUSH1 0x40 MLOAD DUP4 PUSH4 0xFFFFFFFF AND PUSH1 0xE0 SHL DUP2 MSTORE PUSH1 0x4 ADD PUSH2 0x1463 SWAP3 SWAP2 SWAP1 PUSH2 0x1D2C JUMP JUMPDEST PUSH1 0x20 PUSH1 0x40 MLOAD DUP1 DUP4 SUB DUP2 PUSH0 DUP8 GAS CALL ISZERO DUP1 ISZERO PUSH2 0x147F JUMPI RETURNDATASIZE PUSH0 DUP1 RETURNDATACOPY RETURNDATASIZE PUSH0 REVERT JUMPDEST POP POP POP POP PUSH1 0x40 MLOAD RETURNDATASIZE PUSH1 0x1F NOT PUSH1 0x1F DUP3 ADD AND DUP3 ADD DUP1 PUSH1 0x40 MSTORE POP DUP2 ADD SWAP1 PUSH2 0x14A3 SWAP2 SWAP1 PUSH2 0x1D8C JUMP JUMPDEST POP PUSH1 0x4 PUSH0 SWAP1 SLOAD SWAP1 PUSH2 0x100 EXP SWAP1 DIV PUSH20 0xFFFFFFFFFFFFFFFFFFFFFFFFFFFFFFFFFFFFFFFF AND PUSH20 0xFFFFFFFFFFFFFFFFFFFFFFFFFFFFFFFFFFFFFFFF AND PUSH4 0xA9059CBB PUSH2 0x14E9 PUSH2 0x154C JUMP JUMPDEST DUP4 PUSH1 0x40 MLOAD DUP4 PUSH4 0xFFFFFFFF AND PUSH1 0xE0 SHL DUP2 MSTORE PUSH1 0x4 ADD PUSH2 0x1507 SWAP3 SWAP2 SWAP1 PUSH2 0x1D2C JUMP JUMPDEST PUSH1 0x20 PUSH1 0x40 MLOAD DUP1 DUP4 SUB DUP2 PUSH0 DUP8 GAS CALL ISZERO DUP1 ISZERO PUSH2 0x1523 JUMPI RETURNDATASIZE PUSH0 DUP1 RETURNDATACOPY RETURNDATASIZE PUSH0 REVERT JUMPDEST POP POP POP POP PUSH1 0x40 MLOAD RETURNDATASIZE PUSH1 0x1F NOT PUSH1 0x1F DUP3 ADD AND DUP3 ADD DUP1 PUSH1 0x40 MSTORE POP DUP2 ADD SWAP1 PUSH2 0x1547 SWAP2 SWAP1 PUSH2 0x1D8C JUMP JUMPDEST POP POP POP JUMP JUMPDEST PUSH0 DUP1 PUSH0 SWAP1 SLOAD SWAP1 PUSH2 0x100 EXP SWAP1 DIV PUSH20 0xFFFFFFFFFFFFFFFFFFFFFFFFFFFFFFFFFFFFFFFF AND SWAP1 POP SWAP1 JUMP JUMPDEST PUSH1 0xC SLOAD DUP2 JUMP JUMPDEST PUSH0 PUSH1 0x4 PUSH0 SWAP1 SLOAD SWAP1 PUSH2 0x100 EXP SWAP1 DIV PUSH20 0xFFFFFFFFFFFFFFFFFFFFFFFFFFFFFFFFFFFFFFFF AND PUSH20 0xFFFFFFFFFFFFFFFFFFFFFFFFFFFFFFFFFFFFFFFF AND PUSH4 0x70A08231 DUP4 PUSH1 0x40 MLOAD DUP3 PUSH4 0xFFFFFFFF AND PUSH1 0xE0 SHL DUP2 MSTORE PUSH1 0x4 ADD PUSH2 0x15D4 SWAP2 SWAP1 PUSH2 0x1F7E JUMP JUMPDEST PUSH1 0x20 PUSH1 0x40 MLOAD DUP1 DUP4 SUB DUP2 DUP7 GAS STATICCALL ISZERO DUP1 ISZERO PUSH2 0x15EF JUMPI RETURNDATASIZE PUSH0 DUP1 RETURNDATACOPY RETURNDATASIZE PUSH0 REVERT JUMPDEST POP POP POP POP PUSH1 0x40 MLOAD RETURNDATASIZE PUSH1 0x1F NOT PUSH1 0x1F DUP3 ADD AND DUP3 ADD DUP1 PUSH1 0x40 MSTORE POP DUP2 ADD SWAP1 PUSH2 0x1613 SWAP2 SWAP1 PUSH2 0x2080 JUMP JUMPDEST SWAP1 POP SWAP2 SWAP1 POP JUMP JUMPDEST PUSH1 0x5 PUSH0 SWAP1 SLOAD SWAP1 PUSH2 0x100 EXP SWAP1 DIV PUSH20 0xFFFFFFFFFFFFFFFFFFFFFFFFFFFFFFFFFFFFFFFF AND DUP2 JUMP JUMPDEST PUSH2 0x1647 PUSH2 0x1808 JUMP JUMPDEST PUSH1 0x4 PUSH0 SWAP1 SLOAD SWAP1 PUSH2 0x100 EXP SWAP1 DIV PUSH20 0xFFFFFFFFFFFFFFFFFFFFFFFFFFFFFFFFFFFFFFFF AND PUSH20 0xFFFFFFFFFFFFFFFFFFFFFFFFFFFFFFFFFFFFFFFF AND PUSH4 0x40C10F19 DUP4 DUP4 PUSH1 0x40 MLOAD DUP4 PUSH4 0xFFFFFFFF AND PUSH1 0xE0 SHL DUP2 MSTORE PUSH1 0x4 ADD PUSH2 0x16A3 SWAP3 SWAP2 SWAP1 PUSH2 0x1D2C JUMP JUMPDEST PUSH0 PUSH1 0x40 MLOAD DUP1 DUP4 SUB DUP2 PUSH0 DUP8 DUP1 EXTCODESIZE ISZERO DUP1 ISZERO PUSH2 0x16BA JUMPI PUSH0 DUP1 REVERT JUMPDEST POP GAS CALL ISZERO DUP1 ISZERO PUSH2 0x16CC JUMPI RETURNDATASIZE PUSH0 DUP1 RETURNDATACOPY RETURNDATASIZE PUSH0 REVERT JUMPDEST POP POP POP POP PUSH32 0xA4EBE90A5BC8E90165B9ECE0E42B4B2AA829D8F1E5E72B2CA291F65489488A39 DUP3 DUP3 PUSH1 0x40 MLOAD PUSH2 0x1701 SWAP3 SWAP2 SWAP1 PUSH2 0x1D2C JUMP JUMPDEST PUSH1 0x40 MLOAD DUP1 SWAP2 SUB SWAP1 LOG1 POP POP JUMP JUMPDEST PUSH2 0x1715 PUSH2 0x1808 JUMP JUMPDEST PUSH0 PUSH20 0xFFFFFFFFFFFFFFFFFFFFFFFFFFFFFFFFFFFFFFFF AND DUP2 PUSH20 0xFFFFFFFFFFFFFFFFFFFFFFFFFFFFFFFFFFFFFFFF AND SUB PUSH2 0x1785 JUMPI PUSH0 PUSH1 0x40 MLOAD PUSH32 0x1E4FBDF700000000000000000000000000000000000000000000000000000000 DUP2 MSTORE PUSH1 0x4 ADD PUSH2 0x177C SWAP2 SWAP1 PUSH2 0x1F7E JUMP JUMPDEST PUSH1 0x40 MLOAD DUP1 SWAP2 SUB SWAP1 REVERT JUMPDEST PUSH2 0x178E DUP2 PUSH2 0x188F JUMP JUMPDEST POP JUMP JUMPDEST PUSH1 0x4 PUSH0 SWAP1 SLOAD SWAP1 PUSH2 0x100 EXP SWAP1 DIV PUSH20 0xFFFFFFFFFFFFFFFFFFFFFFFFFFFFFFFFFFFFFFFF AND DUP2 JUMP JUMPDEST PUSH0 PUSH1 0x2 PUSH0 DUP4 PUSH20 0xFFFFFFFFFFFFFFFFFFFFFFFFFFFFFFFFFFFFFFFF AND PUSH20 0xFFFFFFFFFFFFFFFFFFFFFFFFFFFFFFFFFFFFFFFF AND DUP2 MSTORE PUSH1 0x20 ADD SWAP1 DUP2 MSTORE PUSH1 0x20 ADD PUSH0 KECCAK256 PUSH0 SWAP1 SLOAD SWAP1 PUSH2 0x100 EXP SWAP1 DIV PUSH1 0xFF AND SWAP1 POP SWAP2 SWAP1 POP JUMP JUMPDEST PUSH2 0x1810 PUSH2 0x1950 JUMP JUMPDEST PUSH20 0xFFFFFFFFFFFFFFFFFFFFFFFFFFFFFFFFFFFFFFFF AND PUSH2 0x182E PUSH2 0x154C JUMP JUMPDEST PUSH20 0xFFFFFFFFFFFFFFFFFFFFFFFFFFFFFFFFFFFFFFFF AND EQ PUSH2 0x188D JUMPI PUSH2 0x1851 PUSH2 0x1950 JUMP JUMPDEST PUSH1 0x40 MLOAD PUSH32 0x118CDAA700000000000000000000000000000000000000000000000000000000 DUP2 MSTORE PUSH1 0x4 ADD PUSH2 0x1884 SWAP2 SWAP1 PUSH2 0x1F7E JUMP JUMPDEST PUSH1 0x40 MLOAD DUP1 SWAP2 SUB SWAP1 REVERT JUMPDEST JUMP JUMPDEST PUSH0 DUP1 PUSH0 SWAP1 SLOAD SWAP1 PUSH2 0x100 EXP SWAP1 DIV PUSH20 0xFFFFFFFFFFFFFFFFFFFFFFFFFFFFFFFFFFFFFFFF AND SWAP1 POP DUP2 PUSH0 DUP1 PUSH2 0x100 EXP DUP2 SLOAD DUP2 PUSH20 0xFFFFFFFFFFFFFFFFFFFFFFFFFFFFFFFFFFFFFFFF MUL NOT AND SWAP1 DUP4 PUSH20 0xFFFFFFFFFFFFFFFFFFFFFFFFFFFFFFFFFFFFFFFF AND MUL OR SWAP1 SSTORE POP DUP2 PUSH20 0xFFFFFFFFFFFFFFFFFFFFFFFFFFFFFFFFFFFFFFFF AND DUP2 PUSH20 0xFFFFFFFFFFFFFFFFFFFFFFFFFFFFFFFFFFFFFFFF AND PUSH32 0x8BE0079C531659141344CD1FD0A4F28419497F9722A3DAAFE3B4186F6B6457E0 PUSH1 0x40 MLOAD PUSH1 0x40 MLOAD DUP1 SWAP2 SUB SWAP1 LOG3 POP POP JUMP JUMPDEST PUSH0 CALLER SWAP1 POP SWAP1 JUMP JUMPDEST PUSH0 DUP3 DUP3 MSTORE PUSH1 0x20 DUP3 ADD SWAP1 POP SWAP3 SWAP2 POP POP JUMP JUMPDEST PUSH32 0x53656E64657220697320626C61636B6C69737465640000000000000000000000 PUSH0 DUP3 ADD MSTORE POP JUMP JUMPDEST PUSH0 PUSH2 0x199B PUSH1 0x15 DUP4 PUSH2 0x1957 JUMP JUMPDEST SWAP2 POP PUSH2 0x19A6 DUP3 PUSH2 0x1967 JUMP JUMPDEST PUSH1 0x20 DUP3 ADD SWAP1 POP SWAP2 SWAP1 POP JUMP JUMPDEST PUSH0 PUSH1 0x20 DUP3 ADD SWAP1 POP DUP2 DUP2 SUB PUSH0 DUP4 ADD MSTORE PUSH2 0x19C8 DUP2 PUSH2 0x198F JUMP JUMPDEST SWAP1 POP SWAP2 SWAP1 POP JUMP JUMPDEST PUSH0 DUP2 SWAP1 POP SWAP2 SWAP1 POP JUMP JUMPDEST PUSH32 0x4E487B7100000000000000000000000000000000000000000000000000000000 PUSH0 MSTORE PUSH1 0x11 PUSH1 0x4 MSTORE PUSH1 0x24 PUSH0 REVERT JUMPDEST PUSH0 PUSH2 0x1A0F DUP3 PUSH2 0x19CF JUMP JUMPDEST SWAP2 POP PUSH2 0x1A1A DUP4 PUSH2 0x19CF JUMP JUMPDEST SWAP3 POP DUP3 DUP3 ADD SWAP1 POP DUP1 DUP3 GT ISZERO PUSH2 0x1A32 JUMPI PUSH2 0x1A31 PUSH2 0x19D8 JUMP JUMPDEST JUMPDEST SWAP3 SWAP2 POP POP JUMP JUMPDEST PUSH32 0x53616C65206973206E6F74206163746976650000000000000000000000000000 PUSH0 DUP3 ADD MSTORE POP JUMP JUMPDEST PUSH0 PUSH2 0x1A6C PUSH1 0x12 DUP4 PUSH2 0x1957 JUMP JUMPDEST SWAP2 POP PUSH2 0x1A77 DUP3 PUSH2 0x1A38 JUMP JUMPDEST PUSH1 0x20 DUP3 ADD SWAP1 POP SWAP2 SWAP1 POP JUMP JUMPDEST PUSH0 PUSH1 0x20 DUP3 ADD SWAP1 POP DUP2 DUP2 SUB PUSH0 DUP4 ADD MSTORE PUSH2 0x1A99 DUP2 PUSH2 0x1A60 JUMP JUMPDEST SWAP1 POP SWAP2 SWAP1 POP JUMP JUMPDEST PUSH32 0x4E487B7100000000000000000000000000000000000000000000000000000000 PUSH0 MSTORE PUSH1 0x12 PUSH1 0x4 MSTORE PUSH1 0x24 PUSH0 REVERT JUMPDEST PUSH0 PUSH2 0x1AD7 DUP3 PUSH2 0x19CF JUMP JUMPDEST SWAP2 POP PUSH2 0x1AE2 DUP4 PUSH2 0x19CF JUMP JUMPDEST SWAP3 POP DUP3 PUSH2 0x1AF2 JUMPI PUSH2 0x1AF1 PUSH2 0x1AA0 JUMP JUMPDEST JUMPDEST DUP3 DUP3 DIV SWAP1 POP SWAP3 SWAP2 POP POP JUMP JUMPDEST PUSH0 PUSH2 0x1B07 DUP3 PUSH2 0x19CF JUMP JUMPDEST SWAP2 POP PUSH2 0x1B12 DUP4 PUSH2 0x19CF JUMP JUMPDEST SWAP3 POP DUP3 DUP3 MUL PUSH2 0x1B20 DUP2 PUSH2 0x19CF JUMP JUMPDEST SWAP2 POP DUP3 DUP3 DIV DUP5 EQ DUP4 ISZERO OR PUSH2 0x1B37 JUMPI PUSH2 0x1B36 PUSH2 0x19D8 JUMP JUMPDEST JUMPDEST POP SWAP3 SWAP2 POP POP JUMP JUMPDEST PUSH32 0x6E6F7420656E6F7567682066756E647321000000000000000000000000000000 PUSH0 DUP3 ADD MSTORE POP JUMP JUMPDEST PUSH0 PUSH2 0x1B72 PUSH1 0x11 DUP4 PUSH2 0x1957 JUMP JUMPDEST SWAP2 POP PUSH2 0x1B7D DUP3 PUSH2 0x1B3E JUMP JUMPDEST PUSH1 0x20 DUP3 ADD SWAP1 POP SWAP2 SWAP1 POP JUMP JUMPDEST PUSH0 PUSH1 0x20 DUP3 ADD SWAP1 POP DUP2 DUP2 SUB PUSH0 DUP4 ADD MSTORE PUSH2 0x1B9F DUP2 PUSH2 0x1B66 JUMP JUMPDEST SWAP1 POP SWAP2 SWAP1 POP JUMP JUMPDEST PUSH32 0x4E6F206D6F726520746F6B656E7320617661696C61626C650000000000000000 PUSH0 DUP3 ADD MSTORE POP JUMP JUMPDEST PUSH0 PUSH2 0x1BDA PUSH1 0x18 DUP4 PUSH2 0x1957 JUMP JUMPDEST SWAP2 POP PUSH2 0x1BE5 DUP3 PUSH2 0x1BA6 JUMP JUMPDEST PUSH1 0x20 DUP3 ADD SWAP1 POP SWAP2 SWAP1 POP JUMP JUMPDEST PUSH0 PUSH1 0x20 DUP3 ADD SWAP1 POP DUP2 DUP2 SUB PUSH0 DUP4 ADD MSTORE PUSH2 0x1C07 DUP2 PUSH2 0x1BCE JUMP JUMPDEST SWAP1 POP SWAP2 SWAP1 POP JUMP JUMPDEST PUSH32 0x536F6C64206F7574210000000000000000000000000000000000000000000000 PUSH0 DUP3 ADD MSTORE POP JUMP JUMPDEST PUSH0 PUSH2 0x1C42 PUSH1 0x9 DUP4 PUSH2 0x1957 JUMP JUMPDEST SWAP2 POP PUSH2 0x1C4D DUP3 PUSH2 0x1C0E JUMP JUMPDEST PUSH1 0x20 DUP3 ADD SWAP1 POP SWAP2 SWAP1 POP JUMP JUMPDEST PUSH0 PUSH1 0x20 DUP3 ADD SWAP1 POP DUP2 DUP2 SUB PUSH0 DUP4 ADD MSTORE PUSH2 0x1C6F DUP2 PUSH2 0x1C36 JUMP JUMPDEST SWAP1 POP SWAP2 SWAP1 POP JUMP JUMPDEST PUSH32 0x416C6C6F7765642035306B20746F6B656E73207065722077616C6C6574000000 PUSH0 DUP3 ADD MSTORE POP JUMP JUMPDEST PUSH0 PUSH2 0x1CAA PUSH1 0x1D DUP4 PUSH2 0x1957 JUMP JUMPDEST SWAP2 POP PUSH2 0x1CB5 DUP3 PUSH2 0x1C76 JUMP JUMPDEST PUSH1 0x20 DUP3 ADD SWAP1 POP SWAP2 SWAP1 POP JUMP JUMPDEST PUSH0 PUSH1 0x20 DUP3 ADD SWAP1 POP DUP2 DUP2 SUB PUSH0 DUP4 ADD MSTORE PUSH2 0x1CD7 DUP2 PUSH2 0x1C9E JUMP JUMPDEST SWAP1 POP SWAP2 SWAP1 POP JUMP JUMPDEST PUSH0 PUSH20 0xFFFFFFFFFFFFFFFFFFFFFFFFFFFFFFFFFFFFFFFF DUP3 AND SWAP1 POP SWAP2 SWAP1 POP JUMP JUMPDEST PUSH0 PUSH2 0x1D07 DUP3 PUSH2 0x1CDE JUMP JUMPDEST SWAP1 POP SWAP2 SWAP1 POP JUMP JUMPDEST PUSH2 0x1D17 DUP2 PUSH2 0x1CFD JUMP JUMPDEST DUP3 MSTORE POP POP JUMP JUMPDEST PUSH2 0x1D26 DUP2 PUSH2 0x19CF JUMP JUMPDEST DUP3 MSTORE POP POP JUMP JUMPDEST PUSH0 PUSH1 0x40 DUP3 ADD SWAP1 POP PUSH2 0x1D3F PUSH0 DUP4 ADD DUP6 PUSH2 0x1D0E JUMP JUMPDEST PUSH2 0x1D4C PUSH1 0x20 DUP4 ADD DUP5 PUSH2 0x1D1D JUMP JUMPDEST SWAP4 SWAP3 POP POP POP JUMP JUMPDEST PUSH0 DUP1 REVERT JUMPDEST PUSH0 DUP2 ISZERO ISZERO SWAP1 POP SWAP2 SWAP1 POP JUMP JUMPDEST PUSH2 0x1D6B DUP2 PUSH2 0x1D57 JUMP JUMPDEST DUP2 EQ PUSH2 0x1D75 JUMPI PUSH0 DUP1 REVERT JUMPDEST POP JUMP JUMPDEST PUSH0 DUP2 MLOAD SWAP1 POP PUSH2 0x1D86 DUP2 PUSH2 0x1D62 JUMP JUMPDEST SWAP3 SWAP2 POP POP JUMP JUMPDEST PUSH0 PUSH1 0x20 DUP3 DUP5 SUB SLT ISZERO PUSH2 0x1DA1 JUMPI PUSH2 0x1DA0 PUSH2 0x1D53 JUMP JUMPDEST JUMPDEST PUSH0 PUSH2 0x1DAE DUP5 DUP3 DUP6 ADD PUSH2 0x1D78 JUMP JUMPDEST SWAP2 POP POP SWAP3 SWAP2 POP POP JUMP JUMPDEST PUSH0 PUSH2 0x1DC1 DUP3 PUSH2 0x19CF JUMP JUMPDEST SWAP2 POP PUSH2 0x1DCC DUP4 PUSH2 0x19CF JUMP JUMPDEST SWAP3 POP DUP3 DUP3 SUB SWAP1 POP DUP2 DUP2 GT ISZERO PUSH2 0x1DE4 JUMPI PUSH2 0x1DE3 PUSH2 0x19D8 JUMP JUMPDEST JUMPDEST SWAP3 SWAP2 POP POP JUMP JUMPDEST PUSH0 PUSH1 0x20 DUP3 ADD SWAP1 POP PUSH2 0x1DFD PUSH0 DUP4 ADD DUP5 PUSH2 0x1D1D JUMP JUMPDEST SWAP3 SWAP2 POP POP JUMP JUMPDEST PUSH2 0x1E0C DUP2 PUSH2 0x1CFD JUMP JUMPDEST DUP2 EQ PUSH2 0x1E16 JUMPI PUSH0 DUP1 REVERT JUMPDEST POP JUMP JUMPDEST PUSH0 DUP2 CALLDATALOAD SWAP1 POP PUSH2 0x1E27 DUP2 PUSH2 0x1E03 JUMP JUMPDEST SWAP3 SWAP2 POP POP JUMP JUMPDEST PUSH2 0x1E36 DUP2 PUSH2 0x19CF JUMP JUMPDEST DUP2 EQ PUSH2 0x1E40 JUMPI PUSH0 DUP1 REVERT JUMPDEST POP JUMP JUMPDEST PUSH0 DUP2 CALLDATALOAD SWAP1 POP PUSH2 0x1E51 DUP2 PUSH2 0x1E2D JUMP JUMPDEST SWAP3 SWAP2 POP POP JUMP JUMPDEST PUSH0 DUP1 PUSH1 0x40 DUP4 DUP6 SUB SLT ISZERO PUSH2 0x1E6D JUMPI PUSH2 0x1E6C PUSH2 0x1D53 JUMP JUMPDEST JUMPDEST PUSH0 PUSH2 0x1E7A DUP6 DUP3 DUP7 ADD PUSH2 0x1E19 JUMP JUMPDEST SWAP3 POP POP PUSH1 0x20 PUSH2 0x1E8B DUP6 DUP3 DUP7 ADD PUSH2 0x1E43 JUMP JUMPDEST SWAP2 POP POP SWAP3 POP SWAP3 SWAP1 POP JUMP JUMPDEST PUSH0 PUSH1 0x20 DUP3 DUP5 SUB SLT ISZERO PUSH2 0x1EAA JUMPI PUSH2 0x1EA9 PUSH2 0x1D53 JUMP JUMPDEST JUMPDEST PUSH0 PUSH2 0x1EB7 DUP5 DUP3 DUP6 ADD PUSH2 0x1E43 JUMP JUMPDEST SWAP2 POP POP SWAP3 SWAP2 POP POP JUMP JUMPDEST PUSH0 PUSH1 0x20 DUP3 DUP5 SUB SLT ISZERO PUSH2 0x1ED5 JUMPI PUSH2 0x1ED4 PUSH2 0x1D53 JUMP JUMPDEST JUMPDEST PUSH0 PUSH2 0x1EE2 DUP5 DUP3 DUP6 ADD PUSH2 0x1E19 JUMP JUMPDEST SWAP2 POP POP SWAP3 SWAP2 POP POP JUMP JUMPDEST PUSH0 DUP2 SWAP1 POP SWAP2 SWAP1 POP JUMP JUMPDEST PUSH2 0x1EFD DUP2 PUSH2 0x1EEB JUMP JUMPDEST DUP3 MSTORE POP POP JUMP JUMPDEST PUSH0 PUSH1 0x20 DUP3 ADD SWAP1 POP PUSH2 0x1F16 PUSH0 DUP4 ADD DUP5 PUSH2 0x1EF4 JUMP JUMPDEST SWAP3 SWAP2 POP POP JUMP JUMPDEST PUSH0 PUSH2 0xFFFF DUP3 AND SWAP1 POP SWAP2 SWAP1 POP JUMP JUMPDEST PUSH2 0x1F32 DUP2 PUSH2 0x1F1C JUMP JUMPDEST DUP2 EQ PUSH2 0x1F3C JUMPI PUSH0 DUP1 REVERT JUMPDEST POP JUMP JUMPDEST PUSH0 DUP2 CALLDATALOAD SWAP1 POP PUSH2 0x1F4D DUP2 PUSH2 0x1F29 JUMP JUMPDEST SWAP3 SWAP2 POP POP JUMP JUMPDEST PUSH0 PUSH1 0x20 DUP3 DUP5 SUB SLT ISZERO PUSH2 0x1F68 JUMPI PUSH2 0x1F67 PUSH2 0x1D53 JUMP JUMPDEST JUMPDEST PUSH0 PUSH2 0x1F75 DUP5 DUP3 DUP6 ADD PUSH2 0x1F3F JUMP JUMPDEST SWAP2 POP POP SWAP3 SWAP2 POP POP JUMP JUMPDEST PUSH0 PUSH1 0x20 DUP3 ADD SWAP1 POP PUSH2 0x1F91 PUSH0 DUP4 ADD DUP5 PUSH2 0x1D0E JUMP JUMPDEST SWAP3 SWAP2 POP POP JUMP JUMPDEST PUSH0 DUP2 SWAP1 POP SWAP2 SWAP1 POP JUMP JUMPDEST PUSH0 PUSH2 0x1FBA PUSH2 0x1FB5 PUSH2 0x1FB0 DUP5 PUSH2 0x1CDE JUMP JUMPDEST PUSH2 0x1F97 JUMP JUMPDEST PUSH2 0x1CDE JUMP JUMPDEST SWAP1 POP SWAP2 SWAP1 POP JUMP JUMPDEST PUSH0 PUSH2 0x1FCB DUP3 PUSH2 0x1FA0 JUMP JUMPDEST SWAP1 POP SWAP2 SWAP1 POP JUMP JUMPDEST PUSH0 PUSH2 0x1FDC DUP3 PUSH2 0x1FC1 JUMP JUMPDEST SWAP1 POP SWAP2 SWAP1 POP JUMP JUMPDEST PUSH2 0x1FEC DUP2 PUSH2 0x1FD2 JUMP JUMPDEST DUP3 MSTORE POP POP JUMP JUMPDEST PUSH0 PUSH1 0x20 DUP3 ADD SWAP1 POP PUSH2 0x2005 PUSH0 DUP4 ADD DUP5 PUSH2 0x1FE3 JUMP JUMPDEST SWAP3 SWAP2 POP POP JUMP JUMPDEST PUSH0 PUSH2 0x2015 DUP3 PUSH2 0x1FC1 JUMP JUMPDEST SWAP1 POP SWAP2 SWAP1 POP JUMP JUMPDEST PUSH2 0x2025 DUP2 PUSH2 0x200B JUMP JUMPDEST DUP3 MSTORE POP POP JUMP JUMPDEST PUSH0 PUSH1 0x20 DUP3 ADD SWAP1 POP PUSH2 0x203E PUSH0 DUP4 ADD DUP5 PUSH2 0x201C JUMP JUMPDEST SWAP3 SWAP2 POP POP JUMP JUMPDEST PUSH2 0x204D DUP2 PUSH2 0x1D57 JUMP JUMPDEST DUP3 MSTORE POP POP JUMP JUMPDEST PUSH0 PUSH1 0x20 DUP3 ADD SWAP1 POP PUSH2 0x2066 PUSH0 DUP4 ADD DUP5 PUSH2 0x2044 JUMP JUMPDEST SWAP3 SWAP2 POP POP JUMP JUMPDEST PUSH0 DUP2 MLOAD SWAP1 POP PUSH2 0x207A DUP2 PUSH2 0x1E2D JUMP JUMPDEST SWAP3 SWAP2 POP POP JUMP JUMPDEST PUSH0 PUSH1 0x20 DUP3 DUP5 SUB SLT ISZERO PUSH2 0x2095 JUMPI PUSH2 0x2094 PUSH2 0x1D53 JUMP JUMPDEST JUMPDEST PUSH0 PUSH2 0x20A2 DUP5 DUP3 DUP6 ADD PUSH2 0x206C JUMP JUMPDEST SWAP2 POP POP SWAP3 SWAP2 POP POP JUMP JUMPDEST PUSH32 0x4275726E696E67206D6F7265207468616E20706F737369626C65000000000000 PUSH0 DUP3 ADD MSTORE POP JUMP JUMPDEST PUSH0 PUSH2 0x20DF PUSH1 0x1A DUP4 PUSH2 0x1957 JUMP JUMPDEST SWAP2 POP PUSH2 0x20EA DUP3 PUSH2 0x20AB JUMP JUMPDEST PUSH1 0x20 DUP3 ADD SWAP1 POP SWAP2 SWAP1 POP JUMP JUMPDEST PUSH0 PUSH1 0x20 DUP3 ADD SWAP1 POP DUP2 DUP2 SUB PUSH0 DUP4 ADD MSTORE PUSH2 0x210C DUP2 PUSH2 0x20D3 JUMP JUMPDEST SWAP1 POP SWAP2 SWAP1 POP JUMP JUMPDEST PUSH0 PUSH10 0xFFFFFFFFFFFFFFFFFFFF DUP3 AND SWAP1 POP SWAP2 SWAP1 POP JUMP JUMPDEST PUSH2 0x2131 DUP2 PUSH2 0x2113 JUMP JUMPDEST DUP2 EQ PUSH2 0x213B JUMPI PUSH0 DUP1 REVERT JUMPDEST POP JUMP JUMPDEST PUSH0 DUP2 MLOAD SWAP1 POP PUSH2 0x214C DUP2 PUSH2 0x2128 JUMP JUMPDEST SWAP3 SWAP2 POP POP JUMP JUMPDEST PUSH2 0x215B DUP2 PUSH2 0x1EEB JUMP JUMPDEST DUP2 EQ PUSH2 0x2165 JUMPI PUSH0 DUP1 REVERT JUMPDEST POP JUMP JUMPDEST PUSH0 DUP2 MLOAD SWAP1 POP PUSH2 0x2176 DUP2 PUSH2 0x2152 JUMP JUMPDEST SWAP3 SWAP2 POP POP JUMP JUMPDEST PUSH0 DUP1 PUSH0 DUP1 PUSH0 PUSH1 0xA0 DUP7 DUP9 SUB SLT ISZERO PUSH2 0x2195 JUMPI PUSH2 0x2194 PUSH2 0x1D53 JUMP JUMPDEST JUMPDEST PUSH0 PUSH2 0x21A2 DUP9 DUP3 DUP10 ADD PUSH2 0x213E JUMP JUMPDEST SWAP6 POP POP PUSH1 0x20 PUSH2 0x21B3 DUP9 DUP3 DUP10 ADD PUSH2 0x2168 JUMP JUMPDEST SWAP5 POP POP PUSH1 0x40 PUSH2 0x21C4 DUP9 DUP3 DUP10 ADD PUSH2 0x206C JUMP JUMPDEST SWAP4 POP POP PUSH1 0x60 PUSH2 0x21D5 DUP9 DUP3 DUP10 ADD PUSH2 0x206C JUMP JUMPDEST SWAP3 POP POP PUSH1 0x80 PUSH2 0x21E6 DUP9 DUP3 DUP10 ADD PUSH2 0x213E JUMP JUMPDEST SWAP2 POP POP SWAP3 SWAP6 POP SWAP3 SWAP6 SWAP1 SWAP4 POP JUMP JUMPDEST PUSH32 0x4E6F7420656E6F75676820746F6B656E73000000000000000000000000000000 PUSH0 DUP3 ADD MSTORE POP JUMP JUMPDEST PUSH0 PUSH2 0x2227 PUSH1 0x11 DUP4 PUSH2 0x1957 JUMP JUMPDEST SWAP2 POP PUSH2 0x2232 DUP3 PUSH2 0x21F3 JUMP JUMPDEST PUSH1 0x20 DUP3 ADD SWAP1 POP SWAP2 SWAP1 POP JUMP JUMPDEST PUSH0 PUSH1 0x20 DUP3 ADD SWAP1 POP DUP2 DUP2 SUB PUSH0 DUP4 ADD MSTORE PUSH2 0x2254 DUP2 PUSH2 0x221B JUMP JUMPDEST SWAP1 POP SWAP2 SWAP1 POP JUMP JUMPDEST PUSH0 PUSH3 0xFFFFFF DUP3 AND SWAP1 POP SWAP2 SWAP1 POP JUMP JUMPDEST PUSH0 PUSH2 0x2273 DUP3 PUSH2 0x225B JUMP JUMPDEST SWAP2 POP PUSH2 0x227E DUP4 PUSH2 0x225B JUMP JUMPDEST SWAP3 POP DUP3 DUP3 MUL PUSH2 0x228C DUP2 PUSH2 0x225B JUMP JUMPDEST SWAP2 POP DUP1 DUP3 EQ PUSH2 0x229E JUMPI PUSH2 0x229D PUSH2 0x19D8 JUMP JUMPDEST JUMPDEST POP SWAP3 SWAP2 POP POP JUMP JUMPDEST PUSH0 PUSH1 0x40 DUP3 ADD SWAP1 POP PUSH2 0x22B8 PUSH0 DUP4 ADD DUP6 PUSH2 0x1D0E JUMP JUMPDEST PUSH2 0x22C5 PUSH1 0x20 DUP4 ADD DUP5 PUSH2 0x1D0E JUMP JUMPDEST SWAP4 SWAP3 POP POP POP JUMP JUMPDEST PUSH32 0x416C6C6F77616E636520746F6F206C6F77000000000000000000000000000000 PUSH0 DUP3 ADD MSTORE POP JUMP JUMPDEST PUSH0 PUSH2 0x2300 PUSH1 0x11 DUP4 PUSH2 0x1957 JUMP JUMPDEST SWAP2 POP PUSH2 0x230B DUP3 PUSH2 0x22CC JUMP JUMPDEST PUSH1 0x20 DUP3 ADD SWAP1 POP SWAP2 SWAP1 POP JUMP JUMPDEST PUSH0 PUSH1 0x20 DUP3 ADD SWAP1 POP DUP2 DUP2 SUB PUSH0 DUP4 ADD MSTORE PUSH2 0x232D DUP2 PUSH2 0x22F4 JUMP JUMPDEST SWAP1 POP SWAP2 SWAP1 POP JUMP JUMPDEST PUSH0 PUSH1 0x60 DUP3 ADD SWAP1 POP PUSH2 0x2347 PUSH0 DUP4 ADD DUP7 PUSH2 0x1D0E JUMP JUMPDEST PUSH2 0x2354 PUSH1 0x20 DUP4 ADD DUP6 PUSH2 0x1D0E JUMP JUMPDEST PUSH2 0x2361 PUSH1 0x40 DUP4 ADD DUP5 PUSH2 0x1D1D JUMP JUMPDEST SWAP5 SWAP4 POP POP POP POP JUMP JUMPDEST PUSH32 0x4E6F7420656E6F75676820746F6B656E7320617661696C61626C650000000000 PUSH0 DUP3 ADD MSTORE POP JUMP JUMPDEST PUSH0 PUSH2 0x239D PUSH1 0x1B DUP4 PUSH2 0x1957 JUMP JUMPDEST SWAP2 POP PUSH2 0x23A8 DUP3 PUSH2 0x2369 JUMP JUMPDEST PUSH1 0x20 DUP3 ADD SWAP1 POP SWAP2 SWAP1 POP JUMP JUMPDEST PUSH0 PUSH1 0x20 DUP3 ADD SWAP1 POP DUP2 DUP2 SUB PUSH0 DUP4 ADD MSTORE PUSH2 0x23CA DUP2 PUSH2 0x2391 JUMP JUMPDEST SWAP1 POP SWAP2 SWAP1 POP JUMP INVALID LOG2 PUSH5 0x6970667358 0x22 SLT KECCAK256 0xCE SHL SWAP5 MCOPY 0x1F GAS 0xD9 PUSH15 0xE8D2C85B74BFC7638E57327EB6DEF9 SWAP8 EXTCODEHASH 0xF6 DUP7 CALL MOD CALLVALUE PUSH12 0x3464736F6C63430008190033 PUSH1 0x80 PUSH1 0x40 MSTORE CALLVALUE DUP1 ISZERO PUSH2 0xF JUMPI PUSH0 DUP1 REVERT JUMPDEST POP PUSH1 0x40 MLOAD PUSH2 0x1DC5 CODESIZE SUB DUP1 PUSH2 0x1DC5 DUP4 CODECOPY DUP2 DUP2 ADD PUSH1 0x40 MSTORE DUP2 ADD SWAP1 PUSH2 0x31 SWAP2 SWAP1 PUSH2 0x545 JUMP JUMPDEST DUP1 PUSH1 0x40 MLOAD DUP1 PUSH1 0x40 ADD PUSH1 0x40 MSTORE DUP1 PUSH1 0xB DUP2 MSTORE PUSH1 0x20 ADD PUSH32 0x536F6C617220477265656E000000000000000000000000000000000000000000 DUP2 MSTORE POP PUSH1 0x40 MLOAD DUP1 PUSH1 0x40 ADD PUSH1 0x40 MSTORE DUP1 PUSH1 0x3 DUP2 MSTORE PUSH1 0x20 ADD PUSH32 0x5347520000000000000000000000000000000000000000000000000000000000 DUP2 MSTORE POP DUP2 PUSH1 0x3 SWAP1 DUP2 PUSH2 0xAD SWAP2 SWAP1 PUSH2 0x7AA JUMP JUMPDEST POP DUP1 PUSH1 0x4 SWAP1 DUP2 PUSH2 0xBD SWAP2 SWAP1 PUSH2 0x7AA JUMP JUMPDEST POP POP POP PUSH0 PUSH20 0xFFFFFFFFFFFFFFFFFFFFFFFFFFFFFFFFFFFFFFFF AND DUP2 PUSH20 0xFFFFFFFFFFFFFFFFFFFFFFFFFFFFFFFFFFFFFFFF AND SUB PUSH2 0x130 JUMPI PUSH0 PUSH1 0x40 MLOAD PUSH32 0x1E4FBDF700000000000000000000000000000000000000000000000000000000 DUP2 MSTORE PUSH1 0x4 ADD PUSH2 0x127 SWAP2 SWAP1 PUSH2 0x888 JUMP JUMPDEST PUSH1 0x40 MLOAD DUP1 SWAP2 SUB SWAP1 REVERT JUMPDEST PUSH2 0x13F DUP2 PUSH2 0x17E PUSH1 0x20 SHL PUSH1 0x20 SHR JUMP JUMPDEST POP PUSH2 0x178 DUP2 PUSH2 0x152 PUSH2 0x241 PUSH1 0x20 SHL PUSH1 0x20 SHR JUMP JUMPDEST PUSH1 0xA PUSH2 0x15E SWAP2 SWAP1 PUSH2 0xA09 JUMP JUMPDEST PUSH4 0x5F5E100 PUSH2 0x16D SWAP2 SWAP1 PUSH2 0xA53 JUMP JUMPDEST PUSH2 0x249 PUSH1 0x20 SHL PUSH1 0x20 SHR JUMP JUMPDEST POP PUSH2 0xB24 JUMP JUMPDEST PUSH0 PUSH1 0x5 PUSH0 SWAP1 SLOAD SWAP1 PUSH2 0x100 EXP SWAP1 DIV PUSH20 0xFFFFFFFFFFFFFFFFFFFFFFFFFFFFFFFFFFFFFFFF AND SWAP1 POP DUP2 PUSH1 0x5 PUSH0 PUSH2 0x100 EXP DUP2 SLOAD DUP2 PUSH20 0xFFFFFFFFFFFFFFFFFFFFFFFFFFFFFFFFFFFFFFFF MUL NOT AND SWAP1 DUP4 PUSH20 0xFFFFFFFFFFFFFFFFFFFFFFFFFFFFFFFFFFFFFFFF AND MUL OR SWAP1 SSTORE POP DUP2 PUSH20 0xFFFFFFFFFFFFFFFFFFFFFFFFFFFFFFFFFFFFFFFF AND DUP2 PUSH20 0xFFFFFFFFFFFFFFFFFFFFFFFFFFFFFFFFFFFFFFFF AND PUSH32 0x8BE0079C531659141344CD1FD0A4F28419497F9722A3DAAFE3B4186F6B6457E0 PUSH1 0x40 MLOAD PUSH1 0x40 MLOAD DUP1 SWAP2 SUB SWAP1 LOG3 POP POP JUMP JUMPDEST PUSH0 PUSH1 0x12 SWAP1 POP SWAP1 JUMP JUMPDEST PUSH0 PUSH20 0xFFFFFFFFFFFFFFFFFFFFFFFFFFFFFFFFFFFFFFFF AND DUP3 PUSH20 0xFFFFFFFFFFFFFFFFFFFFFFFFFFFFFFFFFFFFFFFF AND SUB PUSH2 0x2B9 JUMPI PUSH0 PUSH1 0x40 MLOAD PUSH32 0xEC442F0500000000000000000000000000000000000000000000000000000000 DUP2 MSTORE PUSH1 0x4 ADD PUSH2 0x2B0 SWAP2 SWAP1 PUSH2 0x888 JUMP JUMPDEST PUSH1 0x40 MLOAD DUP1 SWAP2 SUB SWAP1 REVERT JUMPDEST PUSH2 0x2CA PUSH0 DUP4 DUP4 PUSH2 0x2CE PUSH1 0x20 SHL PUSH1 0x20 SHR JUMP JUMPDEST POP POP JUMP JUMPDEST PUSH0 PUSH20 0xFFFFFFFFFFFFFFFFFFFFFFFFFFFFFFFFFFFFFFFF AND DUP4 PUSH20 0xFFFFFFFFFFFFFFFFFFFFFFFFFFFFFFFFFFFFFFFF AND SUB PUSH2 0x31E JUMPI DUP1 PUSH1 0x2 PUSH0 DUP3 DUP3 SLOAD PUSH2 0x312 SWAP2 SWAP1 PUSH2 0xA94 JUMP JUMPDEST SWAP3 POP POP DUP2 SWAP1 SSTORE POP PUSH2 0x3EC JUMP JUMPDEST PUSH0 DUP1 PUSH0 DUP6 PUSH20 0xFFFFFFFFFFFFFFFFFFFFFFFFFFFFFFFFFFFFFFFF AND PUSH20 0xFFFFFFFFFFFFFFFFFFFFFFFFFFFFFFFFFFFFFFFF AND DUP2 MSTORE PUSH1 0x20 ADD SWAP1 DUP2 MSTORE PUSH1 0x20 ADD PUSH0 KECCAK256 SLOAD SWAP1 POP DUP2 DUP2 LT ISZERO PUSH2 0x3A7 JUMPI DUP4 DUP2 DUP4 PUSH1 0x40 MLOAD PUSH32 0xE450D38C00000000000000000000000000000000000000000000000000000000 DUP2 MSTORE PUSH1 0x4 ADD PUSH2 0x39E SWAP4 SWAP3 SWAP2 SWAP1 PUSH2 0xAD6 JUMP JUMPDEST PUSH1 0x40 MLOAD DUP1 SWAP2 SUB SWAP1 REVERT JUMPDEST DUP2 DUP2 SUB PUSH0 DUP1 DUP7 PUSH20 0xFFFFFFFFFFFFFFFFFFFFFFFFFFFFFFFFFFFFFFFF AND PUSH20 0xFFFFFFFFFFFFFFFFFFFFFFFFFFFFFFFFFFFFFFFF AND DUP2 MSTORE PUSH1 0x20 ADD SWAP1 DUP2 MSTORE PUSH1 0x20 ADD PUSH0 KECCAK256 DUP2 SWAP1 SSTORE POP POP JUMPDEST PUSH0 PUSH20 0xFFFFFFFFFFFFFFFFFFFFFFFFFFFFFFFFFFFFFFFF AND DUP3 PUSH20 0xFFFFFFFFFFFFFFFFFFFFFFFFFFFFFFFFFFFFFFFF AND SUB PUSH2 0x433 JUMPI DUP1 PUSH1 0x2 PUSH0 DUP3 DUP3 SLOAD SUB SWAP3 POP POP DUP2 SWAP1 SSTORE POP PUSH2 0x47D JUMP JUMPDEST DUP1 PUSH0 DUP1 DUP5 PUSH20 0xFFFFFFFFFFFFFFFFFFFFFFFFFFFFFFFFFFFFFFFF AND PUSH20 0xFFFFFFFFFFFFFFFFFFFFFFFFFFFFFFFFFFFFFFFF AND DUP2 MSTORE PUSH1 0x20 ADD SWAP1 DUP2 MSTORE PUSH1 0x20 ADD PUSH0 KECCAK256 PUSH0 DUP3 DUP3 SLOAD ADD SWAP3 POP POP DUP2 SWAP1 SSTORE POP JUMPDEST DUP2 PUSH20 0xFFFFFFFFFFFFFFFFFFFFFFFFFFFFFFFFFFFFFFFF AND DUP4 PUSH20 0xFFFFFFFFFFFFFFFFFFFFFFFFFFFFFFFFFFFFFFFF AND PUSH32 0xDDF252AD1BE2C89B69C2B068FC378DAA952BA7F163C4A11628F55A4DF523B3EF DUP4 PUSH1 0x40 MLOAD PUSH2 0x4DA SWAP2 SWAP1 PUSH2 0xB0B JUMP JUMPDEST PUSH1 0x40 MLOAD DUP1 SWAP2 SUB SWAP1 LOG3 POP POP POP JUMP JUMPDEST PUSH0 DUP1 REVERT JUMPDEST PUSH0 PUSH20 0xFFFFFFFFFFFFFFFFFFFFFFFFFFFFFFFFFFFFFFFF DUP3 AND SWAP1 POP SWAP2 SWAP1 POP JUMP JUMPDEST PUSH0 PUSH2 0x514 DUP3 PUSH2 0x4EB JUMP JUMPDEST SWAP1 POP SWAP2 SWAP1 POP JUMP JUMPDEST PUSH2 0x524 DUP2 PUSH2 0x50A JUMP JUMPDEST DUP2 EQ PUSH2 0x52E JUMPI PUSH0 DUP1 REVERT JUMPDEST POP JUMP JUMPDEST PUSH0 DUP2 MLOAD SWAP1 POP PUSH2 0x53F DUP2 PUSH2 0x51B JUMP JUMPDEST SWAP3 SWAP2 POP POP JUMP JUMPDEST PUSH0 PUSH1 0x20 DUP3 DUP5 SUB SLT ISZERO PUSH2 0x55A JUMPI PUSH2 0x559 PUSH2 0x4E7 JUMP JUMPDEST JUMPDEST PUSH0 PUSH2 0x567 DUP5 DUP3 DUP6 ADD PUSH2 0x531 JUMP JUMPDEST SWAP2 POP POP SWAP3 SWAP2 POP POP JUMP JUMPDEST PUSH0 DUP2 MLOAD SWAP1 POP SWAP2 SWAP1 POP JUMP JUMPDEST PUSH32 0x4E487B7100000000000000000000000000000000000000000000000000000000 PUSH0 MSTORE PUSH1 0x41 PUSH1 0x4 MSTORE PUSH1 0x24 PUSH0 REVERT JUMPDEST PUSH32 0x4E487B7100000000000000000000000000000000000000000000000000000000 PUSH0 MSTORE PUSH1 0x22 PUSH1 0x4 MSTORE PUSH1 0x24 PUSH0 REVERT JUMPDEST PUSH0 PUSH1 0x2 DUP3 DIV SWAP1 POP PUSH1 0x1 DUP3 AND DUP1 PUSH2 0x5EB JUMPI PUSH1 0x7F DUP3 AND SWAP2 POP JUMPDEST PUSH1 0x20 DUP3 LT DUP2 SUB PUSH2 0x5FE JUMPI PUSH2 0x5FD PUSH2 0x5A7 JUMP JUMPDEST JUMPDEST POP SWAP2 SWAP1 POP JUMP JUMPDEST PUSH0 DUP2 SWAP1 POP DUP2 PUSH0 MSTORE PUSH1 0x20 PUSH0 KECCAK256 SWAP1 POP SWAP2 SWAP1 POP JUMP JUMPDEST PUSH0 PUSH1 0x20 PUSH1 0x1F DUP4 ADD DIV SWAP1 POP SWAP2 SWAP1 POP JUMP JUMPDEST PUSH0 DUP3 DUP3 SHL SWAP1 POP SWAP3 SWAP2 POP POP JUMP JUMPDEST PUSH0 PUSH1 0x8 DUP4 MUL PUSH2 0x660 PUSH32 0xFFFFFFFFFFFFFFFFFFFFFFFFFFFFFFFFFFFFFFFFFFFFFFFFFFFFFFFFFFFFFFFF DUP3 PUSH2 0x625 JUMP JUMPDEST PUSH2 0x66A DUP7 DUP4 PUSH2 0x625 JUMP JUMPDEST SWAP6 POP DUP1 NOT DUP5 AND SWAP4 POP DUP1 DUP7 AND DUP5 OR SWAP3 POP POP POP SWAP4 SWAP3 POP POP POP JUMP JUMPDEST PUSH0 DUP2 SWAP1 POP SWAP2 SWAP1 POP JUMP JUMPDEST PUSH0 DUP2 SWAP1 POP SWAP2 SWAP1 POP JUMP JUMPDEST PUSH0 PUSH2 0x6AE PUSH2 0x6A9 PUSH2 0x6A4 DUP5 PUSH2 0x682 JUMP JUMPDEST PUSH2 0x68B JUMP JUMPDEST PUSH2 0x682 JUMP JUMPDEST SWAP1 POP SWAP2 SWAP1 POP JUMP JUMPDEST PUSH0 DUP2 SWAP1 POP SWAP2 SWAP1 POP JUMP JUMPDEST PUSH2 0x6C7 DUP4 PUSH2 0x694 JUMP JUMPDEST PUSH2 0x6DB PUSH2 0x6D3 DUP3 PUSH2 0x6B5 JUMP JUMPDEST DUP5 DUP5 SLOAD PUSH2 0x631 JUMP JUMPDEST DUP3 SSTORE POP POP POP POP JUMP JUMPDEST PUSH0 SWAP1 JUMP JUMPDEST PUSH2 0x6EF PUSH2 0x6E3 JUMP JUMPDEST PUSH2 0x6FA DUP2 DUP5 DUP5 PUSH2 0x6BE JUMP JUMPDEST POP POP POP JUMP JUMPDEST JUMPDEST DUP2 DUP2 LT ISZERO PUSH2 0x71D JUMPI PUSH2 0x712 PUSH0 DUP3 PUSH2 0x6E7 JUMP JUMPDEST PUSH1 0x1 DUP2 ADD SWAP1 POP PUSH2 0x700 JUMP JUMPDEST POP POP JUMP JUMPDEST PUSH1 0x1F DUP3 GT ISZERO PUSH2 0x762 JUMPI PUSH2 0x733 DUP2 PUSH2 0x604 JUMP JUMPDEST PUSH2 0x73C DUP5 PUSH2 0x616 JUMP JUMPDEST DUP2 ADD PUSH1 0x20 DUP6 LT ISZERO PUSH2 0x74B JUMPI DUP2 SWAP1 POP JUMPDEST PUSH2 0x75F PUSH2 0x757 DUP6 PUSH2 0x616 JUMP JUMPDEST DUP4 ADD DUP3 PUSH2 0x6FF JUMP JUMPDEST POP POP JUMPDEST POP POP POP JUMP JUMPDEST PUSH0 DUP3 DUP3 SHR SWAP1 POP SWAP3 SWAP2 POP POP JUMP JUMPDEST PUSH0 PUSH2 0x782 PUSH0 NOT DUP5 PUSH1 0x8 MUL PUSH2 0x767 JUMP JUMPDEST NOT DUP1 DUP4 AND SWAP2 POP POP SWAP3 SWAP2 POP POP JUMP JUMPDEST PUSH0 PUSH2 0x79A DUP4 DUP4 PUSH2 0x773 JUMP JUMPDEST SWAP2 POP DUP3 PUSH1 0x2 MUL DUP3 OR SWAP1 POP SWAP3 SWAP2 POP POP JUMP JUMPDEST PUSH2 0x7B3 DUP3 PUSH2 0x570 JUMP JUMPDEST PUSH8 0xFFFFFFFFFFFFFFFF DUP2 GT ISZERO PUSH2 0x7CC JUMPI PUSH2 0x7CB PUSH2 0x57A JUMP JUMPDEST JUMPDEST PUSH2 0x7D6 DUP3 SLOAD PUSH2 0x5D4 JUMP JUMPDEST PUSH2 0x7E1 DUP3 DUP3 DUP6 PUSH2 0x721 JUMP JUMPDEST PUSH0 PUSH1 0x20 SWAP1 POP PUSH1 0x1F DUP4 GT PUSH1 0x1 DUP2 EQ PUSH2 0x812 JUMPI PUSH0 DUP5 ISZERO PUSH2 0x800 JUMPI DUP3 DUP8 ADD MLOAD SWAP1 POP JUMPDEST PUSH2 0x80A DUP6 DUP3 PUSH2 0x78F JUMP JUMPDEST DUP7 SSTORE POP PUSH2 0x871 JUMP JUMPDEST PUSH1 0x1F NOT DUP5 AND PUSH2 0x820 DUP7 PUSH2 0x604 JUMP JUMPDEST PUSH0 JUMPDEST DUP3 DUP2 LT ISZERO PUSH2 0x847 JUMPI DUP5 DUP10 ADD MLOAD DUP3 SSTORE PUSH1 0x1 DUP3 ADD SWAP2 POP PUSH1 0x20 DUP6 ADD SWAP5 POP PUSH1 0x20 DUP2 ADD SWAP1 POP PUSH2 0x822 JUMP JUMPDEST DUP7 DUP4 LT ISZERO PUSH2 0x864 JUMPI DUP5 DUP10 ADD MLOAD PUSH2 0x860 PUSH1 0x1F DUP10 AND DUP3 PUSH2 0x773 JUMP JUMPDEST DUP4 SSTORE POP JUMPDEST PUSH1 0x1 PUSH1 0x2 DUP9 MUL ADD DUP9 SSTORE POP POP POP JUMPDEST POP POP POP POP POP POP JUMP JUMPDEST PUSH2 0x882 DUP2 PUSH2 0x50A JUMP JUMPDEST DUP3 MSTORE POP POP JUMP JUMPDEST PUSH0 PUSH1 0x20 DUP3 ADD SWAP1 POP PUSH2 0x89B PUSH0 DUP4 ADD DUP5 PUSH2 0x879 JUMP JUMPDEST SWAP3 SWAP2 POP POP JUMP JUMPDEST PUSH32 0x4E487B7100000000000000000000000000000000000000000000000000000000 PUSH0 MSTORE PUSH1 0x11 PUSH1 0x4 MSTORE PUSH1 0x24 PUSH0 REVERT JUMPDEST PUSH0 DUP2 PUSH1 0x1 SHR SWAP1 POP SWAP2 SWAP1 POP JUMP JUMPDEST PUSH0 DUP1 DUP3 SWAP2 POP DUP4 SWAP1 POP JUMPDEST PUSH1 0x1 DUP6 GT ISZERO PUSH2 0x923 JUMPI DUP1 DUP7 DIV DUP2 GT ISZERO PUSH2 0x8FF JUMPI PUSH2 0x8FE PUSH2 0x8A1 JUMP JUMPDEST JUMPDEST PUSH1 0x1 DUP6 AND ISZERO PUSH2 0x90E JUMPI DUP1 DUP3 MUL SWAP2 POP JUMPDEST DUP1 DUP2 MUL SWAP1 POP PUSH2 0x91C DUP6 PUSH2 0x8CE JUMP JUMPDEST SWAP5 POP PUSH2 0x8E3 JUMP JUMPDEST SWAP5 POP SWAP5 SWAP3 POP POP POP JUMP JUMPDEST PUSH0 DUP3 PUSH2 0x93B JUMPI PUSH1 0x1 SWAP1 POP PUSH2 0x9F6 JUMP JUMPDEST DUP2 PUSH2 0x948 JUMPI PUSH0 SWAP1 POP PUSH2 0x9F6 JUMP JUMPDEST DUP2 PUSH1 0x1 DUP2 EQ PUSH2 0x95E JUMPI PUSH1 0x2 DUP2 EQ PUSH2 0x968 JUMPI PUSH2 0x997 JUMP JUMPDEST PUSH1 0x1 SWAP2 POP POP PUSH2 0x9F6 JUMP JUMPDEST PUSH1 0xFF DUP5 GT ISZERO PUSH2 0x97A JUMPI PUSH2 0x979 PUSH2 0x8A1 JUMP JUMPDEST JUMPDEST DUP4 PUSH1 0x2 EXP SWAP2 POP DUP5 DUP3 GT ISZERO PUSH2 0x991 JUMPI PUSH2 0x990 PUSH2 0x8A1 JUMP JUMPDEST JUMPDEST POP PUSH2 0x9F6 JUMP JUMPDEST POP PUSH1 0x20 DUP4 LT PUSH2 0x133 DUP4 LT AND PUSH1 0x4E DUP5 LT PUSH1 0xB DUP5 LT AND OR ISZERO PUSH2 0x9CC JUMPI DUP3 DUP3 EXP SWAP1 POP DUP4 DUP2 GT ISZERO PUSH2 0x9C7 JUMPI PUSH2 0x9C6 PUSH2 0x8A1 JUMP JUMPDEST JUMPDEST PUSH2 0x9F6 JUMP JUMPDEST PUSH2 0x9D9 DUP5 DUP5 DUP5 PUSH1 0x1 PUSH2 0x8DA JUMP JUMPDEST SWAP3 POP SWAP1 POP DUP2 DUP5 DIV DUP2 GT ISZERO PUSH2 0x9F0 JUMPI PUSH2 0x9EF PUSH2 0x8A1 JUMP JUMPDEST JUMPDEST DUP2 DUP2 MUL SWAP1 POP JUMPDEST SWAP4 SWAP3 POP POP POP JUMP JUMPDEST PUSH0 PUSH1 0xFF DUP3 AND SWAP1 POP SWAP2 SWAP1 POP JUMP JUMPDEST PUSH0 PUSH2 0xA13 DUP3 PUSH2 0x682 JUMP JUMPDEST SWAP2 POP PUSH2 0xA1E DUP4 PUSH2 0x9FD JUMP JUMPDEST SWAP3 POP PUSH2 0xA4B PUSH32 0xFFFFFFFFFFFFFFFFFFFFFFFFFFFFFFFFFFFFFFFFFFFFFFFFFFFFFFFFFFFFFFFF DUP5 DUP5 PUSH2 0x92C JUMP JUMPDEST SWAP1 POP SWAP3 SWAP2 POP POP JUMP JUMPDEST PUSH0 PUSH2 0xA5D DUP3 PUSH2 0x682 JUMP JUMPDEST SWAP2 POP PUSH2 0xA68 DUP4 PUSH2 0x682 JUMP JUMPDEST SWAP3 POP DUP3 DUP3 MUL PUSH2 0xA76 DUP2 PUSH2 0x682 JUMP JUMPDEST SWAP2 POP DUP3 DUP3 DIV DUP5 EQ DUP4 ISZERO OR PUSH2 0xA8D JUMPI PUSH2 0xA8C PUSH2 0x8A1 JUMP JUMPDEST JUMPDEST POP SWAP3 SWAP2 POP POP JUMP JUMPDEST PUSH0 PUSH2 0xA9E DUP3 PUSH2 0x682 JUMP JUMPDEST SWAP2 POP PUSH2 0xAA9 DUP4 PUSH2 0x682 JUMP JUMPDEST SWAP3 POP DUP3 DUP3 ADD SWAP1 POP DUP1 DUP3 GT ISZERO PUSH2 0xAC1 JUMPI PUSH2 0xAC0 PUSH2 0x8A1 JUMP JUMPDEST JUMPDEST SWAP3 SWAP2 POP POP JUMP JUMPDEST PUSH2 0xAD0 DUP2 PUSH2 0x682 JUMP JUMPDEST DUP3 MSTORE POP POP JUMP JUMPDEST PUSH0 PUSH1 0x60 DUP3 ADD SWAP1 POP PUSH2 0xAE9 PUSH0 DUP4 ADD DUP7 PUSH2 0x879 JUMP JUMPDEST PUSH2 0xAF6 PUSH1 0x20 DUP4 ADD DUP6 PUSH2 0xAC7 JUMP JUMPDEST PUSH2 0xB03 PUSH1 0x40 DUP4 ADD DUP5 PUSH2 0xAC7 JUMP JUMPDEST SWAP5 SWAP4 POP POP POP POP JUMP JUMPDEST PUSH0 PUSH1 0x20 DUP3 ADD SWAP1 POP PUSH2 0xB1E PUSH0 DUP4 ADD DUP5 PUSH2 0xAC7 JUMP JUMPDEST SWAP3 SWAP2 POP POP JUMP JUMPDEST PUSH2 0x1294 DUP1 PUSH2 0xB31 PUSH0 CODECOPY PUSH0 RETURN INVALID PUSH1 0x80 PUSH1 0x40 MSTORE CALLVALUE DUP1 ISZERO PUSH2 0xF JUMPI PUSH0 DUP1 REVERT JUMPDEST POP PUSH1 0x4 CALLDATASIZE LT PUSH2 0xFE JUMPI PUSH0 CALLDATALOAD PUSH1 0xE0 SHR DUP1 PUSH4 0x715018A6 GT PUSH2 0x95 JUMPI DUP1 PUSH4 0x9DC29FAC GT PUSH2 0x64 JUMPI DUP1 PUSH4 0x9DC29FAC EQ PUSH2 0x286 JUMPI DUP1 PUSH4 0xA9059CBB EQ PUSH2 0x2A2 JUMPI DUP1 PUSH4 0xDD62ED3E EQ PUSH2 0x2D2 JUMPI DUP1 PUSH4 0xF2FDE38B EQ PUSH2 0x302 JUMPI PUSH2 0xFE JUMP JUMPDEST DUP1 PUSH4 0x715018A6 EQ PUSH2 0x224 JUMPI DUP1 PUSH4 0x79CC6790 EQ PUSH2 0x22E JUMPI DUP1 PUSH4 0x8DA5CB5B EQ PUSH2 0x24A JUMPI DUP1 PUSH4 0x95D89B41 EQ PUSH2 0x268 JUMPI PUSH2 0xFE JUMP JUMPDEST DUP1 PUSH4 0x313CE567 GT PUSH2 0xD1 JUMPI DUP1 PUSH4 0x313CE567 EQ PUSH2 0x19E JUMPI DUP1 PUSH4 0x40C10F19 EQ PUSH2 0x1BC JUMPI DUP1 PUSH4 0x42966C68 EQ PUSH2 0x1D8 JUMPI DUP1 PUSH4 0x70A08231 EQ PUSH2 0x1F4 JUMPI PUSH2 0xFE JUMP JUMPDEST DUP1 PUSH4 0x6FDDE03 EQ PUSH2 0x102 JUMPI DUP1 PUSH4 0x95EA7B3 EQ PUSH2 0x120 JUMPI DUP1 PUSH4 0x18160DDD EQ PUSH2 0x150 JUMPI DUP1 PUSH4 0x23B872DD EQ PUSH2 0x16E JUMPI JUMPDEST PUSH0 DUP1 REVERT JUMPDEST PUSH2 0x10A PUSH2 0x31E JUMP JUMPDEST PUSH1 0x40 MLOAD PUSH2 0x117 SWAP2 SWAP1 PUSH2 0xEE2 JUMP JUMPDEST PUSH1 0x40 MLOAD DUP1 SWAP2 SUB SWAP1 RETURN JUMPDEST PUSH2 0x13A PUSH1 0x4 DUP1 CALLDATASIZE SUB DUP2 ADD SWAP1 PUSH2 0x135 SWAP2 SWAP1 PUSH2 0xF93 JUMP JUMPDEST PUSH2 0x3AE JUMP JUMPDEST PUSH1 0x40 MLOAD PUSH2 0x147 SWAP2 SWAP1 PUSH2 0xFEB JUMP JUMPDEST PUSH1 0x40 MLOAD DUP1 SWAP2 SUB SWAP1 RETURN JUMPDEST PUSH2 0x158 PUSH2 0x3D0 JUMP JUMPDEST PUSH1 0x40 MLOAD PUSH2 0x165 SWAP2 SWAP1 PUSH2 0x1013 JUMP JUMPDEST PUSH1 0x40 MLOAD DUP1 SWAP2 SUB SWAP1 RETURN JUMPDEST PUSH2 0x188 PUSH1 0x4 DUP1 CALLDATASIZE SUB DUP2 ADD SWAP1 PUSH2 0x183 SWAP2 SWAP1 PUSH2 0x102C JUMP JUMPDEST PUSH2 0x3D9 JUMP JUMPDEST PUSH1 0x40 MLOAD PUSH2 0x195 SWAP2 SWAP1 PUSH2 0xFEB JUMP JUMPDEST PUSH1 0x40 MLOAD DUP1 SWAP2 SUB SWAP1 RETURN JUMPDEST PUSH2 0x1A6 PUSH2 0x407 JUMP JUMPDEST PUSH1 0x40 MLOAD PUSH2 0x1B3 SWAP2 SWAP1 PUSH2 0x1097 JUMP JUMPDEST PUSH1 0x40 MLOAD DUP1 SWAP2 SUB SWAP1 RETURN JUMPDEST PUSH2 0x1D6 PUSH1 0x4 DUP1 CALLDATASIZE SUB DUP2 ADD SWAP1 PUSH2 0x1D1 SWAP2 SWAP1 PUSH2 0xF93 JUMP JUMPDEST PUSH2 0x40F JUMP JUMPDEST STOP JUMPDEST PUSH2 0x1F2 PUSH1 0x4 DUP1 CALLDATASIZE SUB DUP2 ADD SWAP1 PUSH2 0x1ED SWAP2 SWAP1 PUSH2 0x10B0 JUMP JUMPDEST PUSH2 0x425 JUMP JUMPDEST STOP JUMPDEST PUSH2 0x20E PUSH1 0x4 DUP1 CALLDATASIZE SUB DUP2 ADD SWAP1 PUSH2 0x209 SWAP2 SWAP1 PUSH2 0x10DB JUMP JUMPDEST PUSH2 0x439 JUMP JUMPDEST PUSH1 0x40 MLOAD PUSH2 0x21B SWAP2 SWAP1 PUSH2 0x1013 JUMP JUMPDEST PUSH1 0x40 MLOAD DUP1 SWAP2 SUB SWAP1 RETURN JUMPDEST PUSH2 0x22C PUSH2 0x47E JUMP JUMPDEST STOP JUMPDEST PUSH2 0x248 PUSH1 0x4 DUP1 CALLDATASIZE SUB DUP2 ADD SWAP1 PUSH2 0x243 SWAP2 SWAP1 PUSH2 0xF93 JUMP JUMPDEST PUSH2 0x491 JUMP JUMPDEST STOP JUMPDEST PUSH2 0x252 PUSH2 0x4B1 JUMP JUMPDEST PUSH1 0x40 MLOAD PUSH2 0x25F SWAP2 SWAP1 PUSH2 0x1115 JUMP JUMPDEST PUSH1 0x40 MLOAD DUP1 SWAP2 SUB SWAP1 RETURN JUMPDEST PUSH2 0x270 PUSH2 0x4D9 JUMP JUMPDEST PUSH1 0x40 MLOAD PUSH2 0x27D SWAP2 SWAP1 PUSH2 0xEE2 JUMP JUMPDEST PUSH1 0x40 MLOAD DUP1 SWAP2 SUB SWAP1 RETURN JUMPDEST PUSH2 0x2A0 PUSH1 0x4 DUP1 CALLDATASIZE SUB DUP2 ADD SWAP1 PUSH2 0x29B SWAP2 SWAP1 PUSH2 0xF93 JUMP JUMPDEST PUSH2 0x569 JUMP JUMPDEST STOP JUMPDEST PUSH2 0x2BC PUSH1 0x4 DUP1 CALLDATASIZE SUB DUP2 ADD SWAP1 PUSH2 0x2B7 SWAP2 SWAP1 PUSH2 0xF93 JUMP JUMPDEST PUSH2 0x57F JUMP JUMPDEST PUSH1 0x40 MLOAD PUSH2 0x2C9 SWAP2 SWAP1 PUSH2 0xFEB JUMP JUMPDEST PUSH1 0x40 MLOAD DUP1 SWAP2 SUB SWAP1 RETURN JUMPDEST PUSH2 0x2EC PUSH1 0x4 DUP1 CALLDATASIZE SUB DUP2 ADD SWAP1 PUSH2 0x2E7 SWAP2 SWAP1 PUSH2 0x112E JUMP JUMPDEST PUSH2 0x5A1 JUMP JUMPDEST PUSH1 0x40 MLOAD PUSH2 0x2F9 SWAP2 SWAP1 PUSH2 0x1013 JUMP JUMPDEST PUSH1 0x40 MLOAD DUP1 SWAP2 SUB SWAP1 RETURN JUMPDEST PUSH2 0x31C PUSH1 0x4 DUP1 CALLDATASIZE SUB DUP2 ADD SWAP1 PUSH2 0x317 SWAP2 SWAP1 PUSH2 0x10DB JUMP JUMPDEST PUSH2 0x623 JUMP JUMPDEST STOP JUMPDEST PUSH1 0x60 PUSH1 0x3 DUP1 SLOAD PUSH2 0x32D SWAP1 PUSH2 0x1199 JUMP JUMPDEST DUP1 PUSH1 0x1F ADD PUSH1 0x20 DUP1 SWAP2 DIV MUL PUSH1 0x20 ADD PUSH1 0x40 MLOAD SWAP1 DUP2 ADD PUSH1 0x40 MSTORE DUP1 SWAP3 SWAP2 SWAP1 DUP2 DUP2 MSTORE PUSH1 0x20 ADD DUP3 DUP1 SLOAD PUSH2 0x359 SWAP1 PUSH2 0x1199 JUMP JUMPDEST DUP1 ISZERO PUSH2 0x3A4 JUMPI DUP1 PUSH1 0x1F LT PUSH2 0x37B JUMPI PUSH2 0x100 DUP1 DUP4 SLOAD DIV MUL DUP4 MSTORE SWAP2 PUSH1 0x20 ADD SWAP2 PUSH2 0x3A4 JUMP JUMPDEST DUP3 ADD SWAP2 SWAP1 PUSH0 MSTORE PUSH1 0x20 PUSH0 KECCAK256 SWAP1 JUMPDEST DUP2 SLOAD DUP2 MSTORE SWAP1 PUSH1 0x1 ADD SWAP1 PUSH1 0x20 ADD DUP1 DUP4 GT PUSH2 0x387 JUMPI DUP3 SWAP1 SUB PUSH1 0x1F AND DUP3 ADD SWAP2 JUMPDEST POP POP POP POP POP SWAP1 POP SWAP1 JUMP JUMPDEST PUSH0 DUP1 PUSH2 0x3B8 PUSH2 0x6A7 JUMP JUMPDEST SWAP1 POP PUSH2 0x3C5 DUP2 DUP6 DUP6 PUSH2 0x6AE JUMP JUMPDEST PUSH1 0x1 SWAP2 POP POP SWAP3 SWAP2 POP POP JUMP JUMPDEST PUSH0 PUSH1 0x2 SLOAD SWAP1 POP SWAP1 JUMP JUMPDEST PUSH0 DUP1 PUSH2 0x3E3 PUSH2 0x6A7 JUMP JUMPDEST SWAP1 POP PUSH2 0x3F0 DUP6 DUP3 DUP6 PUSH2 0x6C0 JUMP JUMPDEST PUSH2 0x3FB DUP6 DUP6 DUP6 PUSH2 0x752 JUMP JUMPDEST PUSH1 0x1 SWAP2 POP POP SWAP4 SWAP3 POP POP POP JUMP JUMPDEST PUSH0 PUSH1 0x12 SWAP1 POP SWAP1 JUMP JUMPDEST PUSH2 0x417 PUSH2 0x842 JUMP JUMPDEST PUSH2 0x421 DUP3 DUP3 PUSH2 0x8C9 JUMP JUMPDEST POP POP JUMP JUMPDEST PUSH2 0x436 PUSH2 0x430 PUSH2 0x6A7 JUMP JUMPDEST DUP3 PUSH2 0x948 JUMP JUMPDEST POP JUMP JUMPDEST PUSH0 DUP1 PUSH0 DUP4 PUSH20 0xFFFFFFFFFFFFFFFFFFFFFFFFFFFFFFFFFFFFFFFF AND PUSH20 0xFFFFFFFFFFFFFFFFFFFFFFFFFFFFFFFFFFFFFFFF AND DUP2 MSTORE PUSH1 0x20 ADD SWAP1 DUP2 MSTORE PUSH1 0x20 ADD PUSH0 KECCAK256 SLOAD SWAP1 POP SWAP2 SWAP1 POP JUMP JUMPDEST PUSH2 0x486 PUSH2 0x842 JUMP JUMPDEST PUSH2 0x48F PUSH0 PUSH2 0x9C7 JUMP JUMPDEST JUMP JUMPDEST PUSH2 0x4A3 DUP3 PUSH2 0x49D PUSH2 0x6A7 JUMP JUMPDEST DUP4 PUSH2 0x6C0 JUMP JUMPDEST PUSH2 0x4AD DUP3 DUP3 PUSH2 0x948 JUMP JUMPDEST POP POP JUMP JUMPDEST PUSH0 PUSH1 0x5 PUSH0 SWAP1 SLOAD SWAP1 PUSH2 0x100 EXP SWAP1 DIV PUSH20 0xFFFFFFFFFFFFFFFFFFFFFFFFFFFFFFFFFFFFFFFF AND SWAP1 POP SWAP1 JUMP JUMPDEST PUSH1 0x60 PUSH1 0x4 DUP1 SLOAD PUSH2 0x4E8 SWAP1 PUSH2 0x1199 JUMP JUMPDEST DUP1 PUSH1 0x1F ADD PUSH1 0x20 DUP1 SWAP2 DIV MUL PUSH1 0x20 ADD PUSH1 0x40 MLOAD SWAP1 DUP2 ADD PUSH1 0x40 MSTORE DUP1 SWAP3 SWAP2 SWAP1 DUP2 DUP2 MSTORE PUSH1 0x20 ADD DUP3 DUP1 SLOAD PUSH2 0x514 SWAP1 PUSH2 0x1199 JUMP JUMPDEST DUP1 ISZERO PUSH2 0x55F JUMPI DUP1 PUSH1 0x1F LT PUSH2 0x536 JUMPI PUSH2 0x100 DUP1 DUP4 SLOAD DIV MUL DUP4 MSTORE SWAP2 PUSH1 0x20 ADD SWAP2 PUSH2 0x55F JUMP JUMPDEST DUP3 ADD SWAP2 SWAP1 PUSH0 MSTORE PUSH1 0x20 PUSH0 KECCAK256 SWAP1 JUMPDEST DUP2 SLOAD DUP2 MSTORE SWAP1 PUSH1 0x1 ADD SWAP1 PUSH1 0x20 ADD DUP1 DUP4 GT PUSH2 0x542 JUMPI DUP3 SWAP1 SUB PUSH1 0x1F AND DUP3 ADD SWAP2 JUMPDEST POP POP POP POP POP SWAP1 POP SWAP1 JUMP JUMPDEST PUSH2 0x571 PUSH2 0x842 JUMP JUMPDEST PUSH2 0x57B DUP3 DUP3 PUSH2 0x948 JUMP JUMPDEST POP POP JUMP JUMPDEST PUSH0 DUP1 PUSH2 0x589 PUSH2 0x6A7 JUMP JUMPDEST SWAP1 POP PUSH2 0x596 DUP2 DUP6 DUP6 PUSH2 0x752 JUMP JUMPDEST PUSH1 0x1 SWAP2 POP POP SWAP3 SWAP2 POP POP JUMP JUMPDEST PUSH0 PUSH1 0x1 PUSH0 DUP5 PUSH20 0xFFFFFFFFFFFFFFFFFFFFFFFFFFFFFFFFFFFFFFFF AND PUSH20 0xFFFFFFFFFFFFFFFFFFFFFFFFFFFFFFFFFFFFFFFF AND DUP2 MSTORE PUSH1 0x20 ADD SWAP1 DUP2 MSTORE PUSH1 0x20 ADD PUSH0 KECCAK256 PUSH0 DUP4 PUSH20 0xFFFFFFFFFFFFFFFFFFFFFFFFFFFFFFFFFFFFFFFF AND PUSH20 0xFFFFFFFFFFFFFFFFFFFFFFFFFFFFFFFFFFFFFFFF AND DUP2 MSTORE PUSH1 0x20 ADD SWAP1 DUP2 MSTORE PUSH1 0x20 ADD PUSH0 KECCAK256 SLOAD SWAP1 POP SWAP3 SWAP2 POP POP JUMP JUMPDEST PUSH2 0x62B PUSH2 0x842 JUMP JUMPDEST PUSH0 PUSH20 0xFFFFFFFFFFFFFFFFFFFFFFFFFFFFFFFFFFFFFFFF AND DUP2 PUSH20 0xFFFFFFFFFFFFFFFFFFFFFFFFFFFFFFFFFFFFFFFF AND SUB PUSH2 0x69B JUMPI PUSH0 PUSH1 0x40 MLOAD PUSH32 0x1E4FBDF700000000000000000000000000000000000000000000000000000000 DUP2 MSTORE PUSH1 0x4 ADD PUSH2 0x692 SWAP2 SWAP1 PUSH2 0x1115 JUMP JUMPDEST PUSH1 0x40 MLOAD DUP1 SWAP2 SUB SWAP1 REVERT JUMPDEST PUSH2 0x6A4 DUP2 PUSH2 0x9C7 JUMP JUMPDEST POP JUMP JUMPDEST PUSH0 CALLER SWAP1 POP SWAP1 JUMP JUMPDEST PUSH2 0x6BB DUP4 DUP4 DUP4 PUSH1 0x1 PUSH2 0xA8A JUMP JUMPDEST POP POP POP JUMP JUMPDEST PUSH0 PUSH2 0x6CB DUP5 DUP5 PUSH2 0x5A1 JUMP JUMPDEST SWAP1 POP PUSH32 0xFFFFFFFFFFFFFFFFFFFFFFFFFFFFFFFFFFFFFFFFFFFFFFFFFFFFFFFFFFFFFFFF DUP2 EQ PUSH2 0x74C JUMPI DUP2 DUP2 LT ISZERO PUSH2 0x73D JUMPI DUP3 DUP2 DUP4 PUSH1 0x40 MLOAD PUSH32 0xFB8F41B200000000000000000000000000000000000000000000000000000000 DUP2 MSTORE PUSH1 0x4 ADD PUSH2 0x734 SWAP4 SWAP3 SWAP2 SWAP1 PUSH2 0x11C9 JUMP JUMPDEST PUSH1 0x40 MLOAD DUP1 SWAP2 SUB SWAP1 REVERT JUMPDEST PUSH2 0x74B DUP5 DUP5 DUP5 DUP5 SUB PUSH0 PUSH2 0xA8A JUMP JUMPDEST JUMPDEST POP POP POP POP JUMP JUMPDEST PUSH0 PUSH20 0xFFFFFFFFFFFFFFFFFFFFFFFFFFFFFFFFFFFFFFFF AND DUP4 PUSH20 0xFFFFFFFFFFFFFFFFFFFFFFFFFFFFFFFFFFFFFFFF AND SUB PUSH2 0x7C2 JUMPI PUSH0 PUSH1 0x40 MLOAD PUSH32 0x96C6FD1E00000000000000000000000000000000000000000000000000000000 DUP2 MSTORE PUSH1 0x4 ADD PUSH2 0x7B9 SWAP2 SWAP1 PUSH2 0x1115 JUMP JUMPDEST PUSH1 0x40 MLOAD DUP1 SWAP2 SUB SWAP1 REVERT JUMPDEST PUSH0 PUSH20 0xFFFFFFFFFFFFFFFFFFFFFFFFFFFFFFFFFFFFFFFF AND DUP3 PUSH20 0xFFFFFFFFFFFFFFFFFFFFFFFFFFFFFFFFFFFFFFFF AND SUB PUSH2 0x832 JUMPI PUSH0 PUSH1 0x40 MLOAD PUSH32 0xEC442F0500000000000000000000000000000000000000000000000000000000 DUP2 MSTORE PUSH1 0x4 ADD PUSH2 0x829 SWAP2 SWAP1 PUSH2 0x1115 JUMP JUMPDEST PUSH1 0x40 MLOAD DUP1 SWAP2 SUB SWAP1 REVERT JUMPDEST PUSH2 0x83D DUP4 DUP4 DUP4 PUSH2 0xC59 JUMP JUMPDEST POP POP POP JUMP JUMPDEST PUSH2 0x84A PUSH2 0x6A7 JUMP JUMPDEST PUSH20 0xFFFFFFFFFFFFFFFFFFFFFFFFFFFFFFFFFFFFFFFF AND PUSH2 0x868 PUSH2 0x4B1 JUMP JUMPDEST PUSH20 0xFFFFFFFFFFFFFFFFFFFFFFFFFFFFFFFFFFFFFFFF AND EQ PUSH2 0x8C7 JUMPI PUSH2 0x88B PUSH2 0x6A7 JUMP JUMPDEST PUSH1 0x40 MLOAD PUSH32 0x118CDAA700000000000000000000000000000000000000000000000000000000 DUP2 MSTORE PUSH1 0x4 ADD PUSH2 0x8BE SWAP2 SWAP1 PUSH2 0x1115 JUMP JUMPDEST PUSH1 0x40 MLOAD DUP1 SWAP2 SUB SWAP1 REVERT JUMPDEST JUMP JUMPDEST PUSH0 PUSH20 0xFFFFFFFFFFFFFFFFFFFFFFFFFFFFFFFFFFFFFFFF AND DUP3 PUSH20 0xFFFFFFFFFFFFFFFFFFFFFFFFFFFFFFFFFFFFFFFF AND SUB PUSH2 0x939 JUMPI PUSH0 PUSH1 0x40 MLOAD PUSH32 0xEC442F0500000000000000000000000000000000000000000000000000000000 DUP2 MSTORE PUSH1 0x4 ADD PUSH2 0x930 SWAP2 SWAP1 PUSH2 0x1115 JUMP JUMPDEST PUSH1 0x40 MLOAD DUP1 SWAP2 SUB SWAP1 REVERT JUMPDEST PUSH2 0x944 PUSH0 DUP4 DUP4 PUSH2 0xC59 JUMP JUMPDEST POP POP JUMP JUMPDEST PUSH0 PUSH20 0xFFFFFFFFFFFFFFFFFFFFFFFFFFFFFFFFFFFFFFFF AND DUP3 PUSH20 0xFFFFFFFFFFFFFFFFFFFFFFFFFFFFFFFFFFFFFFFF AND SUB PUSH2 0x9B8 JUMPI PUSH0 PUSH1 0x40 MLOAD PUSH32 0x96C6FD1E00000000000000000000000000000000000000000000000000000000 DUP2 MSTORE PUSH1 0x4 ADD PUSH2 0x9AF SWAP2 SWAP1 PUSH2 0x1115 JUMP JUMPDEST PUSH1 0x40 MLOAD DUP1 SWAP2 SUB SWAP1 REVERT JUMPDEST PUSH2 0x9C3 DUP3 PUSH0 DUP4 PUSH2 0xC59 JUMP JUMPDEST POP POP JUMP JUMPDEST PUSH0 PUSH1 0x5 PUSH0 SWAP1 SLOAD SWAP1 PUSH2 0x100 EXP SWAP1 DIV PUSH20 0xFFFFFFFFFFFFFFFFFFFFFFFFFFFFFFFFFFFFFFFF AND SWAP1 POP DUP2 PUSH1 0x5 PUSH0 PUSH2 0x100 EXP DUP2 SLOAD DUP2 PUSH20 0xFFFFFFFFFFFFFFFFFFFFFFFFFFFFFFFFFFFFFFFF MUL NOT AND SWAP1 DUP4 PUSH20 0xFFFFFFFFFFFFFFFFFFFFFFFFFFFFFFFFFFFFFFFF AND MUL OR SWAP1 SSTORE POP DUP2 PUSH20 0xFFFFFFFFFFFFFFFFFFFFFFFFFFFFFFFFFFFFFFFF AND DUP2 PUSH20 0xFFFFFFFFFFFFFFFFFFFFFFFFFFFFFFFFFFFFFFFF AND PUSH32 0x8BE0079C531659141344CD1FD0A4F28419497F9722A3DAAFE3B4186F6B6457E0 PUSH1 0x40 MLOAD PUSH1 0x40 MLOAD DUP1 SWAP2 SUB SWAP1 LOG3 POP POP JUMP JUMPDEST PUSH0 PUSH20 0xFFFFFFFFFFFFFFFFFFFFFFFFFFFFFFFFFFFFFFFF AND DUP5 PUSH20 0xFFFFFFFFFFFFFFFFFFFFFFFFFFFFFFFFFFFFFFFF AND SUB PUSH2 0xAFA JUMPI PUSH0 PUSH1 0x40 MLOAD PUSH32 0xE602DF0500000000000000000000000000000000000000000000000000000000 DUP2 MSTORE PUSH1 0x4 ADD PUSH2 0xAF1 SWAP2 SWAP1 PUSH2 0x1115 JUMP JUMPDEST PUSH1 0x40 MLOAD DUP1 SWAP2 SUB SWAP1 REVERT JUMPDEST PUSH0 PUSH20 0xFFFFFFFFFFFFFFFFFFFFFFFFFFFFFFFFFFFFFFFF AND DUP4 PUSH20 0xFFFFFFFFFFFFFFFFFFFFFFFFFFFFFFFFFFFFFFFF AND SUB PUSH2 0xB6A JUMPI PUSH0 PUSH1 0x40 MLOAD PUSH32 0x94280D6200000000000000000000000000000000000000000000000000000000 DUP2 MSTORE PUSH1 0x4 ADD PUSH2 0xB61 SWAP2 SWAP1 PUSH2 0x1115 JUMP JUMPDEST PUSH1 0x40 MLOAD DUP1 SWAP2 SUB SWAP1 REVERT JUMPDEST DUP2 PUSH1 0x1 PUSH0 DUP7 PUSH20 0xFFFFFFFFFFFFFFFFFFFFFFFFFFFFFFFFFFFFFFFF AND PUSH20 0xFFFFFFFFFFFFFFFFFFFFFFFFFFFFFFFFFFFFFFFF AND DUP2 MSTORE PUSH1 0x20 ADD SWAP1 DUP2 MSTORE PUSH1 0x20 ADD PUSH0 KECCAK256 PUSH0 DUP6 PUSH20 0xFFFFFFFFFFFFFFFFFFFFFFFFFFFFFFFFFFFFFFFF AND PUSH20 0xFFFFFFFFFFFFFFFFFFFFFFFFFFFFFFFFFFFFFFFF AND DUP2 MSTORE PUSH1 0x20 ADD SWAP1 DUP2 MSTORE PUSH1 0x20 ADD PUSH0 KECCAK256 DUP2 SWAP1 SSTORE POP DUP1 ISZERO PUSH2 0xC53 JUMPI DUP3 PUSH20 0xFFFFFFFFFFFFFFFFFFFFFFFFFFFFFFFFFFFFFFFF AND DUP5 PUSH20 0xFFFFFFFFFFFFFFFFFFFFFFFFFFFFFFFFFFFFFFFF AND PUSH32 0x8C5BE1E5EBEC7D5BD14F71427D1E84F3DD0314C0F7B2291E5B200AC8C7C3B925 DUP5 PUSH1 0x40 MLOAD PUSH2 0xC4A SWAP2 SWAP1 PUSH2 0x1013 JUMP JUMPDEST PUSH1 0x40 MLOAD DUP1 SWAP2 SUB SWAP1 LOG3 JUMPDEST POP POP POP POP JUMP JUMPDEST PUSH0 PUSH20 0xFFFFFFFFFFFFFFFFFFFFFFFFFFFFFFFFFFFFFFFF AND DUP4 PUSH20 0xFFFFFFFFFFFFFFFFFFFFFFFFFFFFFFFFFFFFFFFF AND SUB PUSH2 0xCA9 JUMPI DUP1 PUSH1 0x2 PUSH0 DUP3 DUP3 SLOAD PUSH2 0xC9D SWAP2 SWAP1 PUSH2 0x122B JUMP JUMPDEST SWAP3 POP POP DUP2 SWAP1 SSTORE POP PUSH2 0xD77 JUMP JUMPDEST PUSH0 DUP1 PUSH0 DUP6 PUSH20 0xFFFFFFFFFFFFFFFFFFFFFFFFFFFFFFFFFFFFFFFF AND PUSH20 0xFFFFFFFFFFFFFFFFFFFFFFFFFFFFFFFFFFFFFFFF AND DUP2 MSTORE PUSH1 0x20 ADD SWAP1 DUP2 MSTORE PUSH1 0x20 ADD PUSH0 KECCAK256 SLOAD SWAP1 POP DUP2 DUP2 LT ISZERO PUSH2 0xD32 JUMPI DUP4 DUP2 DUP4 PUSH1 0x40 MLOAD PUSH32 0xE450D38C00000000000000000000000000000000000000000000000000000000 DUP2 MSTORE PUSH1 0x4 ADD PUSH2 0xD29 SWAP4 SWAP3 SWAP2 SWAP1 PUSH2 0x11C9 JUMP JUMPDEST PUSH1 0x40 MLOAD DUP1 SWAP2 SUB SWAP1 REVERT JUMPDEST DUP2 DUP2 SUB PUSH0 DUP1 DUP7 PUSH20 0xFFFFFFFFFFFFFFFFFFFFFFFFFFFFFFFFFFFFFFFF AND PUSH20 0xFFFFFFFFFFFFFFFFFFFFFFFFFFFFFFFFFFFFFFFF AND DUP2 MSTORE PUSH1 0x20 ADD SWAP1 DUP2 MSTORE PUSH1 0x20 ADD PUSH0 KECCAK256 DUP2 SWAP1 SSTORE POP POP JUMPDEST PUSH0 PUSH20 0xFFFFFFFFFFFFFFFFFFFFFFFFFFFFFFFFFFFFFFFF AND DUP3 PUSH20 0xFFFFFFFFFFFFFFFFFFFFFFFFFFFFFFFFFFFFFFFF AND SUB PUSH2 0xDBE JUMPI DUP1 PUSH1 0x2 PUSH0 DUP3 DUP3 SLOAD SUB SWAP3 POP POP DUP2 SWAP1 SSTORE POP PUSH2 0xE08 JUMP JUMPDEST DUP1 PUSH0 DUP1 DUP5 PUSH20 0xFFFFFFFFFFFFFFFFFFFFFFFFFFFFFFFFFFFFFFFF AND PUSH20 0xFFFFFFFFFFFFFFFFFFFFFFFFFFFFFFFFFFFFFFFF AND DUP2 MSTORE PUSH1 0x20 ADD SWAP1 DUP2 MSTORE PUSH1 0x20 ADD PUSH0 KECCAK256 PUSH0 DUP3 DUP3 SLOAD ADD SWAP3 POP POP DUP2 SWAP1 SSTORE POP JUMPDEST DUP2 PUSH20 0xFFFFFFFFFFFFFFFFFFFFFFFFFFFFFFFFFFFFFFFF AND DUP4 PUSH20 0xFFFFFFFFFFFFFFFFFFFFFFFFFFFFFFFFFFFFFFFF AND PUSH32 0xDDF252AD1BE2C89B69C2B068FC378DAA952BA7F163C4A11628F55A4DF523B3EF DUP4 PUSH1 0x40 MLOAD PUSH2 0xE65 SWAP2 SWAP1 PUSH2 0x1013 JUMP JUMPDEST PUSH1 0x40 MLOAD DUP1 SWAP2 SUB SWAP1 LOG3 POP POP POP JUMP JUMPDEST PUSH0 DUP2 MLOAD SWAP1 POP SWAP2 SWAP1 POP JUMP JUMPDEST PUSH0 DUP3 DUP3 MSTORE PUSH1 0x20 DUP3 ADD SWAP1 POP SWAP3 SWAP2 POP POP JUMP JUMPDEST DUP3 DUP2 DUP4 MCOPY PUSH0 DUP4 DUP4 ADD MSTORE POP POP POP JUMP JUMPDEST PUSH0 PUSH1 0x1F NOT PUSH1 0x1F DUP4 ADD AND SWAP1 POP SWAP2 SWAP1 POP JUMP JUMPDEST PUSH0 PUSH2 0xEB4 DUP3 PUSH2 0xE72 JUMP JUMPDEST PUSH2 0xEBE DUP2 DUP6 PUSH2 0xE7C JUMP JUMPDEST SWAP4 POP PUSH2 0xECE DUP2 DUP6 PUSH1 0x20 DUP7 ADD PUSH2 0xE8C JUMP JUMPDEST PUSH2 0xED7 DUP2 PUSH2 0xE9A JUMP JUMPDEST DUP5 ADD SWAP2 POP POP SWAP3 SWAP2 POP POP JUMP JUMPDEST PUSH0 PUSH1 0x20 DUP3 ADD SWAP1 POP DUP2 DUP2 SUB PUSH0 DUP4 ADD MSTORE PUSH2 0xEFA DUP2 DUP5 PUSH2 0xEAA JUMP JUMPDEST SWAP1 POP SWAP3 SWAP2 POP POP JUMP JUMPDEST PUSH0 DUP1 REVERT JUMPDEST PUSH0 PUSH20 0xFFFFFFFFFFFFFFFFFFFFFFFFFFFFFFFFFFFFFFFF DUP3 AND SWAP1 POP SWAP2 SWAP1 POP JUMP JUMPDEST PUSH0 PUSH2 0xF2F DUP3 PUSH2 0xF06 JUMP JUMPDEST SWAP1 POP SWAP2 SWAP1 POP JUMP JUMPDEST PUSH2 0xF3F DUP2 PUSH2 0xF25 JUMP JUMPDEST DUP2 EQ PUSH2 0xF49 JUMPI PUSH0 DUP1 REVERT JUMPDEST POP JUMP JUMPDEST PUSH0 DUP2 CALLDATALOAD SWAP1 POP PUSH2 0xF5A DUP2 PUSH2 0xF36 JUMP JUMPDEST SWAP3 SWAP2 POP POP JUMP JUMPDEST PUSH0 DUP2 SWAP1 POP SWAP2 SWAP1 POP JUMP JUMPDEST PUSH2 0xF72 DUP2 PUSH2 0xF60 JUMP JUMPDEST DUP2 EQ PUSH2 0xF7C JUMPI PUSH0 DUP1 REVERT JUMPDEST POP JUMP JUMPDEST PUSH0 DUP2 CALLDATALOAD SWAP1 POP PUSH2 0xF8D DUP2 PUSH2 0xF69 JUMP JUMPDEST SWAP3 SWAP2 POP POP JUMP JUMPDEST PUSH0 DUP1 PUSH1 0x40 DUP4 DUP6 SUB SLT ISZERO PUSH2 0xFA9 JUMPI PUSH2 0xFA8 PUSH2 0xF02 JUMP JUMPDEST JUMPDEST PUSH0 PUSH2 0xFB6 DUP6 DUP3 DUP7 ADD PUSH2 0xF4C JUMP JUMPDEST SWAP3 POP POP PUSH1 0x20 PUSH2 0xFC7 DUP6 DUP3 DUP7 ADD PUSH2 0xF7F JUMP JUMPDEST SWAP2 POP POP SWAP3 POP SWAP3 SWAP1 POP JUMP JUMPDEST PUSH0 DUP2 ISZERO ISZERO SWAP1 POP SWAP2 SWAP1 POP JUMP JUMPDEST PUSH2 0xFE5 DUP2 PUSH2 0xFD1 JUMP JUMPDEST DUP3 MSTORE POP POP JUMP JUMPDEST PUSH0 PUSH1 0x20 DUP3 ADD SWAP1 POP PUSH2 0xFFE PUSH0 DUP4 ADD DUP5 PUSH2 0xFDC JUMP JUMPDEST SWAP3 SWAP2 POP POP JUMP JUMPDEST PUSH2 0x100D DUP2 PUSH2 0xF60 JUMP JUMPDEST DUP3 MSTORE POP POP JUMP JUMPDEST PUSH0 PUSH1 0x20 DUP3 ADD SWAP1 POP PUSH2 0x1026 PUSH0 DUP4 ADD DUP5 PUSH2 0x1004 JUMP JUMPDEST SWAP3 SWAP2 POP POP JUMP JUMPDEST PUSH0 DUP1 PUSH0 PUSH1 0x60 DUP5 DUP7 SUB SLT ISZERO PUSH2 0x1043 JUMPI PUSH2 0x1042 PUSH2 0xF02 JUMP JUMPDEST JUMPDEST PUSH0 PUSH2 0x1050 DUP7 DUP3 DUP8 ADD PUSH2 0xF4C JUMP JUMPDEST SWAP4 POP POP PUSH1 0x20 PUSH2 0x1061 DUP7 DUP3 DUP8 ADD PUSH2 0xF4C JUMP JUMPDEST SWAP3 POP POP PUSH1 0x40 PUSH2 0x1072 DUP7 DUP3 DUP8 ADD PUSH2 0xF7F JUMP JUMPDEST SWAP2 POP POP SWAP3 POP SWAP3 POP SWAP3 JUMP JUMPDEST PUSH0 PUSH1 0xFF DUP3 AND SWAP1 POP SWAP2 SWAP1 POP JUMP JUMPDEST PUSH2 0x1091 DUP2 PUSH2 0x107C JUMP JUMPDEST DUP3 MSTORE POP POP JUMP JUMPDEST PUSH0 PUSH1 0x20 DUP3 ADD SWAP1 POP PUSH2 0x10AA PUSH0 DUP4 ADD DUP5 PUSH2 0x1088 JUMP JUMPDEST SWAP3 SWAP2 POP POP JUMP JUMPDEST PUSH0 PUSH1 0x20 DUP3 DUP5 SUB SLT ISZERO PUSH2 0x10C5 JUMPI PUSH2 0x10C4 PUSH2 0xF02 JUMP JUMPDEST JUMPDEST PUSH0 PUSH2 0x10D2 DUP5 DUP3 DUP6 ADD PUSH2 0xF7F JUMP JUMPDEST SWAP2 POP POP SWAP3 SWAP2 POP POP JUMP JUMPDEST PUSH0 PUSH1 0x20 DUP3 DUP5 SUB SLT ISZERO PUSH2 0x10F0 JUMPI PUSH2 0x10EF PUSH2 0xF02 JUMP JUMPDEST JUMPDEST PUSH0 PUSH2 0x10FD DUP5 DUP3 DUP6 ADD PUSH2 0xF4C JUMP JUMPDEST SWAP2 POP POP SWAP3 SWAP2 POP POP JUMP JUMPDEST PUSH2 0x110F DUP2 PUSH2 0xF25 JUMP JUMPDEST DUP3 MSTORE POP POP JUMP JUMPDEST PUSH0 PUSH1 0x20 DUP3 ADD SWAP1 POP PUSH2 0x1128 PUSH0 DUP4 ADD DUP5 PUSH2 0x1106 JUMP JUMPDEST SWAP3 SWAP2 POP POP JUMP JUMPDEST PUSH0 DUP1 PUSH1 0x40 DUP4 DUP6 SUB SLT ISZERO PUSH2 0x1144 JUMPI PUSH2 0x1143 PUSH2 0xF02 JUMP JUMPDEST JUMPDEST PUSH0 PUSH2 0x1151 DUP6 DUP3 DUP7 ADD PUSH2 0xF4C JUMP JUMPDEST SWAP3 POP POP PUSH1 0x20 PUSH2 0x1162 DUP6 DUP3 DUP7 ADD PUSH2 0xF4C JUMP JUMPDEST SWAP2 POP POP SWAP3 POP SWAP3 SWAP1 POP JUMP JUMPDEST PUSH32 0x4E487B7100000000000000000000000000000000000000000000000000000000 PUSH0 MSTORE PUSH1 0x22 PUSH1 0x4 MSTORE PUSH1 0x24 PUSH0 REVERT JUMPDEST PUSH0 PUSH1 0x2 DUP3 DIV SWAP1 POP PUSH1 0x1 DUP3 AND DUP1 PUSH2 0x11B0 JUMPI PUSH1 0x7F DUP3 AND SWAP2 POP JUMPDEST PUSH1 0x20 DUP3 LT DUP2 SUB PUSH2 0x11C3 JUMPI PUSH2 0x11C2 PUSH2 0x116C JUMP JUMPDEST JUMPDEST POP SWAP2 SWAP1 POP JUMP JUMPDEST PUSH0 PUSH1 0x60 DUP3 ADD SWAP1 POP PUSH2 0x11DC PUSH0 DUP4 ADD DUP7 PUSH2 0x1106 JUMP JUMPDEST PUSH2 0x11E9 PUSH1 0x20 DUP4 ADD DUP6 PUSH2 0x1004 JUMP JUMPDEST PUSH2 0x11F6 PUSH1 0x40 DUP4 ADD DUP5 PUSH2 0x1004 JUMP JUMPDEST SWAP5 SWAP4 POP POP POP POP JUMP JUMPDEST PUSH32 0x4E487B7100000000000000000000000000000000000000000000000000000000 PUSH0 MSTORE PUSH1 0x11 PUSH1 0x4 MSTORE PUSH1 0x24 PUSH0 REVERT JUMPDEST PUSH0 PUSH2 0x1235 DUP3 PUSH2 0xF60 JUMP JUMPDEST SWAP2 POP PUSH2 0x1240 DUP4 PUSH2 0xF60 JUMP JUMPDEST SWAP3 POP DUP3 DUP3 ADD SWAP1 POP DUP1 DUP3 GT ISZERO PUSH2 0x1258 JUMPI PUSH2 0x1257 PUSH2 0x11FE JUMP JUMPDEST JUMPDEST SWAP3 SWAP2 POP POP JUMP INVALID LOG2 PUSH5 0x6970667358 0x22 SLT KECCAK256 0xC 0xE0 JUMPDEST 0xFB 0xD BLOBBASEFEE PUSH9 0x169E17C8F4A6F32DFA 0x4D SWAP15 SWAP11 LOG3 PUSH31 0x5930CBD8B082C210E790C564736F6C63430008190033000000000000000000 "
		},
		"gasEstimates": {
			"creation": {
				"codeDepositCost": "1844600",
				"executionCost": "infinite",
				"totalCost": "infinite"
			},
			"external": {
				"addToBlacklist(address)": "infinite",
				"burnTokens(address,uint256)": "infinite",
				"convertToTokens(uint256)": "infinite",
				"getLastEthPrice()": "infinite",
				"initialEthPrice()": "2471",
				"initialTokenPrice()": "2515",
				"isBlacklisted(address)": "2980",
				"mintTokens(address,uint256)": "infinite",
				"owner()": "2626",
				"priceInUSD()": "2492",
				"removeFromBlacklist(address)": "infinite",
				"renounceOwnership()": "infinite",
				"resetTokensToSale()": "infinite",
				"saleDuration()": "2537",
				"saleStartTime()": "2493",
				"setAllowance(uint256)": "infinite",
				"stablecoin()": "infinite",
				"stablecoinBalance()": "infinite",
				"token()": "infinite",
				"tokenBalance()": "infinite",
				"tokenBalanceOf(address)": "infinite",
				"tokenBalances(address)": "2914",
				"tokenPrice()": "2515",
				"tokensForSale()": "2494",
				"tokensSold()": "2515",
				"totalSupply()": "2516",
				"transferOwnership(address)": "infinite",
				"updateSaleDuration(uint16)": "infinite",
				"updateTokensForSale(uint256)": "infinite",
				"withdrawEther()": "infinite"
			}
		},
		"methodIdentifiers": {
			"addToBlacklist(address)": "44337ea1",
			"burnTokens(address,uint256)": "0d1118ce",
			"convertToTokens(uint256)": "85906256",
			"getLastEthPrice()": "68eadbfa",
			"initialEthPrice()": "1ac737b4",
			"initialTokenPrice()": "2ca0228a",
			"isBlacklisted(address)": "fe575a87",
			"mintTokens(address,uint256)": "f0dda65c",
			"owner()": "8da5cb5b",
			"priceInUSD()": "d41edb7b",
			"removeFromBlacklist(address)": "537df3b6",
			"renounceOwnership()": "715018a6",
			"resetTokensToSale()": "65e6ef48",
			"saleDuration()": "3711d9fb",
			"saleStartTime()": "1cbaee2d",
			"setAllowance(uint256)": "3ba93f26",
			"stablecoin()": "e9cbd822",
			"stablecoinBalance()": "64aabb9e",
			"token()": "fc0c546a",
			"tokenBalance()": "9e1a4d19",
			"tokenBalanceOf(address)": "e42c08f2",
			"tokenBalances(address)": "523fba7f",
			"tokenPrice()": "7ff9b596",
			"tokensForSale()": "12aef8c3",
			"tokensSold()": "518ab2a8",
			"totalSupply()": "18160ddd",
			"transferOwnership(address)": "f2fde38b",
			"updateSaleDuration(uint16)": "83ca0925",
			"updateTokensForSale(uint256)": "82d4d05d",
			"withdrawEther()": "7362377b"
		}
	},
	"abi": [
		{
			"inputs": [],
			"stateMutability": "nonpayable",
			"type": "constructor"
		},
		{
			"inputs": [
				{
					"internalType": "address",
					"name": "owner",
					"type": "address"
				}
			],
			"name": "OwnableInvalidOwner",
			"type": "error"
		},
		{
			"inputs": [
				{
					"internalType": "address",
					"name": "account",
					"type": "address"
				}
			],
			"name": "OwnableUnauthorizedAccount",
			"type": "error"
		},
		{
			"anonymous": false,
			"inputs": [
				{
					"indexed": true,
					"internalType": "address",
					"name": "previousOwner",
					"type": "address"
				},
				{
					"indexed": true,
					"internalType": "address",
					"name": "newOwner",
					"type": "address"
				}
			],
			"name": "OwnershipTransferred",
			"type": "event"
		},
		{
			"anonymous": false,
			"inputs": [
				{
					"indexed": false,
					"internalType": "uint256",
					"name": "newDuration",
					"type": "uint256"
				}
			],
			"name": "SaleDurationUpd",
			"type": "event"
		},
		{
			"anonymous": false,
			"inputs": [
				{
					"indexed": false,
					"internalType": "address",
					"name": "from",
					"type": "address"
				},
				{
					"indexed": false,
					"internalType": "uint256",
					"name": "newPrice",
					"type": "uint256"
				}
			],
			"name": "SuccessBurn",
			"type": "event"
		},
		{
			"anonymous": false,
			"inputs": [
				{
					"indexed": false,
					"internalType": "address",
					"name": "to",
					"type": "address"
				},
				{
					"indexed": false,
					"internalType": "uint256",
					"name": "newDuration",
					"type": "uint256"
				}
			],
			"name": "SuccessMint",
			"type": "event"
		},
		{
			"anonymous": false,
			"inputs": [
				{
					"indexed": false,
					"internalType": "uint256",
					"name": "newPrice",
					"type": "uint256"
				}
			],
			"name": "TokenPriceUpd",
			"type": "event"
		},
		{
			"anonymous": false,
			"inputs": [
				{
					"indexed": true,
					"internalType": "address",
					"name": "buyer",
					"type": "address"
				},
				{
					"indexed": false,
					"internalType": "uint256",
					"name": "amount",
					"type": "uint256"
				}
			],
			"name": "TokensBought",
			"type": "event"
		},
		{
			"inputs": [
				{
					"internalType": "address",
					"name": "account",
					"type": "address"
				}
			],
			"name": "addToBlacklist",
			"outputs": [],
			"stateMutability": "nonpayable",
			"type": "function"
		},
		{
			"inputs": [
				{
					"internalType": "address",
					"name": "from",
					"type": "address"
				},
				{
					"internalType": "uint256",
					"name": "amount",
					"type": "uint256"
				}
			],
			"name": "burnTokens",
			"outputs": [],
			"stateMutability": "nonpayable",
			"type": "function"
		},
		{
			"inputs": [
				{
					"internalType": "uint256",
					"name": "amount",
					"type": "uint256"
				}
			],
			"name": "convertToTokens",
			"outputs": [],
			"stateMutability": "nonpayable",
			"type": "function"
		},
		{
			"inputs": [],
			"name": "getLastEthPrice",
			"outputs": [
				{
					"internalType": "int256",
					"name": "",
					"type": "int256"
				}
			],
			"stateMutability": "view",
			"type": "function"
		},
		{
			"inputs": [],
			"name": "initialEthPrice",
			"outputs": [
				{
					"internalType": "uint256",
					"name": "",
					"type": "uint256"
				}
			],
			"stateMutability": "view",
			"type": "function"
		},
		{
			"inputs": [],
			"name": "initialTokenPrice",
			"outputs": [
				{
					"internalType": "uint256",
					"name": "",
					"type": "uint256"
				}
			],
			"stateMutability": "view",
			"type": "function"
		},
		{
			"inputs": [
				{
					"internalType": "address",
					"name": "account",
					"type": "address"
				}
			],
			"name": "isBlacklisted",
			"outputs": [
				{
					"internalType": "bool",
					"name": "",
					"type": "bool"
				}
			],
			"stateMutability": "view",
			"type": "function"
		},
		{
			"inputs": [
				{
					"internalType": "address",
					"name": "to",
					"type": "address"
				},
				{
					"internalType": "uint256",
					"name": "amount",
					"type": "uint256"
				}
			],
			"name": "mintTokens",
			"outputs": [],
			"stateMutability": "nonpayable",
			"type": "function"
		},
		{
			"inputs": [],
			"name": "owner",
			"outputs": [
				{
					"internalType": "address",
					"name": "",
					"type": "address"
				}
			],
			"stateMutability": "view",
			"type": "function"
		},
		{
			"inputs": [],
			"name": "priceInUSD",
			"outputs": [
				{
					"internalType": "uint256",
					"name": "",
					"type": "uint256"
				}
			],
			"stateMutability": "view",
			"type": "function"
		},
		{
			"inputs": [
				{
					"internalType": "address",
					"name": "account",
					"type": "address"
				}
			],
			"name": "removeFromBlacklist",
			"outputs": [],
			"stateMutability": "nonpayable",
			"type": "function"
		},
		{
			"inputs": [],
			"name": "renounceOwnership",
			"outputs": [],
			"stateMutability": "nonpayable",
			"type": "function"
		},
		{
			"inputs": [],
			"name": "resetTokensToSale",
			"outputs": [],
			"stateMutability": "nonpayable",
			"type": "function"
		},
		{
			"inputs": [],
			"name": "saleDuration",
			"outputs": [
				{
					"internalType": "uint256",
					"name": "",
					"type": "uint256"
				}
			],
			"stateMutability": "view",
			"type": "function"
		},
		{
			"inputs": [],
			"name": "saleStartTime",
			"outputs": [
				{
					"internalType": "uint256",
					"name": "",
					"type": "uint256"
				}
			],
			"stateMutability": "view",
			"type": "function"
		},
		{
			"inputs": [
				{
					"internalType": "uint256",
					"name": "amount",
					"type": "uint256"
				}
			],
			"name": "setAllowance",
			"outputs": [],
			"stateMutability": "nonpayable",
			"type": "function"
		},
		{
			"inputs": [],
			"name": "stablecoin",
			"outputs": [
				{
					"internalType": "contract IERC20",
					"name": "",
					"type": "address"
				}
			],
			"stateMutability": "view",
			"type": "function"
		},
		{
			"inputs": [],
			"name": "stablecoinBalance",
			"outputs": [
				{
					"internalType": "uint256",
					"name": "",
					"type": "uint256"
				}
			],
			"stateMutability": "view",
			"type": "function"
		},
		{
			"inputs": [],
			"name": "token",
			"outputs": [
				{
					"internalType": "contract SolarGreen",
					"name": "",
					"type": "address"
				}
			],
			"stateMutability": "view",
			"type": "function"
		},
		{
			"inputs": [],
			"name": "tokenBalance",
			"outputs": [
				{
					"internalType": "uint256",
					"name": "",
					"type": "uint256"
				}
			],
			"stateMutability": "view",
			"type": "function"
		},
		{
			"inputs": [
				{
					"internalType": "address",
					"name": "_address",
					"type": "address"
				}
			],
			"name": "tokenBalanceOf",
			"outputs": [
				{
					"internalType": "uint256",
					"name": "",
					"type": "uint256"
				}
			],
			"stateMutability": "view",
			"type": "function"
		},
		{
			"inputs": [
				{
					"internalType": "address",
					"name": "",
					"type": "address"
				}
			],
			"name": "tokenBalances",
			"outputs": [
				{
					"internalType": "uint256",
					"name": "",
					"type": "uint256"
				}
			],
			"stateMutability": "view",
			"type": "function"
		},
		{
			"inputs": [],
			"name": "tokenPrice",
			"outputs": [
				{
					"internalType": "uint256",
					"name": "",
					"type": "uint256"
				}
			],
			"stateMutability": "view",
			"type": "function"
		},
		{
			"inputs": [],
			"name": "tokensForSale",
			"outputs": [
				{
					"internalType": "uint256",
					"name": "",
					"type": "uint256"
				}
			],
			"stateMutability": "view",
			"type": "function"
		},
		{
			"inputs": [],
			"name": "tokensSold",
			"outputs": [
				{
					"internalType": "uint256",
					"name": "",
					"type": "uint256"
				}
			],
			"stateMutability": "view",
			"type": "function"
		},
		{
			"inputs": [],
			"name": "totalSupply",
			"outputs": [
				{
					"internalType": "uint256",
					"name": "",
					"type": "uint256"
				}
			],
			"stateMutability": "view",
			"type": "function"
		},
		{
			"inputs": [
				{
					"internalType": "address",
					"name": "newOwner",
					"type": "address"
				}
			],
			"name": "transferOwnership",
			"outputs": [],
			"stateMutability": "nonpayable",
			"type": "function"
		},
		{
			"inputs": [
				{
					"internalType": "uint16",
					"name": "_newDurationWeeks",
					"type": "uint16"
				}
			],
			"name": "updateSaleDuration",
			"outputs": [],
			"stateMutability": "nonpayable",
			"type": "function"
		},
		{
			"inputs": [
				{
					"internalType": "uint256",
					"name": "_newTokensForSale",
					"type": "uint256"
				}
			],
			"name": "updateTokensForSale",
			"outputs": [],
			"stateMutability": "nonpayable",
			"type": "function"
		},
		{
			"inputs": [],
			"name": "withdrawEther",
			"outputs": [],
			"stateMutability": "nonpayable",
			"type": "function"
		},
		{
			"stateMutability": "payable",
			"type": "receive"
		}
	]
}